{
  "contractName": "EXOToken",
  "abi": [
    {
      "constant": true,
      "inputs": [],
      "name": "ICOStartTime",
      "outputs": [
        {
          "name": "",
          "type": "uint256"
        }
      ],
      "payable": false,
      "stateMutability": "view",
      "type": "function"
    },
    {
      "constant": true,
      "inputs": [],
      "name": "preSaleStartTime",
      "outputs": [
        {
          "name": "",
          "type": "uint256"
        }
      ],
      "payable": false,
      "stateMutability": "view",
      "type": "function"
    },
    {
      "constant": true,
      "inputs": [],
      "name": "name",
      "outputs": [
        {
          "name": "",
          "type": "string"
        }
      ],
      "payable": false,
      "stateMutability": "view",
      "type": "function"
    },
    {
      "constant": false,
      "inputs": [
        {
          "name": "_spender",
          "type": "address"
        },
        {
          "name": "_value",
          "type": "uint256"
        }
      ],
      "name": "approve",
      "outputs": [
        {
          "name": "",
          "type": "bool"
        }
      ],
      "payable": false,
      "stateMutability": "nonpayable",
      "type": "function"
    },
    {
      "constant": true,
      "inputs": [],
      "name": "minBalanceForStakeReward",
      "outputs": [
        {
          "name": "",
          "type": "uint256"
        }
      ],
      "payable": false,
      "stateMutability": "view",
      "type": "function"
    },
    {
      "constant": true,
      "inputs": [],
      "name": "initialICOFund",
      "outputs": [
        {
          "name": "",
          "type": "uint256"
        }
      ],
      "payable": false,
      "stateMutability": "view",
      "type": "function"
    },
    {
      "constant": true,
      "inputs": [],
      "name": "totalSupply",
      "outputs": [
        {
          "name": "",
          "type": "uint256"
        }
      ],
      "payable": false,
      "stateMutability": "view",
      "type": "function"
    },
    {
      "constant": true,
      "inputs": [],
      "name": "preSaleDuration",
      "outputs": [
        {
          "name": "",
          "type": "uint256"
        }
      ],
      "payable": false,
      "stateMutability": "view",
      "type": "function"
    },
    {
      "constant": false,
      "inputs": [
        {
          "name": "_to",
          "type": "address"
        }
      ],
      "name": "airdrop",
      "outputs": [
        {
          "name": "",
          "type": "bool"
        }
      ],
      "payable": false,
      "stateMutability": "nonpayable",
      "type": "function"
    },
    {
      "constant": false,
      "inputs": [
        {
          "name": "_from",
          "type": "address"
        },
        {
          "name": "_to",
          "type": "address"
        },
        {
          "name": "_value",
          "type": "uint256"
        }
      ],
      "name": "transferFrom",
      "outputs": [
        {
          "name": "",
          "type": "bool"
        }
      ],
      "payable": false,
      "stateMutability": "nonpayable",
      "type": "function"
    },
    {
      "constant": false,
      "inputs": [],
      "name": "claimEtherFundRaisedInICO",
      "outputs": [
        {
          "name": "",
          "type": "bool"
        }
      ],
      "payable": false,
      "stateMutability": "nonpayable",
      "type": "function"
    },
    {
      "constant": true,
      "inputs": [
        {
          "name": "_staker",
          "type": "address"
        }
      ],
      "name": "stakeStartTimeOf",
      "outputs": [
        {
          "name": "",
          "type": "uint256"
        }
      ],
      "payable": false,
      "stateMutability": "view",
      "type": "function"
    },
    {
      "constant": false,
      "inputs": [
        {
          "name": "_value",
          "type": "uint256"
        }
      ],
      "name": "withdrawStake",
      "outputs": [
        {
          "name": "",
          "type": "bool"
        }
      ],
      "payable": false,
      "stateMutability": "nonpayable",
      "type": "function"
    },
    {
      "constant": true,
      "inputs": [],
      "name": "decimals",
      "outputs": [
        {
          "name": "",
          "type": "uint8"
        }
      ],
      "payable": false,
      "stateMutability": "view",
      "type": "function"
    },
    {
      "constant": true,
      "inputs": [],
      "name": "availableICOFund",
      "outputs": [
        {
          "name": "",
          "type": "uint256"
        }
      ],
      "payable": false,
      "stateMutability": "view",
      "type": "function"
    },
    {
      "constant": false,
      "inputs": [
        {
          "name": "_oldTreasuryCarrier",
          "type": "address"
        },
        {
          "name": "_treasuryCarrier",
          "type": "address"
        }
      ],
      "name": "setTreasuryCarrier",
      "outputs": [
        {
          "name": "",
          "type": "bool"
        }
      ],
      "payable": false,
      "stateMutability": "nonpayable",
      "type": "function"
    },
    {
      "constant": false,
      "inputs": [],
      "name": "releaseRemainingICOFundToPrimaryHolder",
      "outputs": [
        {
          "name": "",
          "type": "bool"
        }
      ],
      "payable": false,
      "stateMutability": "nonpayable",
      "type": "function"
    },
    {
      "constant": true,
      "inputs": [],
      "name": "totalICOTokensBought",
      "outputs": [
        {
          "name": "",
          "type": "uint256"
        }
      ],
      "payable": false,
      "stateMutability": "view",
      "type": "function"
    },
    {
      "constant": false,
      "inputs": [],
      "name": "unpause",
      "outputs": [],
      "payable": false,
      "stateMutability": "nonpayable",
      "type": "function"
    },
    {
      "constant": false,
      "inputs": [],
      "name": "kill",
      "outputs": [],
      "payable": false,
      "stateMutability": "nonpayable",
      "type": "function"
    },
    {
      "constant": true,
      "inputs": [],
      "name": "minICOTokensBoughtEveryPurchase",
      "outputs": [
        {
          "name": "",
          "type": "uint256"
        }
      ],
      "payable": false,
      "stateMutability": "view",
      "type": "function"
    },
    {
      "constant": true,
      "inputs": [],
      "name": "primaryHolder",
      "outputs": [
        {
          "name": "",
          "type": "address"
        }
      ],
      "payable": false,
      "stateMutability": "view",
      "type": "function"
    },
    {
      "constant": true,
      "inputs": [],
      "name": "version",
      "outputs": [
        {
          "name": "",
          "type": "uint8"
        }
      ],
      "payable": false,
      "stateMutability": "view",
      "type": "function"
    },
    {
      "constant": false,
      "inputs": [],
      "name": "startPreSale",
      "outputs": [
        {
          "name": "",
          "type": "bool"
        }
      ],
      "payable": false,
      "stateMutability": "nonpayable",
      "type": "function"
    },
    {
      "constant": true,
      "inputs": [
        {
          "name": "_type",
          "type": "bytes32"
        }
      ],
      "name": "lockedFundOf",
      "outputs": [
        {
          "name": "",
          "type": "uint256"
        }
      ],
      "payable": false,
      "stateMutability": "view",
      "type": "function"
    },
    {
      "constant": true,
      "inputs": [],
      "name": "paused",
      "outputs": [
        {
          "name": "",
          "type": "bool"
        }
      ],
      "payable": false,
      "stateMutability": "view",
      "type": "function"
    },
    {
      "constant": false,
      "inputs": [
        {
          "name": "_spender",
          "type": "address"
        },
        {
          "name": "_subtractedValue",
          "type": "uint256"
        }
      ],
      "name": "decreaseApproval",
      "outputs": [
        {
          "name": "success",
          "type": "bool"
        }
      ],
      "payable": false,
      "stateMutability": "nonpayable",
      "type": "function"
    },
    {
      "constant": false,
      "inputs": [
        {
          "name": "_oldPreSaleCarrier",
          "type": "address"
        },
        {
          "name": "_preSaleCarrier",
          "type": "address"
        }
      ],
      "name": "setPreSaleCarrier",
      "outputs": [
        {
          "name": "",
          "type": "bool"
        }
      ],
      "payable": false,
      "stateMutability": "nonpayable",
      "type": "function"
    },
    {
      "constant": true,
      "inputs": [
        {
          "name": "_owner",
          "type": "address"
        }
      ],
      "name": "balanceOf",
      "outputs": [
        {
          "name": "balance",
          "type": "uint256"
        }
      ],
      "payable": false,
      "stateMutability": "view",
      "type": "function"
    },
    {
      "constant": true,
      "inputs": [],
      "name": "contractName",
      "outputs": [
        {
          "name": "",
          "type": "string"
        }
      ],
      "payable": false,
      "stateMutability": "view",
      "type": "function"
    },
    {
      "constant": true,
      "inputs": [],
      "name": "maxICOTokensBought",
      "outputs": [
        {
          "name": "",
          "type": "uint256"
        }
      ],
      "payable": false,
      "stateMutability": "view",
      "type": "function"
    },
    {
      "constant": true,
      "inputs": [
        {
          "name": "_address",
          "type": "address"
        }
      ],
      "name": "ICOTokensBoughtBy",
      "outputs": [
        {
          "name": "",
          "type": "uint256"
        }
      ],
      "payable": false,
      "stateMutability": "view",
      "type": "function"
    },
    {
      "constant": false,
      "inputs": [],
      "name": "updateStakeBalance",
      "outputs": [
        {
          "name": "",
          "type": "uint256"
        }
      ],
      "payable": false,
      "stateMutability": "nonpayable",
      "type": "function"
    },
    {
      "constant": false,
      "inputs": [],
      "name": "startICO",
      "outputs": [
        {
          "name": "",
          "type": "bool"
        }
      ],
      "payable": false,
      "stateMutability": "nonpayable",
      "type": "function"
    },
    {
      "constant": false,
      "inputs": [],
      "name": "pause",
      "outputs": [],
      "payable": false,
      "stateMutability": "nonpayable",
      "type": "function"
    },
    {
      "constant": true,
      "inputs": [],
      "name": "symbol",
      "outputs": [
        {
          "name": "",
          "type": "string"
        }
      ],
      "payable": false,
      "stateMutability": "view",
      "type": "function"
    },
    {
      "constant": true,
      "inputs": [],
      "name": "ICO_ETH_TO_EXO",
      "outputs": [
        {
          "name": "",
          "type": "uint256"
        }
      ],
      "payable": false,
      "stateMutability": "view",
      "type": "function"
    },
    {
      "constant": true,
      "inputs": [],
      "name": "ICODeadline",
      "outputs": [
        {
          "name": "",
          "type": "uint256"
        }
      ],
      "payable": false,
      "stateMutability": "view",
      "type": "function"
    },
    {
      "constant": false,
      "inputs": [
        {
          "name": "_to",
          "type": "address"
        },
        {
          "name": "_value",
          "type": "uint256"
        }
      ],
      "name": "transfer",
      "outputs": [
        {
          "name": "",
          "type": "bool"
        }
      ],
      "payable": false,
      "stateMutability": "nonpayable",
      "type": "function"
    },
    {
      "constant": true,
      "inputs": [
        {
          "name": "_staker",
          "type": "address"
        }
      ],
      "name": "stakeBalanceOf",
      "outputs": [
        {
          "name": "",
          "type": "uint256"
        }
      ],
      "payable": false,
      "stateMutability": "view",
      "type": "function"
    },
    {
      "constant": true,
      "inputs": [
        {
          "name": "_address",
          "type": "address"
        }
      ],
      "name": "isAirdropped",
      "outputs": [
        {
          "name": "",
          "type": "bool"
        }
      ],
      "payable": false,
      "stateMutability": "view",
      "type": "function"
    },
    {
      "constant": true,
      "inputs": [],
      "name": "PRESALE_ETH_TO_EXO",
      "outputs": [
        {
          "name": "",
          "type": "uint256"
        }
      ],
      "payable": false,
      "stateMutability": "view",
      "type": "function"
    },
    {
      "constant": false,
      "inputs": [
        {
          "name": "_value",
          "type": "uint256"
        }
      ],
      "name": "depositStake",
      "outputs": [
        {
          "name": "",
          "type": "bool"
        }
      ],
      "payable": false,
      "stateMutability": "nonpayable",
      "type": "function"
    },
    {
      "constant": false,
      "inputs": [
        {
          "name": "_spender",
          "type": "address"
        },
        {
          "name": "_addedValue",
          "type": "uint256"
        }
      ],
      "name": "increaseApproval",
      "outputs": [
        {
          "name": "success",
          "type": "bool"
        }
      ],
      "payable": false,
      "stateMutability": "nonpayable",
      "type": "function"
    },
    {
      "constant": true,
      "inputs": [
        {
          "name": "_owner",
          "type": "address"
        },
        {
          "name": "_spender",
          "type": "address"
        }
      ],
      "name": "allowance",
      "outputs": [
        {
          "name": "",
          "type": "uint256"
        }
      ],
      "payable": false,
      "stateMutability": "view",
      "type": "function"
    },
    {
      "constant": false,
      "inputs": [],
      "name": "buyICOTokens",
      "outputs": [
        {
          "name": "",
          "type": "bool"
        }
      ],
      "payable": true,
      "stateMutability": "payable",
      "type": "function"
    },
    {
      "constant": true,
      "inputs": [],
      "name": "calculateInterest",
      "outputs": [
        {
          "name": "",
          "type": "uint256"
        }
      ],
      "payable": false,
      "stateMutability": "view",
      "type": "function"
    },
    {
      "constant": true,
      "inputs": [],
      "name": "ICODuration",
      "outputs": [
        {
          "name": "",
          "type": "uint256"
        }
      ],
      "payable": false,
      "stateMutability": "view",
      "type": "function"
    },
    {
      "constant": true,
      "inputs": [],
      "name": "preSaleDeadline",
      "outputs": [
        {
          "name": "",
          "type": "uint256"
        }
      ],
      "payable": false,
      "stateMutability": "view",
      "type": "function"
    },
    {
      "constant": true,
      "inputs": [],
      "name": "airdropAmount",
      "outputs": [
        {
          "name": "",
          "type": "uint256"
        }
      ],
      "payable": false,
      "stateMutability": "view",
      "type": "function"
    },
    {
      "inputs": [
        {
          "name": "_exoStorageAddress",
          "type": "address"
        },
        {
          "name": "_totalSupply",
          "type": "uint256"
        },
        {
          "name": "_minBalanceForStakeReward",
          "type": "uint256"
        },
        {
          "name": "_lockedTreasuryFund",
          "type": "uint256"
        },
        {
          "name": "_lockedPreSaleFund",
          "type": "uint256"
        },
        {
          "name": "_preSaleDuration",
          "type": "uint256"
        },
        {
          "name": "_ICODuration",
          "type": "uint256"
        },
        {
          "name": "_availableICOFund",
          "type": "uint256"
        },
        {
          "name": "_minICOTokensBoughtEveryPurchase",
          "type": "uint256"
        },
        {
          "name": "_maxICOTokensBought",
          "type": "uint256"
        },
        {
          "name": "_airdropAmount",
          "type": "uint256"
        }
      ],
      "payable": true,
      "stateMutability": "payable",
      "type": "constructor"
    },
    {
      "payable": true,
      "stateMutability": "payable",
      "type": "fallback"
    },
    {
      "anonymous": false,
      "inputs": [
        {
          "indexed": false,
          "name": "startTime",
          "type": "uint256"
        },
        {
          "indexed": false,
          "name": "deadline",
          "type": "uint256"
        }
      ],
      "name": "StartPreSale",
      "type": "event"
    },
    {
      "anonymous": false,
      "inputs": [
        {
          "indexed": false,
          "name": "startTime",
          "type": "uint256"
        },
        {
          "indexed": false,
          "name": "deadline",
          "type": "uint256"
        }
      ],
      "name": "StartICO",
      "type": "event"
    },
    {
      "anonymous": false,
      "inputs": [
        {
          "indexed": true,
          "name": "from",
          "type": "address"
        },
        {
          "indexed": true,
          "name": "to",
          "type": "address"
        },
        {
          "indexed": false,
          "name": "value",
          "type": "uint256"
        }
      ],
      "name": "TransferETH",
      "type": "event"
    },
    {
      "anonymous": false,
      "inputs": [
        {
          "indexed": true,
          "name": "staker",
          "type": "address"
        },
        {
          "indexed": false,
          "name": "value",
          "type": "uint256"
        }
      ],
      "name": "DepositStake",
      "type": "event"
    },
    {
      "anonymous": false,
      "inputs": [
        {
          "indexed": true,
          "name": "staker",
          "type": "address"
        },
        {
          "indexed": false,
          "name": "value",
          "type": "uint256"
        }
      ],
      "name": "WithdrawStake",
      "type": "event"
    },
    {
      "anonymous": false,
      "inputs": [
        {
          "indexed": true,
          "name": "staker",
          "type": "address"
        },
        {
          "indexed": false,
          "name": "balance",
          "type": "uint256"
        }
      ],
      "name": "UpdateStakeBalance",
      "type": "event"
    },
    {
      "anonymous": false,
      "inputs": [
        {
          "indexed": true,
          "name": "oldCarrier",
          "type": "address"
        },
        {
          "indexed": true,
          "name": "newCarrier",
          "type": "address"
        }
      ],
      "name": "SetTreasuryCarrier",
      "type": "event"
    },
    {
      "anonymous": false,
      "inputs": [
        {
          "indexed": true,
          "name": "oldCarrier",
          "type": "address"
        },
        {
          "indexed": true,
          "name": "newCarrier",
          "type": "address"
        }
      ],
      "name": "SetPreSaleCarrier",
      "type": "event"
    },
    {
      "anonymous": false,
      "inputs": [
        {
          "indexed": true,
          "name": "oldCarrier",
          "type": "address"
        },
        {
          "indexed": true,
          "name": "newCarrier",
          "type": "address"
        }
      ],
      "name": "SetAirdropCarrier",
      "type": "event"
    },
    {
      "anonymous": false,
      "inputs": [],
      "name": "Pause",
      "type": "event"
    },
    {
      "anonymous": false,
      "inputs": [],
      "name": "Unpause",
      "type": "event"
    },
    {
      "anonymous": false,
      "inputs": [
        {
          "indexed": false,
          "name": "contractName",
          "type": "string"
        },
        {
          "indexed": true,
          "name": "contractAddress",
          "type": "address"
        }
      ],
      "name": "SelfDestruct",
      "type": "event"
    },
    {
      "anonymous": false,
      "inputs": [
        {
          "indexed": true,
          "name": "owner",
          "type": "address"
        },
        {
          "indexed": true,
          "name": "spender",
          "type": "address"
        },
        {
          "indexed": false,
          "name": "value",
          "type": "uint256"
        }
      ],
      "name": "Approval",
      "type": "event"
    },
    {
      "anonymous": false,
      "inputs": [
        {
          "indexed": true,
          "name": "from",
          "type": "address"
        },
        {
          "indexed": true,
          "name": "to",
          "type": "address"
        },
        {
          "indexed": false,
          "name": "value",
          "type": "uint256"
        }
      ],
      "name": "Transfer",
      "type": "event"
    }
  ],
  "bytecode": "0x60606040526000600260006101000a81548173ffffffffffffffffffffffffffffffffffffffff021916908373ffffffffffffffffffffffffffffffffffffffff1602179055506000600260146101000a81548160ff0219169083151502179055506040516101608062006de18339810160405280805190602001909190805190602001909190805190602001909190805190602001909190805190602001909190805190602001909190805190602001909190805190602001909190805190602001909190805190602001909190805190602001909190505060006040805190810160405280600881526020017f45584f546f6b656e0000000000000000000000000000000000000000000000008152508c81600190805190602001906200012a92919062001114565b5080600260006101000a81548173ffffffffffffffffffffffffffffffffffffffff021916908373ffffffffffffffffffffffffffffffffffffffff1602179055505050620001c56040805190810160405280600581526020017f6f776e6572000000000000000000000000000000000000000000000000000000815250336001620006816401000000000262004238176401000000009004565b620001ef601260ff16600a0a8b620006b864010000000002620052a6179091906401000000009004565b60038190555086600481905550856005819055506200022d601260ff16600a0a86620006b864010000000002620052a6179091906401000000009004565b6006819055506200025d601260ff16600a0a85620006b864010000000002620052a6179091906401000000009004565b6007819055506200028d601260ff16600a0a84620006b864010000000002620052a6179091906401000000009004565b600881905550620002bd601260ff16600a0a83620006b864010000000002620052a6179091906401000000009004565b600981905550600260009054906101000a900473ffffffffffffffffffffffffffffffffffffffff1673ffffffffffffffffffffffffffffffffffffffff16637ae1cfca60405180807f636f6e74726163742e73746f726167652e696e697469616c697a656400000000815250601c01905060405180910390206000604051602001526040518263ffffffff167c0100000000000000000000000000000000000000000000000000000000028152600401808260001916600019168152602001915050602060405180830381600087803b15156200039a57600080fd5b6102c65a03f11515620003ac57600080fd5b5050506040518051905090506000151581151514156200066f57620003e533620006f764010000000002620059de176401000000009004565b6200042d62000413601260ff16600a0a8d620006b864010000000002620052a6179091906401000000009004565b620008116401000000000262005af6176401000000009004565b620004967f74726561737572790000000000000000000000000000000000000000000000006200047c601260ff16600a0a8c620006b864010000000002620052a6179091906401000000009004565b620008ff64010000000002620057d6176401000000009004565b620004ff7f70726553616c6500000000000000000000000000000000000000000000000000620004e5601260ff16600a0a8b620006b864010000000002620052a6179091906401000000009004565b620008ff64010000000002620057d6176401000000009004565b62000520600654620009fe6401000000000262004271176401000000009004565b6200064133620006276006546200060a6200056f7f70726553616c650000000000000000000000000000000000000000000000000062000aec6401000000000262002797176401000000009004565b620005ed620005b27f747265617375727900000000000000000000000000000000000000000000000062000aec6401000000000262002797176401000000009004565b620005d062000bf864010000000002620010fb176401000000009004565b62000cf26401000000000262004258179091906401000000009004565b62000cf26401000000000262004258179091906401000000009004565b62000cf26401000000000262004258179091906401000000009004565b62000d0c6401000000000262004791176401000000009004565b600354620006633362000e3e6401000000000262002bcc176401000000009004565b101515156200066e57fe5b5b505050505050505050505050620011c3565b801515620006a4848462000f7d64010000000002620048c1176401000000009004565b1515141515620006b357600080fd5b505050565b6000806000841415620006cf5760009150620006f0565b8284029050828482811515620006e157fe5b04141515620006ec57fe5b8091505b5092915050565b600260009054906101000a900473ffffffffffffffffffffffffffffffffffffffff1673ffffffffffffffffffffffffffffffffffffffff1663ca446dd960405180807f746f6b656e2e7072696d617279486f6c6465720000000000000000000000000081525060130190506040518091039020836040518363ffffffff167c01000000000000000000000000000000000000000000000000000000000281526004018083600019166000191681526020018273ffffffffffffffffffffffffffffffffffffffff1673ffffffffffffffffffffffffffffffffffffffff16815260200192505050600060405180830381600087803b1515620007f957600080fd5b6102c65a03f115156200080b57600080fd5b50505050565b600260009054906101000a900473ffffffffffffffffffffffffffffffffffffffff1673ffffffffffffffffffffffffffffffffffffffff1663e2a4853a60405180807f746f6b656e2e746f74616c537570706c7900000000000000000000000000000081525060110190506040518091039020836040518363ffffffff167c010000000000000000000000000000000000000000000000000000000002815260040180836000191660001916815260200182815260200192505050600060405180830381600087803b1515620008e757600080fd5b6102c65a03f11515620008f957600080fd5b50505050565b600260009054906101000a900473ffffffffffffffffffffffffffffffffffffffff1673ffffffffffffffffffffffffffffffffffffffff1663e2a4853a8360405180807f746f6b656e2e6c6f636b656446756e647300000000000000000000000000000081525060110182600019166000191681526020019150506040518091039020836040518363ffffffff167c010000000000000000000000000000000000000000000000000000000002815260040180836000191660001916815260200182815260200192505050600060405180830381600087803b1515620009e557600080fd5b6102c65a03f11515620009f757600080fd5b5050505050565b600260009054906101000a900473ffffffffffffffffffffffffffffffffffffffff1673ffffffffffffffffffffffffffffffffffffffff1663e2a4853a60405180807f746f6b656e2e617661696c61626c6549434f46756e640000000000000000000081525060160190506040518091039020836040518363ffffffff167c010000000000000000000000000000000000000000000000000000000002815260040180836000191660001916815260200182815260200192505050600060405180830381600087803b151562000ad457600080fd5b6102c65a03f1151562000ae657600080fd5b50505050565b6000600260009054906101000a900473ffffffffffffffffffffffffffffffffffffffff1673ffffffffffffffffffffffffffffffffffffffff1663bd02d0f58360405180807f746f6b656e2e6c6f636b656446756e6473000000000000000000000000000000815250601101826000191660001916815260200191505060405180910390206000604051602001526040518263ffffffff167c0100000000000000000000000000000000000000000000000000000000028152600401808260001916600019168152602001915050602060405180830381600087803b151562000bd557600080fd5b6102c65a03f1151562000be757600080fd5b505050604051805190509050919050565b6000600260009054906101000a900473ffffffffffffffffffffffffffffffffffffffff1673ffffffffffffffffffffffffffffffffffffffff1663bd02d0f560405180807f746f6b656e2e746f74616c537570706c79000000000000000000000000000000815250601101905060405180910390206000604051602001526040518263ffffffff167c0100000000000000000000000000000000000000000000000000000000028152600401808260001916600019168152602001915050602060405180830381600087803b151562000cd157600080fd5b6102c65a03f1151562000ce357600080fd5b50505060405180519050905090565b600082821115151562000d0157fe5b818303905092915050565b600260009054906101000a900473ffffffffffffffffffffffffffffffffffffffff1673ffffffffffffffffffffffffffffffffffffffff1663e2a4853a8360405180807f746f6b656e2e62616c616e636573000000000000000000000000000000000000815250600e018273ffffffffffffffffffffffffffffffffffffffff1673ffffffffffffffffffffffffffffffffffffffff166c010000000000000000000000000281526014019150506040518091039020836040518363ffffffff167c010000000000000000000000000000000000000000000000000000000002815260040180836000191660001916815260200182815260200192505050600060405180830381600087803b151562000e2557600080fd5b6102c65a03f1151562000e3757600080fd5b5050505050565b6000600260009054906101000a900473ffffffffffffffffffffffffffffffffffffffff1673ffffffffffffffffffffffffffffffffffffffff1663bd02d0f58360405180807f746f6b656e2e62616c616e636573000000000000000000000000000000000000815250600e018273ffffffffffffffffffffffffffffffffffffffff1673ffffffffffffffffffffffffffffffffffffffff166c0100000000000000000000000002815260140191505060405180910390206000604051602001526040518263ffffffff167c0100000000000000000000000000000000000000000000000000000000028152600401808260001916600019168152602001915050602060405180830381600087803b151562000f5a57600080fd5b6102c65a03f1151562000f6c57600080fd5b505050604051805190509050919050565b6000600260009054906101000a900473ffffffffffffffffffffffffffffffffffffffff1673ffffffffffffffffffffffffffffffffffffffff16637ae1cfca848460405180807f6163636573732e726f6c65000000000000000000000000000000000000000000815250600b0183805190602001908083835b6020831015156200101e578051825260208201915060208101905060208303925062000ff7565b6001836020036101000a0380198251168184511680821785525050505050509050018273ffffffffffffffffffffffffffffffffffffffff1673ffffffffffffffffffffffffffffffffffffffff166c010000000000000000000000000281526014019250505060405180910390206000604051602001526040518263ffffffff167c0100000000000000000000000000000000000000000000000000000000028152600401808260001916600019168152602001915050602060405180830381600087803b1515620010f057600080fd5b6102c65a03f115156200110257600080fd5b50505060405180519050905092915050565b828054600181600116156101000203166002900490600052602060002090601f016020900481019282601f106200115757805160ff191683800117855562001188565b8280016001018555821562001188579182015b82811115620011875782518255916020019190600101906200116a565b5b5090506200119791906200119b565b5090565b620011c091905b80821115620011bc576000816000905550600101620011a2565b5090565b90565b615c0e80620011d36000396000f30060606040526004361061025c576000357c0100000000000000000000000000000000000000000000000000000000900463ffffffff16806303652c4e1461026157806306d65af31461028a57806306fdde03146102b3578063095ea7b3146103415780630ec0d8791461039b57806310b44d1e146103c457806318160ddd146103ed5780631bd16dbf1461041657806321860a051461043f57806323b872dd1461049057806323fc2a5f146105095780632420521b1461053657806325d5971f14610583578063313ce567146105be57806331b824f9146105ed578063328460a21461061657806334009cca146106865780633e806e67146106b35780633f4ba83a146106dc57806341c0e1b5146106f1578063461e0c801461070657806352f024151461072f57806354fd4d501461078457806355dd574c146107b35780635c08436a146107e05780635c975abb1461081b578063661884631461084857806370605190146108a257806370a082311461091257806375d0c0dc1461095f578063770d06cb146109ed578063782cf3e514610a165780637edc400e14610a635780637fa8c15814610a8c5780638456cb5914610ab957806395d89b4114610ace57806395fa010814610b5c578063a6d2795d14610b85578063a9059cbb14610bae578063af46aa0814610c08578063bfa51df914610c55578063c3a36ec514610ca6578063cb82cc8f14610ccf578063d73dd62314610d0a578063dd62ed3e14610d64578063e3f954be14610dd0578063eb0c495514610df2578063f6cc5ace14610e1b578063f9327b9f14610e44578063fc2ea8a514610e6d575b600080fd5b341561026c57600080fd5b610274610e96565b6040518082815260200191505060405180910390f35b341561029557600080fd5b61029d610f8e565b6040518082815260200191505060405180910390f35b34156102be57600080fd5b6102c6611086565b6040518080602001828103825283818151815260200191508051906020019080838360005b838110156103065780820151818401526020810190506102eb565b50505050905090810190601f1680156103335780820380516001836020036101000a031916815260200191505b509250505060405180910390f35b341561034c57600080fd5b610381600480803573ffffffffffffffffffffffffffffffffffffffff169060200190919080359060200190919050506110bf565b604051808215151515815260200191505060405180910390f35b34156103a657600080fd5b6103ae6110ef565b6040518082815260200191505060405180910390f35b34156103cf57600080fd5b6103d76110f5565b6040518082815260200191505060405180910390f35b34156103f857600080fd5b6104006110fb565b6040518082815260200191505060405180910390f35b341561042157600080fd5b6104296111f3565b6040518082815260200191505060405180910390f35b341561044a57600080fd5b610476600480803573ffffffffffffffffffffffffffffffffffffffff169060200190919050506111f9565b604051808215151515815260200191505060405180910390f35b341561049b57600080fd5b6104ef600480803573ffffffffffffffffffffffffffffffffffffffff1690602001909190803573ffffffffffffffffffffffffffffffffffffffff16906020019091908035906020019091905050611444565b604051808215151515815260200191505060405180910390f35b341561051457600080fd5b61051c61157c565b604051808215151515815260200191505060405180910390f35b341561054157600080fd5b61056d600480803573ffffffffffffffffffffffffffffffffffffffff16906020019091905050611700565b6040518082815260200191505060405180910390f35b341561058e57600080fd5b6105a46004808035906020019091905050611865565b604051808215151515815260200191505060405180910390f35b34156105c957600080fd5b6105d1611a32565b604051808260ff1660ff16815260200191505060405180910390f35b34156105f857600080fd5b610600611a37565b6040518082815260200191505060405180910390f35b341561062157600080fd5b61066c600480803573ffffffffffffffffffffffffffffffffffffffff1690602001909190803573ffffffffffffffffffffffffffffffffffffffff16906020019091905050611b2f565b604051808215151515815260200191505060405180910390f35b341561069157600080fd5b610699611db6565b604051808215151515815260200191505060405180910390f35b34156106be57600080fd5b6106c6611f09565b6040518082815260200191505060405180910390f35b34156106e757600080fd5b6106ef612001565b005b34156106fc57600080fd5b6107046120a8565b005b341561071157600080fd5b6107196124cf565b6040518082815260200191505060405180910390f35b341561073a57600080fd5b6107426124d5565b604051808273ffffffffffffffffffffffffffffffffffffffff1673ffffffffffffffffffffffffffffffffffffffff16815260200191505060405180910390f35b341561078f57600080fd5b6107976125cd565b604051808260ff1660ff16815260200191505060405180910390f35b34156107be57600080fd5b6107c66125df565b604051808215151515815260200191505060405180910390f35b34156107eb57600080fd5b610805600480803560001916906020019091905050612797565b6040518082815260200191505060405180910390f35b341561082657600080fd5b61082e6128a1565b604051808215151515815260200191505060405180910390f35b341561085357600080fd5b610888600480803573ffffffffffffffffffffffffffffffffffffffff169060200190919080359060200190919050506128b4565b604051808215151515815260200191505060405180910390f35b34156108ad57600080fd5b6108f8600480803573ffffffffffffffffffffffffffffffffffffffff1690602001909190803573ffffffffffffffffffffffffffffffffffffffff169060200190919050506128e4565b604051808215151515815260200191505060405180910390f35b341561091d57600080fd5b610949600480803573ffffffffffffffffffffffffffffffffffffffff16906020019091905050612bcc565b6040518082815260200191505060405180910390f35b341561096a57600080fd5b610972612d09565b6040518080602001828103825283818151815260200191508051906020019080838360005b838110156109b2578082015181840152602081019050610997565b50505050905090810190601f1680156109df5780820380516001836020036101000a031916815260200191505b509250505060405180910390f35b34156109f857600080fd5b610a00612da7565b6040518082815260200191505060405180910390f35b3415610a2157600080fd5b610a4d600480803573ffffffffffffffffffffffffffffffffffffffff16906020019091905050612dad565b6040518082815260200191505060405180910390f35b3415610a6e57600080fd5b610a76612eea565b6040518082815260200191505060405180910390f35b3415610a9757600080fd5b610a9f6130c8565b604051808215151515815260200191505060405180910390f35b3415610ac457600080fd5b610acc61325e565b005b3415610ad957600080fd5b610ae1613306565b6040518080602001828103825283818151815260200191508051906020019080838360005b83811015610b21578082015181840152602081019050610b06565b50505050905090810190601f168015610b4e5780820380516001836020036101000a031916815260200191505b509250505060405180910390f35b3415610b6757600080fd5b610b6f61333f565b6040518082815260200191505060405180910390f35b3415610b9057600080fd5b610b98613345565b6040518082815260200191505060405180910390f35b3415610bb957600080fd5b610bee600480803573ffffffffffffffffffffffffffffffffffffffff1690602001909190803590602001909190505061343d565b604051808215151515815260200191505060405180910390f35b3415610c1357600080fd5b610c3f600480803573ffffffffffffffffffffffffffffffffffffffff169060200190919050506135a0565b6040518082815260200191505060405180910390f35b3415610c6057600080fd5b610c8c600480803573ffffffffffffffffffffffffffffffffffffffff16906020019091905050613705565b604051808215151515815260200191505060405180910390f35b3415610cb157600080fd5b610cb9613842565b6040518082815260200191505060405180910390f35b3415610cda57600080fd5b610cf06004808035906020019091905050613848565b604051808215151515815260200191505060405180910390f35b3415610d1557600080fd5b610d4a600480803573ffffffffffffffffffffffffffffffffffffffff169060200190919080359060200190919050506139df565b604051808215151515815260200191505060405180910390f35b3415610d6f57600080fd5b610dba600480803573ffffffffffffffffffffffffffffffffffffffff1690602001909190803573ffffffffffffffffffffffffffffffffffffffff16906020019091905050613a0f565b6040518082815260200191505060405180910390f35b610dd8613b90565b604051808215151515815260200191505060405180910390f35b3415610dfd57600080fd5b610e05613da6565b6040518082815260200191505060405180910390f35b3415610e2657600080fd5b610e2e6140b8565b6040518082815260200191505060405180910390f35b3415610e4f57600080fd5b610e576140be565b6040518082815260200191505060405180910390f35b3415610e7857600080fd5b610e806141b6565b6040518082815260200191505060405180910390f35b6000600260009054906101000a900473ffffffffffffffffffffffffffffffffffffffff1673ffffffffffffffffffffffffffffffffffffffff1663bd02d0f560405180807f746f6b656e2e49434f537461727454696d650000000000000000000000000000815250601201905060405180910390206000604051602001526040518263ffffffff167c0100000000000000000000000000000000000000000000000000000000028152600401808260001916600019168152602001915050602060405180830381600087803b1515610f6e57600080fd5b6102c65a03f11515610f7f57600080fd5b50505060405180519050905090565b6000600260009054906101000a900473ffffffffffffffffffffffffffffffffffffffff1673ffffffffffffffffffffffffffffffffffffffff1663bd02d0f560405180807f746f6b656e2e70726553616c65537461727454696d6500000000000000000000815250601601905060405180910390206000604051602001526040518263ffffffff167c0100000000000000000000000000000000000000000000000000000000028152600401808260001916600019168152602001915050602060405180830381600087803b151561106657600080fd5b6102c65a03f1151561107757600080fd5b50505060405180519050905090565b6040805190810160405280600981526020017f45584f20546f6b656e000000000000000000000000000000000000000000000081525081565b6000600260149054906101000a900460ff161515156110dd57600080fd5b6110e783836141bc565b905092915050565b60035481565b60065481565b6000600260009054906101000a900473ffffffffffffffffffffffffffffffffffffffff1673ffffffffffffffffffffffffffffffffffffffff1663bd02d0f560405180807f746f6b656e2e746f74616c537570706c79000000000000000000000000000000815250601101905060405180910390206000604051602001526040518263ffffffff167c0100000000000000000000000000000000000000000000000000000000028152600401808260001916600019168152602001915050602060405180830381600087803b15156111d357600080fd5b6102c65a03f115156111e457600080fd5b50505060405180519050905090565b60045481565b6000600260149054906101000a900460ff1615151561121757600080fd5b6040805190810160405280600e81526020017f61697264726f704361727269657200000000000000000000000000000000000081525061125981336001614238565b6040805190810160405280600681526020017f66726f7a656e000000000000000000000000000000000000000000000000000081525061129b81336000614238565b60006112a5610e96565b1180156112b85750426112b6613345565b105b15156112c357600080fd5b6113046040805190810160405280600681526020017f66726f7a656e0000000000000000000000000000000000000000000000000000815250856000614238565b600073ffffffffffffffffffffffffffffffffffffffff168473ffffffffffffffffffffffffffffffffffffffff161415151561134057600080fd5b6000151561134d85613705565b151514151561135b57600080fd5b600954611366611a37565b1015151561137357600080fd5b611397611392600954611384611a37565b61425890919063ffffffff16565b614271565b6113bd846113b86009546113aa886135a0565b61435d90919063ffffffff16565b61437b565b6113c784426144d3565b6113d284600161462b565b8373ffffffffffffffffffffffffffffffffffffffff163373ffffffffffffffffffffffffffffffffffffffff167fddf252ad1be2c89b69c2b068fc378daa952ba7f163c4a11628f55a4df523b3ef6009546040518082815260200191505060405180910390a3600192505050919050565b6000600260149054906101000a900460ff1615151561146257600080fd5b6040805190810160405280600681526020017f66726f7a656e00000000000000000000000000000000000000000000000000008152506114a481336000614238565b6114e56040805190810160405280600681526020017f66726f7a656e0000000000000000000000000000000000000000000000000000815250866000614238565b6115266040805190810160405280600581526020017f6f776e6572000000000000000000000000000000000000000000000000000000815250856000614238565b6115676040805190810160405280600681526020017f66726f7a656e0000000000000000000000000000000000000000000000000000815250856000614238565b61157285858561475f565b9150509392505050565b6000806000600260149054906101000a900460ff1615151561159d57600080fd5b6040805190810160405280600581526020017f6f776e65720000000000000000000000000000000000000000000000000000008152506115df81336001614238565b60006115e9610e96565b1180156115fc5750426115fa613345565b105b151561160757600080fd5b60003073ffffffffffffffffffffffffffffffffffffffff163111151561162d57600080fd5b3073ffffffffffffffffffffffffffffffffffffffff1631925061164f6124d5565b91508173ffffffffffffffffffffffffffffffffffffffff166108fc849081150290604051600060405180830381858888f19350505050151561169157600080fd5b8173ffffffffffffffffffffffffffffffffffffffff163073ffffffffffffffffffffffffffffffffffffffff167fb417e19f030bde3b90ec59aeed617934f679c9071dde0be604082db6586346a6856040518082815260200191505060405180910390a36001935050505090565b6000600260009054906101000a900473ffffffffffffffffffffffffffffffffffffffff1673ffffffffffffffffffffffffffffffffffffffff1663bd02d0f58360405180807f746f6b656e2e7374616b65730000000000000000000000000000000000000000815250600c01807f737461727454696d6500000000000000000000000000000000000000000000008152506009018273ffffffffffffffffffffffffffffffffffffffff1673ffffffffffffffffffffffffffffffffffffffff166c0100000000000000000000000002815260140191505060405180910390206000604051602001526040518263ffffffff167c0100000000000000000000000000000000000000000000000000000000028152600401808260001916600019168152602001915050602060405180830381600087803b151561184357600080fd5b6102c65a03f1151561185457600080fd5b505050604051805190509050919050565b6000600260149054906101000a900460ff1615151561188357600080fd5b6040805190810160405280600681526020017f66726f7a656e00000000000000000000000000000000000000000000000000008152506118c581336000614238565b6040805190810160405280600581526020017f6f776e657200000000000000000000000000000000000000000000000000000081525061190781336000614238565b6000611911610e96565b118015611924575042611922613345565b105b151561192f57600080fd5b600084118015611947575083611944336135a0565b10155b151561195257600080fd5b621baf8061197161196233611700565b4261425890919063ffffffff16565b10151561198657611980612eea565b50611991565b61199033426144d3565b5b6119b5336119b0866119a2336135a0565b61425890919063ffffffff16565b61437b565b6119d9336119d4866119c633612bcc565b61435d90919063ffffffff16565b614791565b3373ffffffffffffffffffffffffffffffffffffffff167f141ef67c4a6d3ec2adfb2f66d33c2b11de5b4f34344757554d430570b18a92ec856040518082815260200191505060405180910390a2600192505050919050565b601281565b6000600260009054906101000a900473ffffffffffffffffffffffffffffffffffffffff1673ffffffffffffffffffffffffffffffffffffffff1663bd02d0f560405180807f746f6b656e2e617661696c61626c6549434f46756e6400000000000000000000815250601601905060405180910390206000604051602001526040518263ffffffff167c0100000000000000000000000000000000000000000000000000000000028152600401808260001916600019168152602001915050602060405180830381600087803b1515611b0f57600080fd5b6102c65a03f11515611b2057600080fd5b50505060405180519050905090565b6000600260149054906101000a900460ff16151515611b4d57600080fd5b611b8c6040805190810160405280600581526020017f6f776e6572000000000000000000000000000000000000000000000000000000815250336148c1565b80611bd25750611bd16040805190810160405280600581526020017f61646d696e000000000000000000000000000000000000000000000000000000815250336148c1565b5b1515611bdd57600080fd5b600073ffffffffffffffffffffffffffffffffffffffff168373ffffffffffffffffffffffffffffffffffffffff16141515611c5557611c546040805190810160405280600f81526020017f7472656173757279436172726965720000000000000000000000000000000000815250846001614238565b5b611c966040805190810160405280600f81526020017f7472656173757279436172726965720000000000000000000000000000000000815250836001614238565b611cd76040805190810160405280600e81526020017f70726553616c6543617272696572000000000000000000000000000000000000815250836000614238565b611d186040805190810160405280600e81526020017f61697264726f7043617272696572000000000000000000000000000000000000815250836000614238565b611d437f74726561737572790000000000000000000000000000000000000000000000008484614a54565b15611dab578173ffffffffffffffffffffffffffffffffffffffff168373ffffffffffffffffffffffffffffffffffffffff167f3d4d91da7d0688f15ab54024fcf4fb8dd9da3d00bf4af3cdbb37218bb0f1e10d60405160405180910390a360019050611db0565b600090505b92915050565b600080600260149054906101000a900460ff16151515611dd557600080fd5b6040805190810160405280600581526020017f6f776e6572000000000000000000000000000000000000000000000000000000815250611e1781336001614238565b6000611e21610e96565b118015611e34575042611e32613345565b105b1515611e3f57600080fd5b6000611e49611a37565b111515611e5557600080fd5b611e5d6124d5565b9150611e8a82611e85611e6e611a37565b611e7786612bcc565b61435d90919063ffffffff16565b614791565b3373ffffffffffffffffffffffffffffffffffffffff163073ffffffffffffffffffffffffffffffffffffffff167fddf252ad1be2c89b69c2b068fc378daa952ba7f163c4a11628f55a4df523b3ef611ee1611a37565b6040518082815260200191505060405180910390a3611f006000614271565b60019250505090565b6000600260009054906101000a900473ffffffffffffffffffffffffffffffffffffffff1673ffffffffffffffffffffffffffffffffffffffff1663bd02d0f560405180807f746f6b656e2e746f74616c49434f546f6b656e73426f75676874000000000000815250601a01905060405180910390206000604051602001526040518263ffffffff167c0100000000000000000000000000000000000000000000000000000000028152600401808260001916600019168152602001915050602060405180830381600087803b1515611fe157600080fd5b6102c65a03f11515611ff257600080fd5b50505060405180519050905090565b6040805190810160405280600581526020017f6f776e657200000000000000000000000000000000000000000000000000000081525061204381336001614238565b600260149054906101000a900460ff16151561205e57600080fd5b6000600260146101000a81548160ff0219169083151502179055507f7805862f689e2f13df9f062ff482ad3ad112aca9e0847911ed832e158c525b3360405160405180910390a150565b6000806040805190810160405280600581526020017f6f776e65720000000000000000000000000000000000000000000000000000008152506120ed81336001614238565b600260009054906101000a900473ffffffffffffffffffffffffffffffffffffffff1673ffffffffffffffffffffffffffffffffffffffff166321f8a721600160405180807f636f6e74726163742e6e616d6500000000000000000000000000000000000000815250600d01828054600181600116156101000203166002900480156121b05780601f1061218e5761010080835404028352918201916121b0565b820191906000526020600020905b81548152906001019060200180831161219c575b505091505060405180910390206000604051602001526040518263ffffffff167c0100000000000000000000000000000000000000000000000000000000028152600401808260001916600019168152602001915050602060405180830381600087803b151561221f57600080fd5b6102c65a03f1151561223057600080fd5b505050604051805190509250600260009054906101000a900473ffffffffffffffffffffffffffffffffffffffff1673ffffffffffffffffffffffffffffffffffffffff166321f8a7213060405180807f636f6e74726163742e61646472657373000000000000000000000000000000008152506010018273ffffffffffffffffffffffffffffffffffffffff1673ffffffffffffffffffffffffffffffffffffffff166c0100000000000000000000000002815260140191505060405180910390206000604051602001526040518263ffffffff167c0100000000000000000000000000000000000000000000000000000000028152600401808260001916600019168152602001915050602060405180830381600087803b151561235557600080fd5b6102c65a03f1151561236657600080fd5b5050506040518051905091503073ffffffffffffffffffffffffffffffffffffffff168373ffffffffffffffffffffffffffffffffffffffff16141580156123da57503073ffffffffffffffffffffffffffffffffffffffff168273ffffffffffffffffffffffffffffffffffffffff1614155b15156123e557600080fd5b3073ffffffffffffffffffffffffffffffffffffffff167fb73fb6657a5bbd4bfbdff5d4a2f655ff1bb8c432d5b260b44a19f02a5aafa75c600160405180806020018281038252838181546001816001161561010002031660029004815260200191508054600181600116156101000203166002900480156124a85780601f1061247d576101008083540402835291602001916124a8565b820191906000526020600020905b81548152906001019060200180831161248b57829003601f168201915b50509250505060405180910390a23373ffffffffffffffffffffffffffffffffffffffff16ff5b60075481565b6000600260009054906101000a900473ffffffffffffffffffffffffffffffffffffffff1673ffffffffffffffffffffffffffffffffffffffff166321f8a72160405180807f746f6b656e2e7072696d617279486f6c64657200000000000000000000000000815250601301905060405180910390206000604051602001526040518263ffffffff167c0100000000000000000000000000000000000000000000000000000000028152600401808260001916600019168152602001915050602060405180830381600087803b15156125ad57600080fd5b6102c65a03f115156125be57600080fd5b50505060405180519050905090565b6000809054906101000a900460ff1681565b6000600260149054906101000a900460ff161515156125fd57600080fd5b61263c6040805190810160405280600581526020017f6f776e6572000000000000000000000000000000000000000000000000000000815250336148c1565b8061268257506126816040805190810160405280600581526020017f61646d696e000000000000000000000000000000000000000000000000000000815250336148c1565b5b151561268d57600080fd5b6000612697610f8e565b1480156126ab575060006126a96140be565b145b15156126b657600080fd5b60006126c0610e96565b1480156126d4575060006126d2613345565b145b15156126df57600080fd5b600061270a7f70726553616c6500000000000000000000000000000000000000000000000000612797565b11151561271657600080fd5b61271f42614d67565b61274361273e600454612730610f8e565b61435d90919063ffffffff16565b614e53565b7f47ffbd313bcc1ef563425c5e119327e90aef574e6d2d96d051605a2da730aaab61276c610f8e565b6127746140be565b604051808381526020018281526020019250505060405180910390a16001905090565b6000600260009054906101000a900473ffffffffffffffffffffffffffffffffffffffff1673ffffffffffffffffffffffffffffffffffffffff1663bd02d0f58360405180807f746f6b656e2e6c6f636b656446756e6473000000000000000000000000000000815250601101826000191660001916815260200191505060405180910390206000604051602001526040518263ffffffff167c0100000000000000000000000000000000000000000000000000000000028152600401808260001916600019168152602001915050602060405180830381600087803b151561287f57600080fd5b6102c65a03f1151561289057600080fd5b505050604051805190509050919050565b600260149054906101000a900460ff1681565b6000600260149054906101000a900460ff161515156128d257600080fd5b6128dc8383614f3f565b905092915050565b6000600260149054906101000a900460ff1615151561290257600080fd5b6129416040805190810160405280600581526020017f6f776e6572000000000000000000000000000000000000000000000000000000815250336148c1565b8061298757506129866040805190810160405280600581526020017f61646d696e000000000000000000000000000000000000000000000000000000815250336148c1565b5b151561299257600080fd5b600061299c610f8e565b1480156129b0575060006129ae6140be565b145b806129e8575060006129c0610f8e565b1180156129d45750426129d1610f8e565b11155b80156129e75750426129e46140be565b10155b5b15156129f357600080fd5b600073ffffffffffffffffffffffffffffffffffffffff168373ffffffffffffffffffffffffffffffffffffffff16141515612a6b57612a6a6040805190810160405280600e81526020017f70726553616c6543617272696572000000000000000000000000000000000000815250846001614238565b5b612aac6040805190810160405280600e81526020017f70726553616c6543617272696572000000000000000000000000000000000000815250836001614238565b612aed6040805190810160405280600f81526020017f7472656173757279436172726965720000000000000000000000000000000000815250836000614238565b612b2e6040805190810160405280600e81526020017f61697264726f7043617272696572000000000000000000000000000000000000815250836000614238565b612b597f70726553616c65000000000000000000000000000000000000000000000000008484614a54565b15612bc1578173ffffffffffffffffffffffffffffffffffffffff168373ffffffffffffffffffffffffffffffffffffffff167fa4ad1e3ddeba209f9d5d203ce7cc5235f41de55db24e89874ebc9982770807db60405160405180910390a360019050612bc6565b600090505b92915050565b6000600260009054906101000a900473ffffffffffffffffffffffffffffffffffffffff1673ffffffffffffffffffffffffffffffffffffffff1663bd02d0f58360405180807f746f6b656e2e62616c616e636573000000000000000000000000000000000000815250600e018273ffffffffffffffffffffffffffffffffffffffff1673ffffffffffffffffffffffffffffffffffffffff166c0100000000000000000000000002815260140191505060405180910390206000604051602001526040518263ffffffff167c0100000000000000000000000000000000000000000000000000000000028152600401808260001916600019168152602001915050602060405180830381600087803b1515612ce757600080fd5b6102c65a03f11515612cf857600080fd5b505050604051805190509050919050565b60018054600181600116156101000203166002900480601f016020809104026020016040519081016040528092919081815260200182805460018160011615610100020316600290048015612d9f5780601f10612d7457610100808354040283529160200191612d9f565b820191906000526020600020905b815481529060010190602001808311612d8257829003601f168201915b505050505081565b60085481565b6000600260009054906101000a900473ffffffffffffffffffffffffffffffffffffffff1673ffffffffffffffffffffffffffffffffffffffff1663bd02d0f58360405180807f746f6b656e2e49434f546f6b656e73426f7567687400000000000000000000008152506015018273ffffffffffffffffffffffffffffffffffffffff1673ffffffffffffffffffffffffffffffffffffffff166c0100000000000000000000000002815260140191505060405180910390206000604051602001526040518263ffffffff167c0100000000000000000000000000000000000000000000000000000000028152600401808260001916600019168152602001915050602060405180830381600087803b1515612ec857600080fd5b6102c65a03f11515612ed957600080fd5b505050604051805190509050919050565b6000806000600260149054906101000a900460ff16151515612f0b57600080fd5b6040805190810160405280600681526020017f66726f7a656e0000000000000000000000000000000000000000000000000000815250612f4d81336000614238565b6040805190810160405280600581526020017f6f776e6572000000000000000000000000000000000000000000000000000000815250612f8f81336000614238565b6000612f99610e96565b118015612fac575042612faa613345565b105b1515612fb757600080fd5b621baf80612fd6612fc733611700565b4261425890919063ffffffff16565b10151515612fe357600080fd5b612feb6124d5565b9350612ff5613da6565b92508261300185612bcc565b1015151561300e57600080fd5b6130328461302d8561301f88612bcc565b61425890919063ffffffff16565b614791565b6130563361305185613043336135a0565b61435d90919063ffffffff16565b61437b565b61306033426144d3565b3373ffffffffffffffffffffffffffffffffffffffff167f5eb55667a09fafc93552da311c3a3f79b543c41c9b1f671e11f21d1e7b62a3796130a1336135a0565b6040518082815260200191505060405180910390a26130bf336135a0565b94505050505090565b6000600260149054906101000a900460ff161515156130e657600080fd5b6131256040805190810160405280600581526020017f6f776e6572000000000000000000000000000000000000000000000000000000815250336148c1565b8061316b575061316a6040805190810160405280600581526020017f61646d696e000000000000000000000000000000000000000000000000000000815250336148c1565b5b151561317657600080fd5b6000613180610f8e565b1180156131935750426131916140be565b105b151561319e57600080fd5b60006131a8610e96565b1480156131bc575060006131ba613345565b145b15156131c757600080fd5b60006131d1611a37565b1115156131dd57600080fd5b6131e642614ffe565b61320a6132056005546131f7610e96565b61435d90919063ffffffff16565b6150ea565b7fdcb8f8aff4e4d76f052b0385f5bb25b0ac3afdd7877b3e1c25903f6a0b3dda40613233610e96565b61323b613345565b604051808381526020018281526020019250505060405180910390a16001905090565b6040805190810160405280600581526020017f6f776e65720000000000000000000000000000000000000000000000000000008152506132a081336001614238565b600260149054906101000a900460ff161515156132bc57600080fd5b6001600260146101000a81548160ff0219169083151502179055507f6985a02210a168e66602d3235cb6db0e70f92b3ba4d376a33c0f3d9434bff62560405160405180910390a150565b6040805190810160405280600381526020017f45584f000000000000000000000000000000000000000000000000000000000081525081565b610e4281565b6000600260009054906101000a900473ffffffffffffffffffffffffffffffffffffffff1673ffffffffffffffffffffffffffffffffffffffff1663bd02d0f560405180807f746f6b656e2e49434f446561646c696e65000000000000000000000000000000815250601101905060405180910390206000604051602001526040518263ffffffff167c0100000000000000000000000000000000000000000000000000000000028152600401808260001916600019168152602001915050602060405180830381600087803b151561341d57600080fd5b6102c65a03f1151561342e57600080fd5b50505060405180519050905090565b600080600260149054906101000a900460ff1615151561345c57600080fd5b6040805190810160405280600681526020017f66726f7a656e000000000000000000000000000000000000000000000000000081525061349e81336000614238565b6134df6040805190810160405280600581526020017f6f776e6572000000000000000000000000000000000000000000000000000000815250866000614238565b6135206040805190810160405280600681526020017f66726f7a656e0000000000000000000000000000000000000000000000000000815250866000614238565b6135286124d5565b91508173ffffffffffffffffffffffffffffffffffffffff163373ffffffffffffffffffffffffffffffffffffffff16141580613581575060035461357e8561357085612bcc565b61425890919063ffffffff16565b10155b151561358c57600080fd5b61359685856151d6565b9250505092915050565b6000600260009054906101000a900473ffffffffffffffffffffffffffffffffffffffff1673ffffffffffffffffffffffffffffffffffffffff1663bd02d0f58360405180807f746f6b656e2e7374616b65730000000000000000000000000000000000000000815250600c01807f62616c616e6365000000000000000000000000000000000000000000000000008152506007018273ffffffffffffffffffffffffffffffffffffffff1673ffffffffffffffffffffffffffffffffffffffff166c0100000000000000000000000002815260140191505060405180910390206000604051602001526040518263ffffffff167c0100000000000000000000000000000000000000000000000000000000028152600401808260001916600019168152602001915050602060405180830381600087803b15156136e357600080fd5b6102c65a03f115156136f457600080fd5b505050604051805190509050919050565b6000600260009054906101000a900473ffffffffffffffffffffffffffffffffffffffff1673ffffffffffffffffffffffffffffffffffffffff16637ae1cfca8360405180807f746f6b656e2e61697264726f70706564000000000000000000000000000000008152506010018273ffffffffffffffffffffffffffffffffffffffff1673ffffffffffffffffffffffffffffffffffffffff166c0100000000000000000000000002815260140191505060405180910390206000604051602001526040518263ffffffff167c0100000000000000000000000000000000000000000000000000000000028152600401808260001916600019168152602001915050602060405180830381600087803b151561382057600080fd5b6102c65a03f1151561383157600080fd5b505050604051805190509050919050565b611c8481565b6000600260149054906101000a900460ff1615151561386657600080fd5b6040805190810160405280600681526020017f66726f7a656e00000000000000000000000000000000000000000000000000008152506138a881336000614238565b6040805190810160405280600581526020017f6f776e65720000000000000000000000000000000000000000000000000000008152506138ea81336000614238565b60006138f4610e96565b118015613907575042613905613345565b105b151561391257600080fd5b60008411801561392a57508361392733612bcc565b10155b151561393557600080fd5b61393d612eea565b506139623361395d8661394f33612bcc565b61425890919063ffffffff16565b614791565b6139863361398186613973336135a0565b61435d90919063ffffffff16565b61437b565b3373ffffffffffffffffffffffffffffffffffffffff167fcf46fbc2bc7e83ad740997622d80db3ca7019a78a97b1a5d24f34d5627c9106d856040518082815260200191505060405180910390a2600192505050919050565b6000600260149054906101000a900460ff161515156139fd57600080fd5b613a078383615206565b905092915050565b6000600260009054906101000a900473ffffffffffffffffffffffffffffffffffffffff1673ffffffffffffffffffffffffffffffffffffffff1663bd02d0f5848460405180807f746f6b656e2e616c6c6f77656400000000000000000000000000000000000000815250600d018373ffffffffffffffffffffffffffffffffffffffff1673ffffffffffffffffffffffffffffffffffffffff166c010000000000000000000000000281526014018273ffffffffffffffffffffffffffffffffffffffff1673ffffffffffffffffffffffffffffffffffffffff166c010000000000000000000000000281526014019250505060405180910390206000604051602001526040518263ffffffff167c0100000000000000000000000000000000000000000000000000000000028152600401808260001916600019168152602001915050602060405180830381600087803b1515613b6d57600080fd5b6102c65a03f11515613b7e57600080fd5b50505060405180519050905092915050565b6000806000600260149054906101000a900460ff16151515613bb157600080fd5b6040805190810160405280600681526020017f66726f7a656e0000000000000000000000000000000000000000000000000000815250613bf381336000614238565b6000613bfd610e96565b118015613c11575042613c0e610e96565b11155b8015613c24575042613c21613345565b10155b1515613c2f57600080fd5b613c44610e42346152a690919063ffffffff16565b925082613c4f611a37565b10158015613c5f57506007548310155b1515613c6a57600080fd5b613c8583613c7733612dad565b61435d90919063ffffffff16565b91506008548211151515613c9857600080fd5b613cba613cb584613ca7611a37565b61425890919063ffffffff16565b614271565b613cde33613cd985613ccb33612bcc565b61435d90919063ffffffff16565b614791565b613ce833836152e1565b613d0a613d0584613cf7611f09565b61435d90919063ffffffff16565b615411565b613d26613d15611a37565b60065461425890919063ffffffff16565b613d2e611f09565b141515613d3757fe5b3373ffffffffffffffffffffffffffffffffffffffff163073ffffffffffffffffffffffffffffffffffffffff167fddf252ad1be2c89b69c2b068fc378daa952ba7f163c4a11628f55a4df523b3ef856040518082815260200191505060405180910390a36001935050505090565b60008060008060008060008060008060006040805190810160405280600581526020017f6f776e6572000000000000000000000000000000000000000000000000000000815250613df981336000614238565b6000613e03610e96565b118015613e16575042613e14613345565b105b1515613e2157600080fd5b613e296124d5565b9a506000613e36336135a0565b1480613e4a57506000613e4833611700565b145b80613e5d57506000613e5b8c612bcc565b145b15613e6b5760009b506140aa565b600099506000985060009750613e8033611700565b96506305a39a809550613ea46001613e96613345565b61435d90919063ffffffff16565b9450613eb9868661435d90919063ffffffff16565b9350848710158015613ecb5750838711155b15613f7957834211613edd5742613edf565b835b9250613f0962015180613efb898661425890919063ffffffff16565b6154fd90919063ffffffff16565b9850613f326007613f2460078c6154fd90919063ffffffff16565b6152a690919063ffffffff16565b9750613f76618e94613f688a613f5a600a613f4c336135a0565b6152a690919063ffffffff16565b6152a690919063ffffffff16565b6154fd90919063ffffffff16565b99505b613f8d60018561435d90919063ffffffff16565b94508442101515614087576000915084871015613fcb57613fb7888a61425890919063ffffffff16565b9150848710613fc65786613fc8565b845b96505b61400582613ff762015180613fe98b4261425890919063ffffffff16565b6154fd90919063ffffffff16565b61435d90919063ffffffff16565b985061402e600761402060078c6154fd90919063ffffffff16565b6152a690919063ffffffff16565b9750614084614075618e946140678b614059600561404b336135a0565b6152a690919063ffffffff16565b6152a690919063ffffffff16565b6154fd90919063ffffffff16565b8b61435d90919063ffffffff16565b99505b896140918c612bcc565b10156140a5576140a08b612bcc565b6140a7565b895b9b505b505050505050505050505090565b60055481565b6000600260009054906101000a900473ffffffffffffffffffffffffffffffffffffffff1673ffffffffffffffffffffffffffffffffffffffff1663bd02d0f560405180807f746f6b656e2e70726553616c65446561646c696e650000000000000000000000815250601501905060405180910390206000604051602001526040518263ffffffff167c0100000000000000000000000000000000000000000000000000000000028152600401808260001916600019168152602001915050602060405180830381600087803b151561419657600080fd5b6102c65a03f115156141a757600080fd5b50505060405180519050905090565b60095481565b60006141c9338484615518565b8273ffffffffffffffffffffffffffffffffffffffff163373ffffffffffffffffffffffffffffffffffffffff167f8c5be1e5ebec7d5bd14f71427d1e84f3dd0314c0f7b2291e5b200ac8c7c3b925846040518082815260200191505060405180910390a36001905092915050565b80151561424584846148c1565b151514151561425357600080fd5b505050565b600082821115151561426657fe5b818303905092915050565b600260009054906101000a900473ffffffffffffffffffffffffffffffffffffffff1673ffffffffffffffffffffffffffffffffffffffff1663e2a4853a60405180807f746f6b656e2e617661696c61626c6549434f46756e640000000000000000000081525060160190506040518091039020836040518363ffffffff167c010000000000000000000000000000000000000000000000000000000002815260040180836000191660001916815260200182815260200192505050600060405180830381600087803b151561434657600080fd5b6102c65a03f1151561435757600080fd5b50505050565b600080828401905083811015151561437157fe5b8091505092915050565b600260009054906101000a900473ffffffffffffffffffffffffffffffffffffffff1673ffffffffffffffffffffffffffffffffffffffff1663e2a4853a8360405180807f746f6b656e2e7374616b65730000000000000000000000000000000000000000815250600c01807f62616c616e6365000000000000000000000000000000000000000000000000008152506007018273ffffffffffffffffffffffffffffffffffffffff1673ffffffffffffffffffffffffffffffffffffffff166c010000000000000000000000000281526014019150506040518091039020836040518363ffffffff167c010000000000000000000000000000000000000000000000000000000002815260040180836000191660001916815260200182815260200192505050600060405180830381600087803b15156144bb57600080fd5b6102c65a03f115156144cc57600080fd5b5050505050565b600260009054906101000a900473ffffffffffffffffffffffffffffffffffffffff1673ffffffffffffffffffffffffffffffffffffffff1663e2a4853a8360405180807f746f6b656e2e7374616b65730000000000000000000000000000000000000000815250600c01807f737461727454696d6500000000000000000000000000000000000000000000008152506009018273ffffffffffffffffffffffffffffffffffffffff1673ffffffffffffffffffffffffffffffffffffffff166c010000000000000000000000000281526014019150506040518091039020836040518363ffffffff167c010000000000000000000000000000000000000000000000000000000002815260040180836000191660001916815260200182815260200192505050600060405180830381600087803b151561461357600080fd5b6102c65a03f1151561462457600080fd5b5050505050565b600260009054906101000a900473ffffffffffffffffffffffffffffffffffffffff1673ffffffffffffffffffffffffffffffffffffffff1663abfdcced8360405180807f746f6b656e2e61697264726f70706564000000000000000000000000000000008152506010018273ffffffffffffffffffffffffffffffffffffffff1673ffffffffffffffffffffffffffffffffffffffff166c010000000000000000000000000281526014019150506040518091039020836040518363ffffffff167c01000000000000000000000000000000000000000000000000000000000281526004018083600019166000191681526020018215151515815260200192505050600060405180830381600087803b151561474757600080fd5b6102c65a03f1151561475857600080fd5b5050505050565b6000600260149054906101000a900460ff1615151561477d57600080fd5b61478884848461568c565b90509392505050565b600260009054906101000a900473ffffffffffffffffffffffffffffffffffffffff1673ffffffffffffffffffffffffffffffffffffffff1663e2a4853a8360405180807f746f6b656e2e62616c616e636573000000000000000000000000000000000000815250600e018273ffffffffffffffffffffffffffffffffffffffff1673ffffffffffffffffffffffffffffffffffffffff166c010000000000000000000000000281526014019150506040518091039020836040518363ffffffff167c010000000000000000000000000000000000000000000000000000000002815260040180836000191660001916815260200182815260200192505050600060405180830381600087803b15156148a957600080fd5b6102c65a03f115156148ba57600080fd5b5050505050565b6000600260009054906101000a900473ffffffffffffffffffffffffffffffffffffffff1673ffffffffffffffffffffffffffffffffffffffff16637ae1cfca848460405180807f6163636573732e726f6c65000000000000000000000000000000000000000000815250600b0183805190602001908083835b602083101515614960578051825260208201915060208101905060208303925061493b565b6001836020036101000a0380198251168184511680821785525050505050509050018273ffffffffffffffffffffffffffffffffffffffff1673ffffffffffffffffffffffffffffffffffffffff166c010000000000000000000000000281526014019250505060405180910390206000604051602001526040518263ffffffff167c0100000000000000000000000000000000000000000000000000000000028152600401808260001916600019168152602001915050602060405180830381600087803b1515614a3157600080fd5b6102c65a03f11515614a4257600080fd5b50505060405180519050905092915050565b600080614a966040805190810160405280600581526020017f6f776e6572000000000000000000000000000000000000000000000000000000815250336148c1565b80614adc5750614adb6040805190810160405280600581526020017f61646d696e000000000000000000000000000000000000000000000000000000815250336148c1565b5b1515614ae757600080fd5b8273ffffffffffffffffffffffffffffffffffffffff168473ffffffffffffffffffffffffffffffffffffffff1614158015614b505750600073ffffffffffffffffffffffffffffffffffffffff168373ffffffffffffffffffffffffffffffffffffffff1614155b8015614b8f5750614b5f6124d5565b73ffffffffffffffffffffffffffffffffffffffff168373ffffffffffffffffffffffffffffffffffffffff1614155b1515614b9a57600080fd5b6000614ba584612bcc565b141515614bb157600080fd5b614bba85612797565b9050600081148015614bf95750600073ffffffffffffffffffffffffffffffffffffffff168473ffffffffffffffffffffffffffffffffffffffff1614155b15614c8d57614c1083614c0b86612bcc565b614791565b614c1b846000614791565b8273ffffffffffffffffffffffffffffffffffffffff168473ffffffffffffffffffffffffffffffffffffffff167fddf252ad1be2c89b69c2b068fc378daa952ba7f163c4a11628f55a4df523b3ef614c7386612bcc565b6040518082815260200191505060405180910390a3614d5b565b600081118015614cc95750600073ffffffffffffffffffffffffffffffffffffffff168473ffffffffffffffffffffffffffffffffffffffff16145b15614d5557614cd88382614791565b614ce38560006157d6565b8273ffffffffffffffffffffffffffffffffffffffff163073ffffffffffffffffffffffffffffffffffffffff167fddf252ad1be2c89b69c2b068fc378daa952ba7f163c4a11628f55a4df523b3ef614d3b86612bcc565b6040518082815260200191505060405180910390a3614d5a565b600080fd5b5b60019150509392505050565b600260009054906101000a900473ffffffffffffffffffffffffffffffffffffffff1673ffffffffffffffffffffffffffffffffffffffff1663e2a4853a60405180807f746f6b656e2e70726553616c65537461727454696d650000000000000000000081525060160190506040518091039020836040518363ffffffff167c010000000000000000000000000000000000000000000000000000000002815260040180836000191660001916815260200182815260200192505050600060405180830381600087803b1515614e3c57600080fd5b6102c65a03f11515614e4d57600080fd5b50505050565b600260009054906101000a900473ffffffffffffffffffffffffffffffffffffffff1673ffffffffffffffffffffffffffffffffffffffff1663e2a4853a60405180807f746f6b656e2e70726553616c65446561646c696e65000000000000000000000081525060150190506040518091039020836040518363ffffffff167c010000000000000000000000000000000000000000000000000000000002815260040180836000191660001916815260200182815260200192505050600060405180830381600087803b1515614f2857600080fd5b6102c65a03f11515614f3957600080fd5b50505050565b600080614f4c3385613a0f565b905080831115614f6757614f6233856000615518565b614f85565b614f843385614f7f868561425890919063ffffffff16565b615518565b5b8373ffffffffffffffffffffffffffffffffffffffff163373ffffffffffffffffffffffffffffffffffffffff167f8c5be1e5ebec7d5bd14f71427d1e84f3dd0314c0f7b2291e5b200ac8c7c3b925614fde3388613a0f565b6040518082815260200191505060405180910390a3600191505092915050565b600260009054906101000a900473ffffffffffffffffffffffffffffffffffffffff1673ffffffffffffffffffffffffffffffffffffffff1663e2a4853a60405180807f746f6b656e2e49434f537461727454696d65000000000000000000000000000081525060120190506040518091039020836040518363ffffffff167c010000000000000000000000000000000000000000000000000000000002815260040180836000191660001916815260200182815260200192505050600060405180830381600087803b15156150d357600080fd5b6102c65a03f115156150e457600080fd5b50505050565b600260009054906101000a900473ffffffffffffffffffffffffffffffffffffffff1673ffffffffffffffffffffffffffffffffffffffff1663e2a4853a60405180807f746f6b656e2e49434f446561646c696e6500000000000000000000000000000081525060110190506040518091039020836040518363ffffffff167c010000000000000000000000000000000000000000000000000000000002815260040180836000191660001916815260200182815260200192505050600060405180830381600087803b15156151bf57600080fd5b6102c65a03f115156151d057600080fd5b50505050565b6000600260149054906101000a900460ff161515156151f457600080fd5b6151fe83836158d3565b905092915050565b600061522e33846152298561521b3389613a0f565b61435d90919063ffffffff16565b615518565b8273ffffffffffffffffffffffffffffffffffffffff163373ffffffffffffffffffffffffffffffffffffffff167f8c5be1e5ebec7d5bd14f71427d1e84f3dd0314c0f7b2291e5b200ac8c7c3b9256152873387613a0f565b6040518082815260200191505060405180910390a36001905092915050565b60008060008414156152bb57600091506152da565b82840290508284828115156152cc57fe5b041415156152d657fe5b8091505b5092915050565b600260009054906101000a900473ffffffffffffffffffffffffffffffffffffffff1673ffffffffffffffffffffffffffffffffffffffff1663e2a4853a8360405180807f746f6b656e2e49434f546f6b656e73426f7567687400000000000000000000008152506015018273ffffffffffffffffffffffffffffffffffffffff1673ffffffffffffffffffffffffffffffffffffffff166c010000000000000000000000000281526014019150506040518091039020836040518363ffffffff167c010000000000000000000000000000000000000000000000000000000002815260040180836000191660001916815260200182815260200192505050600060405180830381600087803b15156153f957600080fd5b6102c65a03f1151561540a57600080fd5b5050505050565b600260009054906101000a900473ffffffffffffffffffffffffffffffffffffffff1673ffffffffffffffffffffffffffffffffffffffff1663e2a4853a60405180807f746f6b656e2e746f74616c49434f546f6b656e73426f75676874000000000000815250601a0190506040518091039020836040518363ffffffff167c010000000000000000000000000000000000000000000000000000000002815260040180836000191660001916815260200182815260200192505050600060405180830381600087803b15156154e657600080fd5b6102c65a03f115156154f757600080fd5b50505050565b600080828481151561550b57fe5b0490508091505092915050565b600260009054906101000a900473ffffffffffffffffffffffffffffffffffffffff1673ffffffffffffffffffffffffffffffffffffffff1663e2a4853a848460405180807f746f6b656e2e616c6c6f77656400000000000000000000000000000000000000815250600d018373ffffffffffffffffffffffffffffffffffffffff1673ffffffffffffffffffffffffffffffffffffffff166c010000000000000000000000000281526014018273ffffffffffffffffffffffffffffffffffffffff1673ffffffffffffffffffffffffffffffffffffffff166c01000000000000000000000000028152601401925050506040518091039020836040518363ffffffff167c010000000000000000000000000000000000000000000000000000000002815260040180836000191660001916815260200182815260200192505050600060405180830381600087803b151561567357600080fd5b6102c65a03f1151561568457600080fd5b505050505050565b60008073ffffffffffffffffffffffffffffffffffffffff168373ffffffffffffffffffffffffffffffffffffffff16141515156156c957600080fd5b6156d284612bcc565b82111515156156e057600080fd5b6156ea8433613a0f565b82111515156156f857600080fd5b61571c846157178461570988612bcc565b61425890919063ffffffff16565b614791565b6157408361573b8461572d87612bcc565b61435d90919063ffffffff16565b614791565b6157668433615761856157538933613a0f565b61425890919063ffffffff16565b615518565b8273ffffffffffffffffffffffffffffffffffffffff168473ffffffffffffffffffffffffffffffffffffffff167fddf252ad1be2c89b69c2b068fc378daa952ba7f163c4a11628f55a4df523b3ef846040518082815260200191505060405180910390a3600190509392505050565b600260009054906101000a900473ffffffffffffffffffffffffffffffffffffffff1673ffffffffffffffffffffffffffffffffffffffff1663e2a4853a8360405180807f746f6b656e2e6c6f636b656446756e647300000000000000000000000000000081525060110182600019166000191681526020019150506040518091039020836040518363ffffffff167c010000000000000000000000000000000000000000000000000000000002815260040180836000191660001916815260200182815260200192505050600060405180830381600087803b15156158bb57600080fd5b6102c65a03f115156158cc57600080fd5b5050505050565b60008073ffffffffffffffffffffffffffffffffffffffff168373ffffffffffffffffffffffffffffffffffffffff161415151561591057600080fd5b61591933612bcc565b821115151561592757600080fd5b61594b336159468461593833612bcc565b61425890919063ffffffff16565b614791565b61596f8361596a8461595c87612bcc565b61435d90919063ffffffff16565b614791565b8273ffffffffffffffffffffffffffffffffffffffff163373ffffffffffffffffffffffffffffffffffffffff167fddf252ad1be2c89b69c2b068fc378daa952ba7f163c4a11628f55a4df523b3ef846040518082815260200191505060405180910390a36001905092915050565b600260009054906101000a900473ffffffffffffffffffffffffffffffffffffffff1673ffffffffffffffffffffffffffffffffffffffff1663ca446dd960405180807f746f6b656e2e7072696d617279486f6c6465720000000000000000000000000081525060130190506040518091039020836040518363ffffffff167c01000000000000000000000000000000000000000000000000000000000281526004018083600019166000191681526020018273ffffffffffffffffffffffffffffffffffffffff1673ffffffffffffffffffffffffffffffffffffffff16815260200192505050600060405180830381600087803b1515615adf57600080fd5b6102c65a03f11515615af057600080fd5b50505050565b600260009054906101000a900473ffffffffffffffffffffffffffffffffffffffff1673ffffffffffffffffffffffffffffffffffffffff1663e2a4853a60405180807f746f6b656e2e746f74616c537570706c7900000000000000000000000000000081525060110190506040518091039020836040518363ffffffff167c010000000000000000000000000000000000000000000000000000000002815260040180836000191660001916815260200182815260200192505050600060405180830381600087803b1515615bcb57600080fd5b6102c65a03f11515615bdc57600080fd5b505050505600a165627a7a723058208a0d1744482a6862d4d8b6cfe65cf87ee816542b6e31a70cf246c02a99d2e0590029",
  "source": "pragma solidity 0.4.18;\n\nimport \"./zeppelin-solidity/token/ERC20/PausableToken.sol\";\nimport \"./EXOBase.sol\";\n\n\n/**\n * @title EXO Token\n *\n * @dev Implementation of the EXO Token by Exodia.World.\n */\ncontract EXOToken is PausableToken {\n    string public constant name = \"EXO Token\";\n    string public constant symbol = \"EXO\";\n    uint8 public constant decimals = 18;\n    uint256 public constant PRESALE_ETH_TO_EXO = 7300;\n    uint256 public constant ICO_ETH_TO_EXO = 3650;\n\n    uint256 public minBalanceForStakeReward;\n    uint256 public preSaleDuration; // in seconds\n    uint256 public ICODuration; // in seconds\n    uint256 public initialICOFund;\n    uint256 public minICOTokensBoughtEveryPurchase; // by one account for one purchase\n    uint256 public maxICOTokensBought; // by one account for all purchases\n    uint256 public airdropAmount;\n\n    event StartPreSale(uint256 startTime, uint256 deadline);\n    event StartICO(uint256 startTime, uint256 deadline);\n    event TransferETH(address indexed from, address indexed to, uint256 value);\n    event DepositStake(address indexed staker, uint256 value);\n    event WithdrawStake(address indexed staker, uint256 value);\n    event UpdateStakeBalance(address indexed staker, uint256 balance);\n    event SetTreasuryCarrier(address indexed oldCarrier, address indexed newCarrier);\n    event SetPreSaleCarrier(address indexed oldCarrier, address indexed newCarrier);\n    event SetAirdropCarrier(address indexed oldCarrier, address indexed newCarrier);\n\n    /**\n     * @dev Set token information.\n     *\n     * @param _exoStorageAddress The EXO eternal storage's address\n     * @param _totalSupply The total supply of tokens -- it's fixed\n     * @param _minBalanceForStakeReward The minimum balance required for stake reward\n     * @param _lockedTreasuryFund Locked treasury fund, only handed to its carrier account\n     * @param _lockedPreSaleFund Locked pre-sale fund, only handed to its carrier account\n     * @param _preSaleDuration The duration of pre-sale period in seconds\n     * @param _ICODuration The duration of ICO\n     * @param _availableICOFund Total amount of tokens that can be bought in ICO\n     * @param _minICOTokensBoughtEveryPurchase The minimum amount of ICO tokens that\n     *   must be bought by one account for every purchase\n     * @param _maxICOTokensBought The maximum amount of ICO tokens that can be bought\n     *   by one account for all purchases\n     * @param _airdropAmount The airdrop amount for a single account\n     */\n    function EXOToken(\n        address _exoStorageAddress,\n        uint256 _totalSupply,\n        uint256 _minBalanceForStakeReward,\n        uint256 _lockedTreasuryFund,\n        uint256 _lockedPreSaleFund,\n        uint256 _preSaleDuration,\n        uint256 _ICODuration,\n        uint256 _availableICOFund,\n        uint256 _minICOTokensBoughtEveryPurchase,\n        uint256 _maxICOTokensBought,\n        uint256 _airdropAmount\n    ) public EXOBase(\"EXOToken\", _exoStorageAddress) payable\n    {\n        roleCheck(\"owner\", msg.sender, true);\n\n        // Set all values not stored in the eternal storage.\n        minBalanceForStakeReward = _minBalanceForStakeReward.mul(uint(10)**decimals);\n        preSaleDuration = _preSaleDuration;\n        ICODuration = _ICODuration;\n        initialICOFund = _availableICOFund.mul(uint(10)**decimals);\n        minICOTokensBoughtEveryPurchase = _minICOTokensBoughtEveryPurchase.mul(uint(10)**decimals);\n        maxICOTokensBought = _maxICOTokensBought.mul(uint(10)**decimals);\n        airdropAmount = _airdropAmount.mul(uint(10)**decimals);\n\n        bool _isUpgrade = exoStorage.getBool(keccak256(\"contract.storage.initialized\"));\n        if (_isUpgrade == false) {\n            // Execute everything below only once on initial deployment.\n            primaryHolder(msg.sender); // set the primary holder of EXO tokens\n            totalSupply(_totalSupply.mul(uint(10)**decimals));\n            lockedFundOf(\"treasury\", _lockedTreasuryFund.mul(uint(10)**decimals));\n            lockedFundOf(\"preSale\", _lockedPreSaleFund.mul(uint(10)**decimals));\n            availableICOFund(initialICOFund);\n\n            // Calculate remaining balance for stake reward.\n            balanceOf(\n                msg.sender,\n                totalSupply().sub(lockedFundOf(\"treasury\")).sub(lockedFundOf(\"preSale\")).sub(initialICOFund)\n            );\n\n            assert(balanceOf(msg.sender) >= minBalanceForStakeReward);\n        }\n    }\n\n    modifier beforePreSale() {\n        require(preSaleStartTime() == 0 && preSaleDeadline() == 0);\n        _;\n    }\n\n    modifier afterPreSale() {\n        require(preSaleStartTime() > 0 && preSaleDeadline() < now);\n        _;\n    }\n\n    modifier beforeOrDuringPreSale() {\n        require(\n            (preSaleStartTime() == 0 && preSaleDeadline() == 0) ||\n            (preSaleStartTime() > 0 && preSaleStartTime() <= now && preSaleDeadline() >= now)\n        );\n        _;\n    }\n\n    modifier beforeICO() {\n        require(ICOStartTime() == 0 && ICODeadline() == 0);\n        _;\n    }\n\n    modifier duringICO() {\n        require(ICOStartTime() > 0 && ICOStartTime() <= now && ICODeadline() >= now);\n        _;\n    }\n\n    modifier afterICO() {\n        require(ICOStartTime() > 0 && ICODeadline() < now);\n        _;\n    }\n\n    /**\n     * @dev Don't accept any ETH without specific functions being called.\n     */\n    function () external payable {\n        revert();\n    }\n\n    /**\n     * @dev Start the pre-sale.\n     *\n     * Note: The pre-sale carrier should be set first before running this function.\n     */\n    function startPreSale() external whenNotPaused onlySuperUser beforePreSale beforeICO returns (bool) {\n        require(lockedFundOf(\"preSale\") > 0);\n\n        preSaleStartTime(now);\n        preSaleDeadline(preSaleStartTime().add(preSaleDuration));\n\n        StartPreSale(preSaleStartTime(), preSaleDeadline());\n        return true;\n    }\n\n    /**\n     * @dev Buy ICO tokens using ETH.\n     */\n    function buyICOTokens() external payable whenNotPaused exceptRole(\"frozen\") duringICO returns (bool) {\n        // Check for serious participants and if we have tokens available.\n        uint256 exoBought = msg.value.mul(ICO_ETH_TO_EXO);\n        require(availableICOFund() >= exoBought && exoBought >= minICOTokensBoughtEveryPurchase);\n\n        // Whales check!\n        uint256 totalICOTokensBoughtByAccount = ICOTokensBoughtBy(msg.sender).add(exoBought);\n        require(totalICOTokensBoughtByAccount <= maxICOTokensBought);\n\n        availableICOFund(availableICOFund().sub(exoBought));\n        balanceOf(msg.sender, balanceOf(msg.sender).add(exoBought));\n        ICOTokensBoughtBy(msg.sender, totalICOTokensBoughtByAccount);\n        totalICOTokensBought(totalICOTokensBought().add(exoBought));\n\n        assert(totalICOTokensBought() == initialICOFund.sub(availableICOFund())); // check invariant\n        Transfer(this, msg.sender, exoBought);\n        return true;\n    }\n\n    /**\n     * @dev Start the ICO.\n     */\n    function startICO() external whenNotPaused onlySuperUser afterPreSale beforeICO returns (bool) {\n        require(availableICOFund() > 0);\n\n        ICOStartTime(now);\n        ICODeadline(ICOStartTime().add(ICODuration));\n\n        StartICO(ICOStartTime(), ICODeadline());\n        return true;\n    }\n\n    /**\n     * @dev Release any remaining ICO fund back to primary holder after ICO ended.\n     */\n    function releaseRemainingICOFundToPrimaryHolder() external whenNotPaused onlyRole(\"owner\") afterICO returns (bool) {\n        require(availableICOFund() > 0);\n\n        address primaryHolder_ = primaryHolder();\n        balanceOf(primaryHolder_, balanceOf(primaryHolder_).add(availableICOFund()));\n        Transfer(this, msg.sender, availableICOFund());\n        availableICOFund(0);\n        return true;\n    }\n\n    /**\n     * @dev Send ETH fund raised in ICO for primary holder.\n     */\n    function claimEtherFundRaisedInICO() external whenNotPaused onlyRole(\"owner\") afterICO returns (bool) {\n        require(this.balance > 0);\n\n        // WARNING: All Ethers will be sent, even for non-ICO-related.\n        uint256 fundRaised = this.balance;\n        address primaryHolder_ = primaryHolder();\n        primaryHolder_.transfer(fundRaised);\n\n        TransferETH(this, primaryHolder_, fundRaised);\n        return true;\n    }\n\n    /**\n     * @dev Transfer free tokens from the remaining ICO fund.\n     *\n     * The free tokens are added to the _to address' staking balance.\n     * @param _to The address which the airdrop is designated to\n     */\n    function airdrop(address _to)\n        external\n        whenNotPaused\n        onlyRole(\"airdropCarrier\")\n        exceptRole(\"frozen\")\n        afterICO\n        returns (bool)\n    {\n        roleCheck(\"frozen\", _to, false);\n        require(_to != address(0));\n        require(isAirdropped(_to) == false);\n        require(availableICOFund() >= airdropAmount);\n\n        // Airdrop to the designated account.\n        availableICOFund(availableICOFund().sub(airdropAmount));\n        stakeBalanceOf(_to, stakeBalanceOf(_to).add(airdropAmount));\n        stakeStartTimeOf(_to, now);\n        isAirdropped(_to, true);\n\n        Transfer(msg.sender, _to, airdropAmount);\n        return true;\n    }\n\n    /**\n     * @dev Deposit stake to Exodia.World.\n     *\n     * Deposited stake is added to the staker's staking balance.\n     * @param _value The amount of EXO to deposit\n     */\n    function depositStake(uint256 _value)\n        external\n        whenNotPaused\n        exceptRole(\"frozen\")\n        exceptRole(\"owner\")\n        afterICO\n        returns (bool)\n    {\n        require(_value > 0 && balanceOf(msg.sender) >= _value);\n\n        updateStakeBalance();\n        balanceOf(msg.sender, balanceOf(msg.sender).sub(_value));\n        stakeBalanceOf(msg.sender, stakeBalanceOf(msg.sender).add(_value));\n\n        DepositStake(msg.sender, _value);\n        return true;\n    }\n\n    /**\n     * @dev Withdraw stake from Exodia.World.\n     *\n     * Withdrawn stake is added to the staker's liquid balance.\n     * @param _value The amount of EXO to withdraw\n     */\n    function withdrawStake(uint256 _value)\n        external\n        whenNotPaused\n        exceptRole(\"frozen\")\n        exceptRole(\"owner\")\n        afterICO\n        returns (bool)\n    {\n        require(_value > 0 && stakeBalanceOf(msg.sender) >= _value);\n\n        // No reward if staking has not been for at least 21 days.\n        if (now.sub(stakeStartTimeOf(msg.sender)) >= 21 days) {\n            updateStakeBalance();\n        } else {\n            stakeStartTimeOf(msg.sender, now); // re-stake balance even if no reward\n        }\n        stakeBalanceOf(msg.sender, stakeBalanceOf(msg.sender).sub(_value));\n        balanceOf(msg.sender, balanceOf(msg.sender).add(_value));\n\n        WithdrawStake(msg.sender, _value);\n        return true;\n    }\n\n    /**\n     * @dev Transfer fund into new treasury carrier's address and publish it.\n     *\n     * At this point, there must be two addresses with access to treasury carrier role.\n     * @param _oldTreasuryCarrier The address of old treasury carrier account\n     * @param _treasuryCarrier The address of new treasury carrier account\n     */\n    function setTreasuryCarrier(address _oldTreasuryCarrier, address _treasuryCarrier)\n        external\n        whenNotPaused\n        onlySuperUser\n        returns (bool)\n    {\n        if (_oldTreasuryCarrier != address(0)) {\n            // Is it really the previous carrier?\n            roleCheck(\"treasuryCarrier\", _oldTreasuryCarrier, true);\n        }\n        roleCheck(\"treasuryCarrier\", _treasuryCarrier, true);\n        roleCheck(\"preSaleCarrier\", _treasuryCarrier, false);\n        roleCheck(\"airdropCarrier\", _treasuryCarrier, false);\n\n        if (_moveFund(\"treasury\", _oldTreasuryCarrier, _treasuryCarrier)) {\n            SetTreasuryCarrier(_oldTreasuryCarrier, _treasuryCarrier);\n            return true;\n        }\n        return false;\n    }\n\n    /**\n     * @dev Transfer fund into new pre-sale carrier's address and publish it.\n     *\n     * At this point, there must be two addresses with access to pre-sale carrier role.\n     * @param _oldPreSaleCarrier The address of old pre-sale carrier account\n     * @param _preSaleCarrier The address of new pre-sale carrier account\n     */\n    function setPreSaleCarrier(address _oldPreSaleCarrier, address _preSaleCarrier)\n        external\n        whenNotPaused\n        onlySuperUser\n        beforeOrDuringPreSale\n        returns (bool)\n    {\n        if (_oldPreSaleCarrier != address(0)) {\n            // Is it really the previous carrier?\n            roleCheck(\"preSaleCarrier\", _oldPreSaleCarrier, true);\n        }\n        roleCheck(\"preSaleCarrier\", _preSaleCarrier, true);\n        roleCheck(\"treasuryCarrier\", _preSaleCarrier, false);\n        roleCheck(\"airdropCarrier\", _preSaleCarrier, false);\n\n        if (_moveFund(\"preSale\", _oldPreSaleCarrier, _preSaleCarrier)) {\n            SetPreSaleCarrier(_oldPreSaleCarrier, _preSaleCarrier);\n            return true;\n        }\n        return false;\n    }\n\n    /**\n     * @dev Transfer token for a specified address\n     *\n     * @param _to The address to transfer to.\n     * @param _value The amount to be transferred.\n     */\n    function transfer(address _to, uint256 _value) public whenNotPaused exceptRole(\"frozen\") returns (bool) {\n        // Owner and frozen accounts can't receive tokens.\n        roleCheck(\"owner\", _to, false);\n        roleCheck(\"frozen\", _to, false);\n\n        address primaryHolder_ = primaryHolder();\n        require(msg.sender != primaryHolder_ || balanceOf(primaryHolder_).sub(_value) >= minBalanceForStakeReward);\n\n        return super.transfer(_to, _value);\n    }\n\n    /**\n     * @dev Transfer tokens from one address to another.\n     *\n     * @param _from The address which you want to send tokens from\n     * @param _to The address which you want to transfer to\n     * @param _value The amount of tokens to be transferred\n     */\n    function transferFrom(address _from, address _to, uint256 _value)\n        public\n        whenNotPaused\n        exceptRole(\"frozen\")\n        returns (bool)\n    {\n        roleCheck(\"frozen\", _from, false);\n        roleCheck(\"owner\", _to, false);\n        roleCheck(\"frozen\", _to, false);\n        return super.transferFrom(_from, _to, _value);\n    }\n\n    /**\n     * @dev Update a staker's balance with staking interest.\n     */\n    function updateStakeBalance()\n        public\n        whenNotPaused\n        exceptRole(\"frozen\")\n        exceptRole(\"owner\")\n        afterICO\n        returns (uint256)\n    {\n        // Has the staking been for at least 21 days?\n        require(now.sub(stakeStartTimeOf(msg.sender)) >= 21 days);\n\n        address primaryHolder_ = primaryHolder();\n        uint256 interest = calculateInterest();\n        require(balanceOf(primaryHolder_) >= interest);\n\n        balanceOf(primaryHolder_, balanceOf(primaryHolder_).sub(interest));\n        stakeBalanceOf(msg.sender, stakeBalanceOf(msg.sender).add(interest));\n        stakeStartTimeOf(msg.sender, now);\n\n        UpdateStakeBalance(msg.sender, stakeBalanceOf(msg.sender));\n        return stakeBalanceOf(msg.sender);\n    }\n\n    /**\n     * @dev Calculate interest of a staker's balance since last staking.\n     *\n     * Everything is hardcoded to simplify things.\n     * 10% for the first 3 years and 5% for the rest until all tokens have been distributed.\n     * The interest is gained every 7 days.\n     * For example, staking of 5 EXO for 16 days would yield 5 EXO * 0.0273% (rate per day) * 14 (days).\n     */\n    function calculateInterest() public view exceptRole(\"owner\") afterICO returns (uint256) {\n        address primaryHolder_ = primaryHolder();\n        if (stakeBalanceOf(msg.sender) == 0 || stakeStartTimeOf(msg.sender) == 0 || balanceOf(primaryHolder_) == 0) {\n            return 0;\n        }\n\n        uint256 totalInterest = 0;\n        uint256 stakeDays = 0;\n        uint256 eligibleStakeDays = 0;\n        uint256 stakeStartTime = stakeStartTimeOf(msg.sender);\n\n        // 10% for the first 3 years.\n        uint256 interestPeriod = 3 years;\n        uint256 interestStartTime = ICODeadline().add(1); // starts after ICO\n        uint256 interestEndTime = interestStartTime.add(interestPeriod);\n        // Only runs if the stake start time is within this interest period.\n        if (stakeStartTime >= interestStartTime && stakeStartTime <= interestEndTime) {\n            // Put an upper boundary for stake end time.\n            uint256 stakeEndTime = now > interestEndTime ? interestEndTime : now;\n            stakeDays = stakeEndTime.sub(stakeStartTime).div(1 days);\n            // Ex: 34 days // 7 days = 4 cycles with a remainder ==> 4 cycles * 7 days = 28 days\n            eligibleStakeDays = stakeDays.div(7).mul(7);\n            // Ex: interest = 50 EXO * (10%/365 days) * 28 days\n            totalInterest = stakeBalanceOf(msg.sender).mul(10).mul(eligibleStakeDays).div(36500);\n        }\n\n        // 5% for the rest.\n        interestStartTime = interestEndTime.add(1);\n        if (now >= interestStartTime) {\n            uint256 leftOverStakeDays = 0;\n            if (stakeStartTime < interestStartTime) {\n                leftOverStakeDays = stakeDays.sub(eligibleStakeDays); // ex: 34 days - 28 days = 6 days\n                // Put a lower boundary for stake start time.\n                stakeStartTime = stakeStartTime < interestStartTime ? interestStartTime : stakeStartTime;\n            }\n            // Left over staking days from the first period are carried over to this one.\n            stakeDays = now.sub(stakeStartTime).div(1 days).add(leftOverStakeDays);\n            eligibleStakeDays = stakeDays.div(7).mul(7);\n            totalInterest = totalInterest.add(stakeBalanceOf(msg.sender).mul(5).mul(eligibleStakeDays).div(36500));\n        }\n\n        return balanceOf(primaryHolder_) >= totalInterest ? totalInterest : balanceOf(primaryHolder_);\n    }\n\n    /**\n     * @dev Get the primary holder.\n     */\n    function primaryHolder() public view returns (address) {\n        return exoStorage.getAddress(keccak256(\"token.primaryHolder\"));\n    }\n\n    /**\n     * @dev Get the pre-sale start time.\n     */\n    function preSaleStartTime() public view returns (uint256) {\n        return exoStorage.getUint(keccak256(\"token.preSaleStartTime\"));\n    }\n\n    /**\n     * @dev Get the pre-sale deadline.\n     */\n    function preSaleDeadline() public view returns (uint256) {\n        return exoStorage.getUint(keccak256(\"token.preSaleDeadline\"));\n    }\n\n    /**\n     * @dev Get the ICO start time.\n     */\n    function ICOStartTime() public view returns (uint256) {\n        return exoStorage.getUint(keccak256(\"token.ICOStartTime\"));\n    }\n\n    /**\n     * @dev Get the ICO deadline.\n     */\n    function ICODeadline() public view returns (uint256) {\n        return exoStorage.getUint(keccak256(\"token.ICODeadline\"));\n    }\n\n    /**\n     * @dev Get the available ICO fund.\n     */\n    function availableICOFund() public view returns (uint256) {\n        return exoStorage.getUint(keccak256(\"token.availableICOFund\"));\n    }\n\n    /**\n     * @dev Get the total ICO tokens bought.\n     */\n    function totalICOTokensBought() public view returns (uint256) {\n        return exoStorage.getUint(keccak256(\"token.totalICOTokensBought\"));\n    }\n\n    /**\n     * @dev Get locked fund of a type.\n     *\n     * @param _type //\n     */\n    function lockedFundOf(bytes32 _type) public view returns (uint256) {\n        return exoStorage.getUint(keccak256(\"token.lockedFunds\", _type));\n    }\n\n    /**\n     * @dev Get the total ICO tokens (EXO) bought by an address.\n     *\n     * @param _address //\n     */\n    function ICOTokensBoughtBy(address _address) public view returns (uint256) {\n        return exoStorage.getUint(keccak256(\"token.ICOTokensBought\", _address));\n    }\n\n    /**\n     * @dev Has an address received airdrop tokens before?\n     *\n     * @param _address //\n     */\n    function isAirdropped(address _address) public view returns (bool) {\n        return exoStorage.getBool(keccak256(\"token.airdropped\", _address));\n    }\n\n    /**\n     * @dev Get the stake balance of an account.\n     *\n     * @param _staker The staker's account address\n     */\n    function stakeBalanceOf(address _staker) public view returns (uint256) {\n        return exoStorage.getUint(keccak256(\"token.stakes\", \"balance\", _staker));\n    }\n\n    /**\n     * @dev Get the stake start time of an account.\n     *\n     * @param _staker The staker's account address\n     */\n    function stakeStartTimeOf(address _staker) public view returns (uint256) {\n        return exoStorage.getUint(keccak256(\"token.stakes\", \"startTime\", _staker));\n    }\n\n    /**\n     * @dev Move remaining fund to a new carrier.\n     *\n     * @param _lockedFundName The name of fund to be released if the first carrier is set\n     * @param _oldCarrier The old carrier of fund\n     * @param _newCarrier The new carrier of fund\n     */\n    function _moveFund(bytes32 _lockedFundName, address _oldCarrier, address _newCarrier)\n        private\n        onlySuperUser\n        returns (bool)\n    {\n        // Check for non-sensical address and possibility of abuse.\n        require(_oldCarrier != _newCarrier && _newCarrier != address(0) && _newCarrier != primaryHolder());\n        require(balanceOf(_newCarrier) == 0); // burn check!\n\n        uint256 lockedFund = lockedFundOf(_lockedFundName);\n\n        if (lockedFund == 0 && _oldCarrier != address(0)) {\n            // Move fund from old carrier to new carrier.\n            // WARNING: Everything will be transferred.\n            balanceOf(_newCarrier, balanceOf(_oldCarrier));\n            balanceOf(_oldCarrier, 0);\n            Transfer(_oldCarrier, _newCarrier, balanceOf(_newCarrier));\n        } else if (lockedFund > 0 && _oldCarrier == address(0)) {\n            // Release fund to new carrier.\n            balanceOf(_newCarrier, lockedFund);\n            lockedFundOf(_lockedFundName, 0);\n            Transfer(this, _newCarrier, balanceOf(_newCarrier));\n        } else {\n            // Revert if anything unexpected happens.\n            revert();\n        }\n\n        return true;\n    }\n\n    /**\n     * @dev Set the primary holder of tokens.\n     *\n     * @param _holder The address of holder\n     */\n    function primaryHolder(address _holder) private {\n        exoStorage.setAddress(keccak256(\"token.primaryHolder\"), _holder);\n    }\n\n    /**\n     * @dev Set the pre-sale start time\n     *\n     * @param _preSaleStartTime //\n     */\n    function preSaleStartTime(uint256 _preSaleStartTime) private {\n        exoStorage.setUint(keccak256(\"token.preSaleStartTime\"), _preSaleStartTime);\n    }\n\n    /**\n     * @dev Set the pre-sale deadline\n     *\n     * @param _preSaleDeadline //\n     */\n    function preSaleDeadline(uint256 _preSaleDeadline) private {\n        exoStorage.setUint(keccak256(\"token.preSaleDeadline\"), _preSaleDeadline);\n    }\n\n    /**\n     * @dev Set the ICO start time\n     *\n     * @param _ICOStartTime //\n     */\n    function ICOStartTime(uint256 _ICOStartTime) private {\n        exoStorage.setUint(keccak256(\"token.ICOStartTime\"), _ICOStartTime);\n    }\n\n    /**\n     * @dev Set the ICO deadline\n     *\n     * @param _ICODeadline //\n     */\n    function ICODeadline(uint256 _ICODeadline) private {\n        exoStorage.setUint(keccak256(\"token.ICODeadline\"), _ICODeadline);\n    }\n\n    /**\n     * @dev Set the available ICO fund.\n     *\n     * @param _availableICOFund //\n     */\n    function availableICOFund(uint256 _availableICOFund) private {\n        exoStorage.setUint(keccak256(\"token.availableICOFund\"), _availableICOFund);\n    }\n\n    /**\n     * @dev Set the total ICO tokens bought.\n     *\n     * @param _totalICOTokensBought //\n     */\n    function totalICOTokensBought(uint256 _totalICOTokensBought) private {\n        exoStorage.setUint(keccak256(\"token.totalICOTokensBought\"), _totalICOTokensBought);\n    }\n\n    /**\n     * @dev Set value for the locked fund of a type.\n     *\n     * @param _type //\n     * @param _value //\n     */\n    function lockedFundOf(bytes32 _type, uint256 _value) private {\n        exoStorage.setUint(keccak256(\"token.lockedFunds\", _type), _value);\n    }\n\n    /**\n     * @dev Set value for the total ICO tokens bought by an address.\n     *\n     * @param _address //\n     * @param _value //\n     */\n    function ICOTokensBoughtBy(address _address, uint256 _value) private {\n        exoStorage.setUint(keccak256(\"token.ICOTokensBought\", _address), _value);\n    }\n\n    /**\n     * @dev Mark an address' airdrop status.\n     *\n     * @param _address //\n     * @param _isAirdropped //\n     */\n    function isAirdropped(address _address, bool _isAirdropped) private {\n        exoStorage.setBool(keccak256(\"token.airdropped\", _address), _isAirdropped);\n    }\n\n    /**\n     * @dev Set the stake balance of an account.\n     *\n     * @param _staker The staker's account address\n     * @param _value //\n     */\n    function stakeBalanceOf(address _staker, uint256 _value) private {\n        exoStorage.setUint(keccak256(\"token.stakes\", \"balance\", _staker), _value);\n    }\n\n    /**\n     * @dev Set the stake start time of an account.\n     *\n     * @param _staker The staker's account address\n     * @param _value //\n     */\n    function stakeStartTimeOf(address _staker, uint256 _value) private {\n        exoStorage.setUint(keccak256(\"token.stakes\", \"startTime\", _staker), _value);\n    }\n}\n",
  "sourcePath": "/Users/victorhuberta/Code/exodia.world-eth/contracts/EXOToken.sol",
  "compiler": {
    "name": "solc",
    "version": "0.4.18+commit.9cf6e910.Emscripten.clang"
  },
  "schemaVersion": "1.0.1",
  "updatedAt": "2018-03-24T08:03:33.433Z"
}