{
  "contractName": "EXOToken",
  "abi": [
    {
      "constant": true,
      "inputs": [],
      "name": "ICOStartTime",
      "outputs": [
        {
          "name": "",
          "type": "uint256"
        }
      ],
      "payable": false,
      "stateMutability": "view",
      "type": "function"
    },
    {
      "constant": true,
      "inputs": [],
      "name": "preSaleStartTime",
      "outputs": [
        {
          "name": "",
          "type": "uint256"
        }
      ],
      "payable": false,
      "stateMutability": "view",
      "type": "function"
    },
    {
      "constant": false,
      "inputs": [
        {
          "name": "_spender",
          "type": "address"
        },
        {
          "name": "_value",
          "type": "uint256"
        }
      ],
      "name": "approve",
      "outputs": [
        {
          "name": "",
          "type": "bool"
        }
      ],
      "payable": false,
      "stateMutability": "nonpayable",
      "type": "function"
    },
    {
      "constant": true,
      "inputs": [],
      "name": "minBalanceForStakeReward",
      "outputs": [
        {
          "name": "",
          "type": "uint256"
        }
      ],
      "payable": false,
      "stateMutability": "view",
      "type": "function"
    },
    {
      "constant": true,
      "inputs": [],
      "name": "initialICOFund",
      "outputs": [
        {
          "name": "",
          "type": "uint256"
        }
      ],
      "payable": false,
      "stateMutability": "view",
      "type": "function"
    },
    {
      "constant": true,
      "inputs": [],
      "name": "totalSupply",
      "outputs": [
        {
          "name": "",
          "type": "uint256"
        }
      ],
      "payable": false,
      "stateMutability": "view",
      "type": "function"
    },
    {
      "constant": true,
      "inputs": [],
      "name": "preSaleDuration",
      "outputs": [
        {
          "name": "",
          "type": "uint256"
        }
      ],
      "payable": false,
      "stateMutability": "view",
      "type": "function"
    },
    {
      "constant": false,
      "inputs": [
        {
          "name": "_to",
          "type": "address"
        }
      ],
      "name": "airdrop",
      "outputs": [
        {
          "name": "",
          "type": "bool"
        }
      ],
      "payable": false,
      "stateMutability": "nonpayable",
      "type": "function"
    },
    {
      "constant": false,
      "inputs": [
        {
          "name": "_from",
          "type": "address"
        },
        {
          "name": "_to",
          "type": "address"
        },
        {
          "name": "_value",
          "type": "uint256"
        }
      ],
      "name": "transferFrom",
      "outputs": [
        {
          "name": "",
          "type": "bool"
        }
      ],
      "payable": false,
      "stateMutability": "nonpayable",
      "type": "function"
    },
    {
      "constant": false,
      "inputs": [],
      "name": "claimEtherFundRaisedInICO",
      "outputs": [
        {
          "name": "",
          "type": "bool"
        }
      ],
      "payable": false,
      "stateMutability": "nonpayable",
      "type": "function"
    },
    {
      "constant": true,
      "inputs": [
        {
          "name": "_staker",
          "type": "address"
        }
      ],
      "name": "stakeStartTimeOf",
      "outputs": [
        {
          "name": "",
          "type": "uint256"
        }
      ],
      "payable": false,
      "stateMutability": "view",
      "type": "function"
    },
    {
      "constant": false,
      "inputs": [
        {
          "name": "_value",
          "type": "uint256"
        }
      ],
      "name": "withdrawStake",
      "outputs": [
        {
          "name": "",
          "type": "bool"
        }
      ],
      "payable": false,
      "stateMutability": "nonpayable",
      "type": "function"
    },
    {
      "constant": true,
      "inputs": [],
      "name": "DECIMALS",
      "outputs": [
        {
          "name": "",
          "type": "uint8"
        }
      ],
      "payable": false,
      "stateMutability": "view",
      "type": "function"
    },
    {
      "constant": true,
      "inputs": [],
      "name": "availableICOFund",
      "outputs": [
        {
          "name": "",
          "type": "uint256"
        }
      ],
      "payable": false,
      "stateMutability": "view",
      "type": "function"
    },
    {
      "constant": false,
      "inputs": [
        {
          "name": "_oldTreasuryCarrier",
          "type": "address"
        },
        {
          "name": "_treasuryCarrier",
          "type": "address"
        }
      ],
      "name": "setTreasuryCarrier",
      "outputs": [
        {
          "name": "",
          "type": "bool"
        }
      ],
      "payable": false,
      "stateMutability": "nonpayable",
      "type": "function"
    },
    {
      "constant": false,
      "inputs": [],
      "name": "releaseRemainingICOFundToPrimaryHolder",
      "outputs": [
        {
          "name": "",
          "type": "bool"
        }
      ],
      "payable": false,
      "stateMutability": "nonpayable",
      "type": "function"
    },
    {
      "constant": true,
      "inputs": [],
      "name": "totalICOTokensBought",
      "outputs": [
        {
          "name": "",
          "type": "uint256"
        }
      ],
      "payable": false,
      "stateMutability": "view",
      "type": "function"
    },
    {
      "constant": false,
      "inputs": [],
      "name": "unpause",
      "outputs": [],
      "payable": false,
      "stateMutability": "nonpayable",
      "type": "function"
    },
    {
      "constant": true,
      "inputs": [],
      "name": "minICOTokensBoughtEveryPurchase",
      "outputs": [
        {
          "name": "",
          "type": "uint256"
        }
      ],
      "payable": false,
      "stateMutability": "view",
      "type": "function"
    },
    {
      "constant": true,
      "inputs": [],
      "name": "primaryHolder",
      "outputs": [
        {
          "name": "",
          "type": "address"
        }
      ],
      "payable": false,
      "stateMutability": "view",
      "type": "function"
    },
    {
      "constant": true,
      "inputs": [],
      "name": "version",
      "outputs": [
        {
          "name": "",
          "type": "uint8"
        }
      ],
      "payable": false,
      "stateMutability": "view",
      "type": "function"
    },
    {
      "constant": false,
      "inputs": [],
      "name": "startPreSale",
      "outputs": [
        {
          "name": "",
          "type": "bool"
        }
      ],
      "payable": false,
      "stateMutability": "nonpayable",
      "type": "function"
    },
    {
      "constant": true,
      "inputs": [
        {
          "name": "_type",
          "type": "bytes32"
        }
      ],
      "name": "lockedFundOf",
      "outputs": [
        {
          "name": "",
          "type": "uint256"
        }
      ],
      "payable": false,
      "stateMutability": "view",
      "type": "function"
    },
    {
      "constant": true,
      "inputs": [],
      "name": "paused",
      "outputs": [
        {
          "name": "",
          "type": "bool"
        }
      ],
      "payable": false,
      "stateMutability": "view",
      "type": "function"
    },
    {
      "constant": false,
      "inputs": [
        {
          "name": "_spender",
          "type": "address"
        },
        {
          "name": "_subtractedValue",
          "type": "uint256"
        }
      ],
      "name": "decreaseApproval",
      "outputs": [
        {
          "name": "success",
          "type": "bool"
        }
      ],
      "payable": false,
      "stateMutability": "nonpayable",
      "type": "function"
    },
    {
      "constant": false,
      "inputs": [
        {
          "name": "_oldPreSaleCarrier",
          "type": "address"
        },
        {
          "name": "_preSaleCarrier",
          "type": "address"
        }
      ],
      "name": "setPreSaleCarrier",
      "outputs": [
        {
          "name": "",
          "type": "bool"
        }
      ],
      "payable": false,
      "stateMutability": "nonpayable",
      "type": "function"
    },
    {
      "constant": true,
      "inputs": [
        {
          "name": "_owner",
          "type": "address"
        }
      ],
      "name": "balanceOf",
      "outputs": [
        {
          "name": "balance",
          "type": "uint256"
        }
      ],
      "payable": false,
      "stateMutability": "view",
      "type": "function"
    },
    {
      "constant": true,
      "inputs": [],
      "name": "contractName",
      "outputs": [
        {
          "name": "",
          "type": "string"
        }
      ],
      "payable": false,
      "stateMutability": "view",
      "type": "function"
    },
    {
      "constant": true,
      "inputs": [],
      "name": "maxICOTokensBought",
      "outputs": [
        {
          "name": "",
          "type": "uint256"
        }
      ],
      "payable": false,
      "stateMutability": "view",
      "type": "function"
    },
    {
      "constant": true,
      "inputs": [
        {
          "name": "_address",
          "type": "address"
        }
      ],
      "name": "ICOTokensBoughtBy",
      "outputs": [
        {
          "name": "",
          "type": "uint256"
        }
      ],
      "payable": false,
      "stateMutability": "view",
      "type": "function"
    },
    {
      "constant": false,
      "inputs": [],
      "name": "updateStakeBalance",
      "outputs": [
        {
          "name": "",
          "type": "uint256"
        }
      ],
      "payable": false,
      "stateMutability": "nonpayable",
      "type": "function"
    },
    {
      "constant": false,
      "inputs": [],
      "name": "startICO",
      "outputs": [
        {
          "name": "",
          "type": "bool"
        }
      ],
      "payable": false,
      "stateMutability": "nonpayable",
      "type": "function"
    },
    {
      "constant": false,
      "inputs": [],
      "name": "pause",
      "outputs": [],
      "payable": false,
      "stateMutability": "nonpayable",
      "type": "function"
    },
    {
      "constant": true,
      "inputs": [],
      "name": "ICO_ETH_TO_EXO",
      "outputs": [
        {
          "name": "",
          "type": "uint256"
        }
      ],
      "payable": false,
      "stateMutability": "view",
      "type": "function"
    },
    {
      "constant": true,
      "inputs": [],
      "name": "NAME",
      "outputs": [
        {
          "name": "",
          "type": "string"
        }
      ],
      "payable": false,
      "stateMutability": "view",
      "type": "function"
    },
    {
      "constant": true,
      "inputs": [],
      "name": "ICODeadline",
      "outputs": [
        {
          "name": "",
          "type": "uint256"
        }
      ],
      "payable": false,
      "stateMutability": "view",
      "type": "function"
    },
    {
      "constant": false,
      "inputs": [
        {
          "name": "_to",
          "type": "address"
        },
        {
          "name": "_value",
          "type": "uint256"
        }
      ],
      "name": "transfer",
      "outputs": [
        {
          "name": "",
          "type": "bool"
        }
      ],
      "payable": false,
      "stateMutability": "nonpayable",
      "type": "function"
    },
    {
      "constant": true,
      "inputs": [
        {
          "name": "_staker",
          "type": "address"
        }
      ],
      "name": "stakeBalanceOf",
      "outputs": [
        {
          "name": "",
          "type": "uint256"
        }
      ],
      "payable": false,
      "stateMutability": "view",
      "type": "function"
    },
    {
      "constant": true,
      "inputs": [
        {
          "name": "_address",
          "type": "address"
        }
      ],
      "name": "isAirdropped",
      "outputs": [
        {
          "name": "",
          "type": "bool"
        }
      ],
      "payable": false,
      "stateMutability": "view",
      "type": "function"
    },
    {
      "constant": true,
      "inputs": [],
      "name": "PRESALE_ETH_TO_EXO",
      "outputs": [
        {
          "name": "",
          "type": "uint256"
        }
      ],
      "payable": false,
      "stateMutability": "view",
      "type": "function"
    },
    {
      "constant": false,
      "inputs": [
        {
          "name": "_value",
          "type": "uint256"
        }
      ],
      "name": "depositStake",
      "outputs": [
        {
          "name": "",
          "type": "bool"
        }
      ],
      "payable": false,
      "stateMutability": "nonpayable",
      "type": "function"
    },
    {
      "constant": false,
      "inputs": [
        {
          "name": "_spender",
          "type": "address"
        },
        {
          "name": "_addedValue",
          "type": "uint256"
        }
      ],
      "name": "increaseApproval",
      "outputs": [
        {
          "name": "success",
          "type": "bool"
        }
      ],
      "payable": false,
      "stateMutability": "nonpayable",
      "type": "function"
    },
    {
      "constant": true,
      "inputs": [
        {
          "name": "_owner",
          "type": "address"
        },
        {
          "name": "_spender",
          "type": "address"
        }
      ],
      "name": "allowance",
      "outputs": [
        {
          "name": "",
          "type": "uint256"
        }
      ],
      "payable": false,
      "stateMutability": "view",
      "type": "function"
    },
    {
      "constant": false,
      "inputs": [],
      "name": "buyICOTokens",
      "outputs": [
        {
          "name": "",
          "type": "bool"
        }
      ],
      "payable": true,
      "stateMutability": "payable",
      "type": "function"
    },
    {
      "constant": true,
      "inputs": [],
      "name": "calculateInterest",
      "outputs": [
        {
          "name": "",
          "type": "uint256"
        }
      ],
      "payable": false,
      "stateMutability": "view",
      "type": "function"
    },
    {
      "constant": true,
      "inputs": [],
      "name": "ICODuration",
      "outputs": [
        {
          "name": "",
          "type": "uint256"
        }
      ],
      "payable": false,
      "stateMutability": "view",
      "type": "function"
    },
    {
      "constant": true,
      "inputs": [],
      "name": "SYMBOL",
      "outputs": [
        {
          "name": "",
          "type": "string"
        }
      ],
      "payable": false,
      "stateMutability": "view",
      "type": "function"
    },
    {
      "constant": true,
      "inputs": [],
      "name": "preSaleDeadline",
      "outputs": [
        {
          "name": "",
          "type": "uint256"
        }
      ],
      "payable": false,
      "stateMutability": "view",
      "type": "function"
    },
    {
      "constant": true,
      "inputs": [],
      "name": "airdropAmount",
      "outputs": [
        {
          "name": "",
          "type": "uint256"
        }
      ],
      "payable": false,
      "stateMutability": "view",
      "type": "function"
    },
    {
      "inputs": [
        {
          "name": "_exoStorageAddress",
          "type": "address"
        },
        {
          "name": "_totalSupply",
          "type": "uint256"
        },
        {
          "name": "_minBalanceForStakeReward",
          "type": "uint256"
        },
        {
          "name": "_lockedTreasuryFund",
          "type": "uint256"
        },
        {
          "name": "_lockedPreSaleFund",
          "type": "uint256"
        },
        {
          "name": "_preSaleDuration",
          "type": "uint256"
        },
        {
          "name": "_ICODuration",
          "type": "uint256"
        },
        {
          "name": "_availableICOFund",
          "type": "uint256"
        },
        {
          "name": "_minICOTokensBoughtEveryPurchase",
          "type": "uint256"
        },
        {
          "name": "_maxICOTokensBought",
          "type": "uint256"
        },
        {
          "name": "_airdropAmount",
          "type": "uint256"
        }
      ],
      "payable": false,
      "stateMutability": "nonpayable",
      "type": "constructor"
    },
    {
      "payable": true,
      "stateMutability": "payable",
      "type": "fallback"
    },
    {
      "anonymous": false,
      "inputs": [
        {
          "indexed": true,
          "name": "startTime",
          "type": "uint256"
        },
        {
          "indexed": true,
          "name": "deadline",
          "type": "uint256"
        }
      ],
      "name": "StartPreSale",
      "type": "event"
    },
    {
      "anonymous": false,
      "inputs": [
        {
          "indexed": true,
          "name": "startTime",
          "type": "uint256"
        },
        {
          "indexed": true,
          "name": "deadline",
          "type": "uint256"
        }
      ],
      "name": "StartICO",
      "type": "event"
    },
    {
      "anonymous": false,
      "inputs": [
        {
          "indexed": true,
          "name": "from",
          "type": "address"
        },
        {
          "indexed": true,
          "name": "to",
          "type": "address"
        },
        {
          "indexed": false,
          "name": "value",
          "type": "uint256"
        }
      ],
      "name": "TransferETH",
      "type": "event"
    },
    {
      "anonymous": false,
      "inputs": [
        {
          "indexed": true,
          "name": "staker",
          "type": "address"
        },
        {
          "indexed": true,
          "name": "value",
          "type": "uint256"
        }
      ],
      "name": "DepositStake",
      "type": "event"
    },
    {
      "anonymous": false,
      "inputs": [
        {
          "indexed": true,
          "name": "staker",
          "type": "address"
        },
        {
          "indexed": true,
          "name": "value",
          "type": "uint256"
        }
      ],
      "name": "WithdrawStake",
      "type": "event"
    },
    {
      "anonymous": false,
      "inputs": [
        {
          "indexed": true,
          "name": "staker",
          "type": "address"
        },
        {
          "indexed": true,
          "name": "balance",
          "type": "uint256"
        }
      ],
      "name": "UpdateStakeBalance",
      "type": "event"
    },
    {
      "anonymous": false,
      "inputs": [
        {
          "indexed": true,
          "name": "oldCarrier",
          "type": "address"
        },
        {
          "indexed": true,
          "name": "newCarrier",
          "type": "address"
        }
      ],
      "name": "SetTreasuryCarrier",
      "type": "event"
    },
    {
      "anonymous": false,
      "inputs": [
        {
          "indexed": true,
          "name": "oldCarrier",
          "type": "address"
        },
        {
          "indexed": true,
          "name": "newCarrier",
          "type": "address"
        }
      ],
      "name": "SetPreSaleCarrier",
      "type": "event"
    },
    {
      "anonymous": false,
      "inputs": [
        {
          "indexed": true,
          "name": "oldCarrier",
          "type": "address"
        },
        {
          "indexed": true,
          "name": "newCarrier",
          "type": "address"
        }
      ],
      "name": "SetAirdropCarrier",
      "type": "event"
    },
    {
      "anonymous": false,
      "inputs": [],
      "name": "Pause",
      "type": "event"
    },
    {
      "anonymous": false,
      "inputs": [],
      "name": "Unpause",
      "type": "event"
    },
    {
      "anonymous": false,
      "inputs": [
        {
          "indexed": true,
          "name": "owner",
          "type": "address"
        },
        {
          "indexed": true,
          "name": "spender",
          "type": "address"
        },
        {
          "indexed": false,
          "name": "value",
          "type": "uint256"
        }
      ],
      "name": "Approval",
      "type": "event"
    },
    {
      "anonymous": false,
      "inputs": [
        {
          "indexed": true,
          "name": "from",
          "type": "address"
        },
        {
          "indexed": true,
          "name": "to",
          "type": "address"
        },
        {
          "indexed": false,
          "name": "value",
          "type": "uint256"
        }
      ],
      "name": "Transfer",
      "type": "event"
    }
  ],
  "bytecode": "0x60606040526000600260006101000a81548173ffffffffffffffffffffffffffffffffffffffff021916908373ffffffffffffffffffffffffffffffffffffffff1602179055506000600260146101000a81548160ff02191690831515021790555034156200006d57600080fd5b6040516101608062006bf18339810160405280805190602001909190805190602001909190805190602001909190805190602001909190805190602001909190805190602001909190805190602001909190805190602001909190805190602001909190805190602001909190805190602001909190505060006040805190810160405280600881526020017f45584f546f6b656e0000000000000000000000000000000000000000000000008152508c81600190805190602001906200013692919062001250565b5080600260006101000a81548173ffffffffffffffffffffffffffffffffffffffff021916908373ffffffffffffffffffffffffffffffffffffffff1602179055505050620001d16040805190810160405280600581526020017f6f776e6572000000000000000000000000000000000000000000000000000000815250336001620006c36401000000000262003d70176401000000009004565b600260009054906101000a900473ffffffffffffffffffffffffffffffffffffffff1673ffffffffffffffffffffffffffffffffffffffff16637ae1cfca60405180807f636f6e74726163742e73746f726167652e696e697469616c697a656400000000815250601c01905060405180910390206000604051602001526040518263ffffffff167c0100000000000000000000000000000000000000000000000000000000028152600401808260001916600019168152602001915050602060405180830381600087803b1515620002a857600080fd5b6102c65a03f11515620002ba57600080fd5b505050604051805190509050600015158115151415620006b157620002f333620006fa64010000000002620056b2176401000000009004565b6200033b62000321601260ff16600a0a8d620008146401000000000262004df2179091906401000000009004565b6200085364010000000002620057ca176401000000009004565b62000365601260ff16600a0a8b620008146401000000000262004df2179091906401000000009004565b600381905550620003d47f7472656173757279000000000000000000000000000000000000000000000000620003ba601260ff16600a0a8c620008146401000000000262004df2179091906401000000009004565b6200094164010000000002620054aa176401000000009004565b6200043d7f70726553616c650000000000000000000000000000000000000000000000000062000423601260ff16600a0a8b620008146401000000000262004df2179091906401000000009004565b6200094164010000000002620054aa176401000000009004565b86600481905550856005819055506200049362000479601260ff16600a0a87620008146401000000000262004df2179091906401000000009004565b62000a406401000000000262003da9176401000000009004565b620004b162000b2e6401000000000262001993176401000000009004565b600681905550620004e1601260ff16600a0a85620008146401000000000262004df2179091906401000000009004565b60078190555062000511601260ff16600a0a84620008146401000000000262004df2179091906401000000009004565b60088190555062000541601260ff16600a0a83620008146401000000000262004df2179091906401000000009004565b6009819055506200068333620006696200056e62000b2e6401000000000262001993176401000000009004565b6200064c620005b17f70726553616c650000000000000000000000000000000000000000000000000062000c2864010000000002620022bb176401000000009004565b6200062f620005f47f747265617375727900000000000000000000000000000000000000000000000062000c2864010000000002620022bb176401000000009004565b6200061262000d3464010000000002620010a2176401000000009004565b62000e2e6401000000000262003d90179091906401000000009004565b62000e2e6401000000000262003d90179091906401000000009004565b62000e2e6401000000000262003d90179091906401000000009004565b62000e4864010000000002620042c9176401000000009004565b600354620006a53362000f7a64010000000002620026f0176401000000009004565b10151515620006b057fe5b5b505050505050505050505050620012ff565b801515620006e68484620010b964010000000002620043f9176401000000009004565b1515141515620006f557600080fd5b505050565b600260009054906101000a900473ffffffffffffffffffffffffffffffffffffffff1673ffffffffffffffffffffffffffffffffffffffff1663ca446dd960405180807f746f6b656e2e7072696d617279486f6c6465720000000000000000000000000081525060130190506040518091039020836040518363ffffffff167c01000000000000000000000000000000000000000000000000000000000281526004018083600019166000191681526020018273ffffffffffffffffffffffffffffffffffffffff1673ffffffffffffffffffffffffffffffffffffffff16815260200192505050600060405180830381600087803b1515620007fc57600080fd5b6102c65a03f115156200080e57600080fd5b50505050565b60008060008414156200082b57600091506200084c565b82840290508284828115156200083d57fe5b041415156200084857fe5b8091505b5092915050565b600260009054906101000a900473ffffffffffffffffffffffffffffffffffffffff1673ffffffffffffffffffffffffffffffffffffffff1663e2a4853a60405180807f746f6b656e2e746f74616c537570706c7900000000000000000000000000000081525060110190506040518091039020836040518363ffffffff167c010000000000000000000000000000000000000000000000000000000002815260040180836000191660001916815260200182815260200192505050600060405180830381600087803b15156200092957600080fd5b6102c65a03f115156200093b57600080fd5b50505050565b600260009054906101000a900473ffffffffffffffffffffffffffffffffffffffff1673ffffffffffffffffffffffffffffffffffffffff1663e2a4853a8360405180807f746f6b656e2e6c6f636b656446756e647300000000000000000000000000000081525060110182600019166000191681526020019150506040518091039020836040518363ffffffff167c010000000000000000000000000000000000000000000000000000000002815260040180836000191660001916815260200182815260200192505050600060405180830381600087803b151562000a2757600080fd5b6102c65a03f1151562000a3957600080fd5b5050505050565b600260009054906101000a900473ffffffffffffffffffffffffffffffffffffffff1673ffffffffffffffffffffffffffffffffffffffff1663e2a4853a60405180807f746f6b656e2e617661696c61626c6549434f46756e640000000000000000000081525060160190506040518091039020836040518363ffffffff167c010000000000000000000000000000000000000000000000000000000002815260040180836000191660001916815260200182815260200192505050600060405180830381600087803b151562000b1657600080fd5b6102c65a03f1151562000b2857600080fd5b50505050565b6000600260009054906101000a900473ffffffffffffffffffffffffffffffffffffffff1673ffffffffffffffffffffffffffffffffffffffff1663bd02d0f560405180807f746f6b656e2e617661696c61626c6549434f46756e6400000000000000000000815250601601905060405180910390206000604051602001526040518263ffffffff167c0100000000000000000000000000000000000000000000000000000000028152600401808260001916600019168152602001915050602060405180830381600087803b151562000c0757600080fd5b6102c65a03f1151562000c1957600080fd5b50505060405180519050905090565b6000600260009054906101000a900473ffffffffffffffffffffffffffffffffffffffff1673ffffffffffffffffffffffffffffffffffffffff1663bd02d0f58360405180807f746f6b656e2e6c6f636b656446756e6473000000000000000000000000000000815250601101826000191660001916815260200191505060405180910390206000604051602001526040518263ffffffff167c0100000000000000000000000000000000000000000000000000000000028152600401808260001916600019168152602001915050602060405180830381600087803b151562000d1157600080fd5b6102c65a03f1151562000d2357600080fd5b505050604051805190509050919050565b6000600260009054906101000a900473ffffffffffffffffffffffffffffffffffffffff1673ffffffffffffffffffffffffffffffffffffffff1663bd02d0f560405180807f746f6b656e2e746f74616c537570706c79000000000000000000000000000000815250601101905060405180910390206000604051602001526040518263ffffffff167c0100000000000000000000000000000000000000000000000000000000028152600401808260001916600019168152602001915050602060405180830381600087803b151562000e0d57600080fd5b6102c65a03f1151562000e1f57600080fd5b50505060405180519050905090565b600082821115151562000e3d57fe5b818303905092915050565b600260009054906101000a900473ffffffffffffffffffffffffffffffffffffffff1673ffffffffffffffffffffffffffffffffffffffff1663e2a4853a8360405180807f746f6b656e2e62616c616e636573000000000000000000000000000000000000815250600e018273ffffffffffffffffffffffffffffffffffffffff1673ffffffffffffffffffffffffffffffffffffffff166c010000000000000000000000000281526014019150506040518091039020836040518363ffffffff167c010000000000000000000000000000000000000000000000000000000002815260040180836000191660001916815260200182815260200192505050600060405180830381600087803b151562000f6157600080fd5b6102c65a03f1151562000f7357600080fd5b5050505050565b6000600260009054906101000a900473ffffffffffffffffffffffffffffffffffffffff1673ffffffffffffffffffffffffffffffffffffffff1663bd02d0f58360405180807f746f6b656e2e62616c616e636573000000000000000000000000000000000000815250600e018273ffffffffffffffffffffffffffffffffffffffff1673ffffffffffffffffffffffffffffffffffffffff166c0100000000000000000000000002815260140191505060405180910390206000604051602001526040518263ffffffff167c0100000000000000000000000000000000000000000000000000000000028152600401808260001916600019168152602001915050602060405180830381600087803b15156200109657600080fd5b6102c65a03f11515620010a857600080fd5b505050604051805190509050919050565b6000600260009054906101000a900473ffffffffffffffffffffffffffffffffffffffff1673ffffffffffffffffffffffffffffffffffffffff16637ae1cfca848460405180807f6163636573732e726f6c65000000000000000000000000000000000000000000815250600b0183805190602001908083835b6020831015156200115a578051825260208201915060208101905060208303925062001133565b6001836020036101000a0380198251168184511680821785525050505050509050018273ffffffffffffffffffffffffffffffffffffffff1673ffffffffffffffffffffffffffffffffffffffff166c010000000000000000000000000281526014019250505060405180910390206000604051602001526040518263ffffffff167c0100000000000000000000000000000000000000000000000000000000028152600401808260001916600019168152602001915050602060405180830381600087803b15156200122c57600080fd5b6102c65a03f115156200123e57600080fd5b50505060405180519050905092915050565b828054600181600116156101000203166002900490600052602060002090601f016020900481019282601f106200129357805160ff1916838001178555620012c4565b82800160010185558215620012c4579182015b82811115620012c3578251825591602001919060010190620012a6565b5b509050620012d39190620012d7565b5090565b620012fc91905b80821115620012f8576000816000905550600101620012de565b5090565b90565b6158e2806200130f6000396000f300606060405260043610610251576000357c0100000000000000000000000000000000000000000000000000000000900463ffffffff16806303652c4e1461025657806306d65af31461027f578063095ea7b3146102a85780630ec0d8791461030257806310b44d1e1461032b57806318160ddd146103545780631bd16dbf1461037d57806321860a05146103a657806323b872dd146103f757806323fc2a5f146104705780632420521b1461049d57806325d5971f146104ea5780632e0f26251461052557806331b824f914610554578063328460a21461057d57806334009cca146105ed5780633e806e671461061a5780633f4ba83a14610643578063461e0c801461065857806352f024151461068157806354fd4d50146106d657806355dd574c146107055780635c08436a146107325780635c975abb1461076d578063661884631461079a57806370605190146107f457806370a082311461086457806375d0c0dc146108b1578063770d06cb1461093f578063782cf3e5146109685780637edc400e146109b55780637fa8c158146109de5780638456cb5914610a0b57806395fa010814610a20578063a3f4df7e14610a49578063a6d2795d14610ad7578063a9059cbb14610b00578063af46aa0814610b5a578063bfa51df914610ba7578063c3a36ec514610bf8578063cb82cc8f14610c21578063d73dd62314610c5c578063dd62ed3e14610cb6578063e3f954be14610d22578063eb0c495514610d44578063f6cc5ace14610d6d578063f76f8d7814610d96578063f9327b9f14610e24578063fc2ea8a514610e4d575b600080fd5b341561026157600080fd5b610269610e76565b6040518082815260200191505060405180910390f35b341561028a57600080fd5b610292610f6e565b6040518082815260200191505060405180910390f35b34156102b357600080fd5b6102e8600480803573ffffffffffffffffffffffffffffffffffffffff16906020019091908035906020019091905050611066565b604051808215151515815260200191505060405180910390f35b341561030d57600080fd5b610315611096565b6040518082815260200191505060405180910390f35b341561033657600080fd5b61033e61109c565b6040518082815260200191505060405180910390f35b341561035f57600080fd5b6103676110a2565b6040518082815260200191505060405180910390f35b341561038857600080fd5b61039061119a565b6040518082815260200191505060405180910390f35b34156103b157600080fd5b6103dd600480803573ffffffffffffffffffffffffffffffffffffffff169060200190919050506111a0565b604051808215151515815260200191505060405180910390f35b341561040257600080fd5b610456600480803573ffffffffffffffffffffffffffffffffffffffff1690602001909190803573ffffffffffffffffffffffffffffffffffffffff169060200190919080359060200190919050506113eb565b604051808215151515815260200191505060405180910390f35b341561047b57600080fd5b6104836114e2565b604051808215151515815260200191505060405180910390f35b34156104a857600080fd5b6104d4600480803573ffffffffffffffffffffffffffffffffffffffff16906020019091905050611666565b6040518082815260200191505060405180910390f35b34156104f557600080fd5b61050b60048080359060200190919050506117cb565b604051808215151515815260200191505060405180910390f35b341561053057600080fd5b61053861198e565b604051808260ff1660ff16815260200191505060405180910390f35b341561055f57600080fd5b610567611993565b6040518082815260200191505060405180910390f35b341561058857600080fd5b6105d3600480803573ffffffffffffffffffffffffffffffffffffffff1690602001909190803573ffffffffffffffffffffffffffffffffffffffff16906020019091905050611a8b565b604051808215151515815260200191505060405180910390f35b34156105f857600080fd5b610600611d12565b604051808215151515815260200191505060405180910390f35b341561062557600080fd5b61062d611e65565b6040518082815260200191505060405180910390f35b341561064e57600080fd5b610656611f5d565b005b341561066357600080fd5b61066b612004565b6040518082815260200191505060405180910390f35b341561068c57600080fd5b61069461200a565b604051808273ffffffffffffffffffffffffffffffffffffffff1673ffffffffffffffffffffffffffffffffffffffff16815260200191505060405180910390f35b34156106e157600080fd5b6106e9612102565b604051808260ff1660ff16815260200191505060405180910390f35b341561071057600080fd5b610718612114565b604051808215151515815260200191505060405180910390f35b341561073d57600080fd5b6107576004808035600019169060200190919050506122bb565b6040518082815260200191505060405180910390f35b341561077857600080fd5b6107806123c5565b604051808215151515815260200191505060405180910390f35b34156107a557600080fd5b6107da600480803573ffffffffffffffffffffffffffffffffffffffff169060200190919080359060200190919050506123d8565b604051808215151515815260200191505060405180910390f35b34156107ff57600080fd5b61084a600480803573ffffffffffffffffffffffffffffffffffffffff1690602001909190803573ffffffffffffffffffffffffffffffffffffffff16906020019091905050612408565b604051808215151515815260200191505060405180910390f35b341561086f57600080fd5b61089b600480803573ffffffffffffffffffffffffffffffffffffffff169060200190919050506126f0565b6040518082815260200191505060405180910390f35b34156108bc57600080fd5b6108c461282d565b6040518080602001828103825283818151815260200191508051906020019080838360005b838110156109045780820151818401526020810190506108e9565b50505050905090810190601f1680156109315780820380516001836020036101000a031916815260200191505b509250505060405180910390f35b341561094a57600080fd5b6109526128cb565b6040518082815260200191505060405180910390f35b341561097357600080fd5b61099f600480803573ffffffffffffffffffffffffffffffffffffffff169060200190919050506128d1565b6040518082815260200191505060405180910390f35b34156109c057600080fd5b6109c8612a0e565b6040518082815260200191505060405180910390f35b34156109e957600080fd5b6109f1612be2565b604051808215151515815260200191505060405180910390f35b3415610a1657600080fd5b610a1e612d67565b005b3415610a2b57600080fd5b610a33612e0f565b6040518082815260200191505060405180910390f35b3415610a5457600080fd5b610a5c612e15565b6040518080602001828103825283818151815260200191508051906020019080838360005b83811015610a9c578082015181840152602081019050610a81565b50505050905090810190601f168015610ac95780820380516001836020036101000a031916815260200191505b509250505060405180910390f35b3415610ae257600080fd5b610aea612e4e565b6040518082815260200191505060405180910390f35b3415610b0b57600080fd5b610b40600480803573ffffffffffffffffffffffffffffffffffffffff16906020019091908035906020019091905050612f46565b604051808215151515815260200191505060405180910390f35b3415610b6557600080fd5b610b91600480803573ffffffffffffffffffffffffffffffffffffffff169060200190919050506130a9565b6040518082815260200191505060405180910390f35b3415610bb257600080fd5b610bde600480803573ffffffffffffffffffffffffffffffffffffffff1690602001909190505061320e565b604051808215151515815260200191505060405180910390f35b3415610c0357600080fd5b610c0b61334b565b6040518082815260200191505060405180910390f35b3415610c2c57600080fd5b610c426004808035906020019091905050613351565b604051808215151515815260200191505060405180910390f35b3415610c6757600080fd5b610c9c600480803573ffffffffffffffffffffffffffffffffffffffff169060200190919080359060200190919050506134de565b604051808215151515815260200191505060405180910390f35b3415610cc157600080fd5b610d0c600480803573ffffffffffffffffffffffffffffffffffffffff1690602001909190803573ffffffffffffffffffffffffffffffffffffffff1690602001909190505061350e565b6040518082815260200191505060405180910390f35b610d2a61368f565b604051808215151515815260200191505060405180910390f35b3415610d4f57600080fd5b610d576138a5565b6040518082815260200191505060405180910390f35b3415610d7857600080fd5b610d80613bb7565b6040518082815260200191505060405180910390f35b3415610da157600080fd5b610da9613bbd565b6040518080602001828103825283818151815260200191508051906020019080838360005b83811015610de9578082015181840152602081019050610dce565b50505050905090810190601f168015610e165780820380516001836020036101000a031916815260200191505b509250505060405180910390f35b3415610e2f57600080fd5b610e37613bf6565b6040518082815260200191505060405180910390f35b3415610e5857600080fd5b610e60613cee565b6040518082815260200191505060405180910390f35b6000600260009054906101000a900473ffffffffffffffffffffffffffffffffffffffff1673ffffffffffffffffffffffffffffffffffffffff1663bd02d0f560405180807f746f6b656e2e49434f537461727454696d650000000000000000000000000000815250601201905060405180910390206000604051602001526040518263ffffffff167c0100000000000000000000000000000000000000000000000000000000028152600401808260001916600019168152602001915050602060405180830381600087803b1515610f4e57600080fd5b6102c65a03f11515610f5f57600080fd5b50505060405180519050905090565b6000600260009054906101000a900473ffffffffffffffffffffffffffffffffffffffff1673ffffffffffffffffffffffffffffffffffffffff1663bd02d0f560405180807f746f6b656e2e70726553616c65537461727454696d6500000000000000000000815250601601905060405180910390206000604051602001526040518263ffffffff167c0100000000000000000000000000000000000000000000000000000000028152600401808260001916600019168152602001915050602060405180830381600087803b151561104657600080fd5b6102c65a03f1151561105757600080fd5b50505060405180519050905090565b6000600260149054906101000a900460ff1615151561108457600080fd5b61108e8383613cf4565b905092915050565b60035481565b60065481565b6000600260009054906101000a900473ffffffffffffffffffffffffffffffffffffffff1673ffffffffffffffffffffffffffffffffffffffff1663bd02d0f560405180807f746f6b656e2e746f74616c537570706c79000000000000000000000000000000815250601101905060405180910390206000604051602001526040518263ffffffff167c0100000000000000000000000000000000000000000000000000000000028152600401808260001916600019168152602001915050602060405180830381600087803b151561117a57600080fd5b6102c65a03f1151561118b57600080fd5b50505060405180519050905090565b60045481565b6000600260149054906101000a900460ff161515156111be57600080fd5b6040805190810160405280600e81526020017f61697264726f704361727269657200000000000000000000000000000000000081525061120081336001613d70565b6040805190810160405280600681526020017f66726f7a656e000000000000000000000000000000000000000000000000000081525061124281336000613d70565b600061124c610e76565b11801561125f57504261125d612e4e565b105b151561126a57600080fd5b6112ab6040805190810160405280600681526020017f66726f7a656e0000000000000000000000000000000000000000000000000000815250856000613d70565b600073ffffffffffffffffffffffffffffffffffffffff168473ffffffffffffffffffffffffffffffffffffffff16141515156112e757600080fd5b600015156112f48561320e565b151514151561130257600080fd5b60095461130d611993565b1015151561131a57600080fd5b61133e61133960095461132b611993565b613d9090919063ffffffff16565b613da9565b6113648461135f600954611351886130a9565b613e9590919063ffffffff16565b613eb3565b61136e844261400b565b611379846001614163565b8373ffffffffffffffffffffffffffffffffffffffff163373ffffffffffffffffffffffffffffffffffffffff167fddf252ad1be2c89b69c2b068fc378daa952ba7f163c4a11628f55a4df523b3ef6009546040518082815260200191505060405180910390a3600192505050919050565b6000600260149054906101000a900460ff1615151561140957600080fd5b6040805190810160405280600681526020017f66726f7a656e000000000000000000000000000000000000000000000000000081525061144b81336000613d70565b61148c6040805190810160405280600681526020017f66726f7a656e0000000000000000000000000000000000000000000000000000815250866000613d70565b6114cd6040805190810160405280600681526020017f66726f7a656e0000000000000000000000000000000000000000000000000000815250856000613d70565b6114d8858585614297565b9150509392505050565b6000806000600260149054906101000a900460ff1615151561150357600080fd5b6040805190810160405280600581526020017f6f776e657200000000000000000000000000000000000000000000000000000081525061154581336001613d70565b600061154f610e76565b118015611562575042611560612e4e565b105b151561156d57600080fd5b60003073ffffffffffffffffffffffffffffffffffffffff163111151561159357600080fd5b3073ffffffffffffffffffffffffffffffffffffffff163192506115b561200a565b91508173ffffffffffffffffffffffffffffffffffffffff166108fc849081150290604051600060405180830381858888f1935050505015156115f757600080fd5b8173ffffffffffffffffffffffffffffffffffffffff163073ffffffffffffffffffffffffffffffffffffffff167fb417e19f030bde3b90ec59aeed617934f679c9071dde0be604082db6586346a6856040518082815260200191505060405180910390a36001935050505090565b6000600260009054906101000a900473ffffffffffffffffffffffffffffffffffffffff1673ffffffffffffffffffffffffffffffffffffffff1663bd02d0f58360405180807f746f6b656e2e7374616b65730000000000000000000000000000000000000000815250600c01807f737461727454696d6500000000000000000000000000000000000000000000008152506009018273ffffffffffffffffffffffffffffffffffffffff1673ffffffffffffffffffffffffffffffffffffffff166c0100000000000000000000000002815260140191505060405180910390206000604051602001526040518263ffffffff167c0100000000000000000000000000000000000000000000000000000000028152600401808260001916600019168152602001915050602060405180830381600087803b15156117a957600080fd5b6102c65a03f115156117ba57600080fd5b505050604051805190509050919050565b6000600260149054906101000a900460ff161515156117e957600080fd5b6040805190810160405280600681526020017f66726f7a656e000000000000000000000000000000000000000000000000000081525061182b81336000613d70565b6040805190810160405280600581526020017f6f776e657200000000000000000000000000000000000000000000000000000081525061186d81336000613d70565b6000611877610e76565b11801561188a575042611888612e4e565b105b151561189557600080fd5b6000841180156118ad5750836118aa336130a9565b10155b15156118b857600080fd5b621baf806118d76118c833611666565b42613d9090919063ffffffff16565b1015156118ec576118e6612a0e565b506118f7565b6118f6334261400b565b5b61191b3361191686611908336130a9565b613d9090919063ffffffff16565b613eb3565b61193f3361193a8661192c336126f0565b613e9590919063ffffffff16565b6142c9565b833373ffffffffffffffffffffffffffffffffffffffff167f141ef67c4a6d3ec2adfb2f66d33c2b11de5b4f34344757554d430570b18a92ec60405160405180910390a3600192505050919050565b601281565b6000600260009054906101000a900473ffffffffffffffffffffffffffffffffffffffff1673ffffffffffffffffffffffffffffffffffffffff1663bd02d0f560405180807f746f6b656e2e617661696c61626c6549434f46756e6400000000000000000000815250601601905060405180910390206000604051602001526040518263ffffffff167c0100000000000000000000000000000000000000000000000000000000028152600401808260001916600019168152602001915050602060405180830381600087803b1515611a6b57600080fd5b6102c65a03f11515611a7c57600080fd5b50505060405180519050905090565b6000600260149054906101000a900460ff16151515611aa957600080fd5b611ae86040805190810160405280600581526020017f6f776e6572000000000000000000000000000000000000000000000000000000815250336143f9565b80611b2e5750611b2d6040805190810160405280600581526020017f61646d696e000000000000000000000000000000000000000000000000000000815250336143f9565b5b1515611b3957600080fd5b600073ffffffffffffffffffffffffffffffffffffffff168373ffffffffffffffffffffffffffffffffffffffff16141515611bb157611bb06040805190810160405280600f81526020017f7472656173757279436172726965720000000000000000000000000000000000815250846001613d70565b5b611bf26040805190810160405280600f81526020017f7472656173757279436172726965720000000000000000000000000000000000815250836001613d70565b611c336040805190810160405280600e81526020017f70726553616c6543617272696572000000000000000000000000000000000000815250836000613d70565b611c746040805190810160405280600e81526020017f61697264726f7043617272696572000000000000000000000000000000000000815250836000613d70565b611c9f7f7472656173757279000000000000000000000000000000000000000000000000848461458c565b15611d07578173ffffffffffffffffffffffffffffffffffffffff168373ffffffffffffffffffffffffffffffffffffffff167f3d4d91da7d0688f15ab54024fcf4fb8dd9da3d00bf4af3cdbb37218bb0f1e10d60405160405180910390a360019050611d0c565b600090505b92915050565b600080600260149054906101000a900460ff16151515611d3157600080fd5b6040805190810160405280600581526020017f6f776e6572000000000000000000000000000000000000000000000000000000815250611d7381336001613d70565b6000611d7d610e76565b118015611d90575042611d8e612e4e565b105b1515611d9b57600080fd5b6000611da5611993565b111515611db157600080fd5b611db961200a565b9150611de682611de1611dca611993565b611dd3866126f0565b613e9590919063ffffffff16565b6142c9565b3373ffffffffffffffffffffffffffffffffffffffff163073ffffffffffffffffffffffffffffffffffffffff167fddf252ad1be2c89b69c2b068fc378daa952ba7f163c4a11628f55a4df523b3ef611e3d611993565b6040518082815260200191505060405180910390a3611e5c6000613da9565b60019250505090565b6000600260009054906101000a900473ffffffffffffffffffffffffffffffffffffffff1673ffffffffffffffffffffffffffffffffffffffff1663bd02d0f560405180807f746f6b656e2e746f74616c49434f546f6b656e73426f75676874000000000000815250601a01905060405180910390206000604051602001526040518263ffffffff167c0100000000000000000000000000000000000000000000000000000000028152600401808260001916600019168152602001915050602060405180830381600087803b1515611f3d57600080fd5b6102c65a03f11515611f4e57600080fd5b50505060405180519050905090565b6040805190810160405280600581526020017f6f776e6572000000000000000000000000000000000000000000000000000000815250611f9f81336001613d70565b600260149054906101000a900460ff161515611fba57600080fd5b6000600260146101000a81548160ff0219169083151502179055507f7805862f689e2f13df9f062ff482ad3ad112aca9e0847911ed832e158c525b3360405160405180910390a150565b60075481565b6000600260009054906101000a900473ffffffffffffffffffffffffffffffffffffffff1673ffffffffffffffffffffffffffffffffffffffff166321f8a72160405180807f746f6b656e2e7072696d617279486f6c64657200000000000000000000000000815250601301905060405180910390206000604051602001526040518263ffffffff167c0100000000000000000000000000000000000000000000000000000000028152600401808260001916600019168152602001915050602060405180830381600087803b15156120e257600080fd5b6102c65a03f115156120f357600080fd5b50505060405180519050905090565b6000809054906101000a900460ff1681565b6000600260149054906101000a900460ff1615151561213257600080fd5b6121716040805190810160405280600581526020017f6f776e6572000000000000000000000000000000000000000000000000000000815250336143f9565b806121b757506121b66040805190810160405280600581526020017f61646d696e000000000000000000000000000000000000000000000000000000815250336143f9565b5b15156121c257600080fd5b60006121cc610f6e565b1480156121e0575060006121de613bf6565b145b15156121eb57600080fd5b60006121f5610e76565b14801561220957506000612207612e4e565b145b151561221457600080fd5b600061223f7f70726553616c65000000000000000000000000000000000000000000000000006122bb565b11151561224b57600080fd5b612254426148b3565b612278612273600454612265610f6e565b613e9590919063ffffffff16565b61499f565b612280613bf6565b612288610f6e565b7f47ffbd313bcc1ef563425c5e119327e90aef574e6d2d96d051605a2da730aaab60405160405180910390a36001905090565b6000600260009054906101000a900473ffffffffffffffffffffffffffffffffffffffff1673ffffffffffffffffffffffffffffffffffffffff1663bd02d0f58360405180807f746f6b656e2e6c6f636b656446756e6473000000000000000000000000000000815250601101826000191660001916815260200191505060405180910390206000604051602001526040518263ffffffff167c0100000000000000000000000000000000000000000000000000000000028152600401808260001916600019168152602001915050602060405180830381600087803b15156123a357600080fd5b6102c65a03f115156123b457600080fd5b505050604051805190509050919050565b600260149054906101000a900460ff1681565b6000600260149054906101000a900460ff161515156123f657600080fd5b6124008383614a8b565b905092915050565b6000600260149054906101000a900460ff1615151561242657600080fd5b6124656040805190810160405280600581526020017f6f776e6572000000000000000000000000000000000000000000000000000000815250336143f9565b806124ab57506124aa6040805190810160405280600581526020017f61646d696e000000000000000000000000000000000000000000000000000000815250336143f9565b5b15156124b657600080fd5b60006124c0610f6e565b1480156124d4575060006124d2613bf6565b145b8061250c575060006124e4610f6e565b1180156124f85750426124f5610f6e565b11155b801561250b575042612508613bf6565b10155b5b151561251757600080fd5b600073ffffffffffffffffffffffffffffffffffffffff168373ffffffffffffffffffffffffffffffffffffffff1614151561258f5761258e6040805190810160405280600e81526020017f70726553616c6543617272696572000000000000000000000000000000000000815250846001613d70565b5b6125d06040805190810160405280600e81526020017f70726553616c6543617272696572000000000000000000000000000000000000815250836001613d70565b6126116040805190810160405280600f81526020017f7472656173757279436172726965720000000000000000000000000000000000815250836000613d70565b6126526040805190810160405280600e81526020017f61697264726f7043617272696572000000000000000000000000000000000000815250836000613d70565b61267d7f70726553616c6500000000000000000000000000000000000000000000000000848461458c565b156126e5578173ffffffffffffffffffffffffffffffffffffffff168373ffffffffffffffffffffffffffffffffffffffff167fa4ad1e3ddeba209f9d5d203ce7cc5235f41de55db24e89874ebc9982770807db60405160405180910390a3600190506126ea565b600090505b92915050565b6000600260009054906101000a900473ffffffffffffffffffffffffffffffffffffffff1673ffffffffffffffffffffffffffffffffffffffff1663bd02d0f58360405180807f746f6b656e2e62616c616e636573000000000000000000000000000000000000815250600e018273ffffffffffffffffffffffffffffffffffffffff1673ffffffffffffffffffffffffffffffffffffffff166c0100000000000000000000000002815260140191505060405180910390206000604051602001526040518263ffffffff167c0100000000000000000000000000000000000000000000000000000000028152600401808260001916600019168152602001915050602060405180830381600087803b151561280b57600080fd5b6102c65a03f1151561281c57600080fd5b505050604051805190509050919050565b60018054600181600116156101000203166002900480601f0160208091040260200160405190810160405280929190818152602001828054600181600116156101000203166002900480156128c35780601f10612898576101008083540402835291602001916128c3565b820191906000526020600020905b8154815290600101906020018083116128a657829003601f168201915b505050505081565b60085481565b6000600260009054906101000a900473ffffffffffffffffffffffffffffffffffffffff1673ffffffffffffffffffffffffffffffffffffffff1663bd02d0f58360405180807f746f6b656e2e49434f546f6b656e73426f7567687400000000000000000000008152506015018273ffffffffffffffffffffffffffffffffffffffff1673ffffffffffffffffffffffffffffffffffffffff166c0100000000000000000000000002815260140191505060405180910390206000604051602001526040518263ffffffff167c0100000000000000000000000000000000000000000000000000000000028152600401808260001916600019168152602001915050602060405180830381600087803b15156129ec57600080fd5b6102c65a03f115156129fd57600080fd5b505050604051805190509050919050565b6000806000600260149054906101000a900460ff16151515612a2f57600080fd5b6040805190810160405280600681526020017f66726f7a656e0000000000000000000000000000000000000000000000000000815250612a7181336000613d70565b6040805190810160405280600581526020017f6f776e6572000000000000000000000000000000000000000000000000000000815250612ab381336000613d70565b6000612abd610e76565b118015612ad0575042612ace612e4e565b105b1515612adb57600080fd5b621baf80612afa612aeb33611666565b42613d9090919063ffffffff16565b10151515612b0757600080fd5b612b0f61200a565b9350612b196138a5565b925082612b25856126f0565b10151515612b3257600080fd5b612b5684612b5185612b43886126f0565b613d9090919063ffffffff16565b6142c9565b612b7a33612b7585612b67336130a9565b613e9590919063ffffffff16565b613eb3565b612b84334261400b565b612b8d336130a9565b3373ffffffffffffffffffffffffffffffffffffffff167f5eb55667a09fafc93552da311c3a3f79b543c41c9b1f671e11f21d1e7b62a37960405160405180910390a3612bd9336130a9565b94505050505090565b6000600260149054906101000a900460ff16151515612c0057600080fd5b612c3f6040805190810160405280600581526020017f6f776e6572000000000000000000000000000000000000000000000000000000815250336143f9565b80612c855750612c846040805190810160405280600581526020017f61646d696e000000000000000000000000000000000000000000000000000000815250336143f9565b5b1515612c9057600080fd5b6000612c9a610f6e565b118015612cad575042612cab613bf6565b105b1515612cb857600080fd5b6000612cc2610e76565b148015612cd657506000612cd4612e4e565b145b1515612ce157600080fd5b6000612ceb611993565b111515612cf757600080fd5b612d0042614b4a565b612d24612d1f600554612d11610e76565b613e9590919063ffffffff16565b614c36565b612d2c612e4e565b612d34610e76565b7fdcb8f8aff4e4d76f052b0385f5bb25b0ac3afdd7877b3e1c25903f6a0b3dda4060405160405180910390a36001905090565b6040805190810160405280600581526020017f6f776e6572000000000000000000000000000000000000000000000000000000815250612da981336001613d70565b600260149054906101000a900460ff16151515612dc557600080fd5b6001600260146101000a81548160ff0219169083151502179055507f6985a02210a168e66602d3235cb6db0e70f92b3ba4d376a33c0f3d9434bff62560405160405180910390a150565b610e4281565b6040805190810160405280600381526020017f45584f000000000000000000000000000000000000000000000000000000000081525081565b6000600260009054906101000a900473ffffffffffffffffffffffffffffffffffffffff1673ffffffffffffffffffffffffffffffffffffffff1663bd02d0f560405180807f746f6b656e2e49434f446561646c696e65000000000000000000000000000000815250601101905060405180910390206000604051602001526040518263ffffffff167c0100000000000000000000000000000000000000000000000000000000028152600401808260001916600019168152602001915050602060405180830381600087803b1515612f2657600080fd5b6102c65a03f11515612f3757600080fd5b50505060405180519050905090565b600080600260149054906101000a900460ff16151515612f6557600080fd5b6040805190810160405280600681526020017f66726f7a656e0000000000000000000000000000000000000000000000000000815250612fa781336000613d70565b612fe86040805190810160405280600581526020017f6f776e6572000000000000000000000000000000000000000000000000000000815250866000613d70565b6130296040805190810160405280600681526020017f66726f7a656e0000000000000000000000000000000000000000000000000000815250866000613d70565b61303161200a565b91508173ffffffffffffffffffffffffffffffffffffffff163373ffffffffffffffffffffffffffffffffffffffff1614158061308a575060035461308785613079856126f0565b613d9090919063ffffffff16565b10155b151561309557600080fd5b61309f8585614d22565b9250505092915050565b6000600260009054906101000a900473ffffffffffffffffffffffffffffffffffffffff1673ffffffffffffffffffffffffffffffffffffffff1663bd02d0f58360405180807f746f6b656e2e7374616b65730000000000000000000000000000000000000000815250600c01807f62616c616e6365000000000000000000000000000000000000000000000000008152506007018273ffffffffffffffffffffffffffffffffffffffff1673ffffffffffffffffffffffffffffffffffffffff166c0100000000000000000000000002815260140191505060405180910390206000604051602001526040518263ffffffff167c0100000000000000000000000000000000000000000000000000000000028152600401808260001916600019168152602001915050602060405180830381600087803b15156131ec57600080fd5b6102c65a03f115156131fd57600080fd5b505050604051805190509050919050565b6000600260009054906101000a900473ffffffffffffffffffffffffffffffffffffffff1673ffffffffffffffffffffffffffffffffffffffff16637ae1cfca8360405180807f746f6b656e2e61697264726f70706564000000000000000000000000000000008152506010018273ffffffffffffffffffffffffffffffffffffffff1673ffffffffffffffffffffffffffffffffffffffff166c0100000000000000000000000002815260140191505060405180910390206000604051602001526040518263ffffffff167c0100000000000000000000000000000000000000000000000000000000028152600401808260001916600019168152602001915050602060405180830381600087803b151561332957600080fd5b6102c65a03f1151561333a57600080fd5b505050604051805190509050919050565b611c8481565b6000600260149054906101000a900460ff1615151561336f57600080fd5b6040805190810160405280600681526020017f66726f7a656e00000000000000000000000000000000000000000000000000008152506133b181336000613d70565b6040805190810160405280600581526020017f6f776e65720000000000000000000000000000000000000000000000000000008152506133f381336000613d70565b60006133fd610e76565b11801561341057504261340e612e4e565b105b151561341b57600080fd5b600084118015613433575083613430336126f0565b10155b151561343e57600080fd5b613446612a0e565b5061346b3361346686613458336126f0565b613d9090919063ffffffff16565b6142c9565b61348f3361348a8661347c336130a9565b613e9590919063ffffffff16565b613eb3565b833373ffffffffffffffffffffffffffffffffffffffff167fcf46fbc2bc7e83ad740997622d80db3ca7019a78a97b1a5d24f34d5627c9106d60405160405180910390a3600192505050919050565b6000600260149054906101000a900460ff161515156134fc57600080fd5b6135068383614d52565b905092915050565b6000600260009054906101000a900473ffffffffffffffffffffffffffffffffffffffff1673ffffffffffffffffffffffffffffffffffffffff1663bd02d0f5848460405180807f746f6b656e2e616c6c6f77656400000000000000000000000000000000000000815250600d018373ffffffffffffffffffffffffffffffffffffffff1673ffffffffffffffffffffffffffffffffffffffff166c010000000000000000000000000281526014018273ffffffffffffffffffffffffffffffffffffffff1673ffffffffffffffffffffffffffffffffffffffff166c010000000000000000000000000281526014019250505060405180910390206000604051602001526040518263ffffffff167c0100000000000000000000000000000000000000000000000000000000028152600401808260001916600019168152602001915050602060405180830381600087803b151561366c57600080fd5b6102c65a03f1151561367d57600080fd5b50505060405180519050905092915050565b6000806000600260149054906101000a900460ff161515156136b057600080fd5b6040805190810160405280600681526020017f66726f7a656e00000000000000000000000000000000000000000000000000008152506136f281336000613d70565b60006136fc610e76565b11801561371057504261370d610e76565b11155b8015613723575042613720612e4e565b10155b151561372e57600080fd5b613743610e4234614df290919063ffffffff16565b92508261374e611993565b1015801561375e57506007548310155b151561376957600080fd5b61378483613776336128d1565b613e9590919063ffffffff16565b9150600854821115151561379757600080fd5b6137b96137b4846137a6611993565b613d9090919063ffffffff16565b613da9565b6137dd336137d8856137ca336126f0565b613e9590919063ffffffff16565b6142c9565b6137e73383614e2d565b613809613804846137f6611e65565b613e9590919063ffffffff16565b614f5d565b613825613814611993565b600654613d9090919063ffffffff16565b61382d611e65565b14151561383657fe5b3373ffffffffffffffffffffffffffffffffffffffff163073ffffffffffffffffffffffffffffffffffffffff167fddf252ad1be2c89b69c2b068fc378daa952ba7f163c4a11628f55a4df523b3ef856040518082815260200191505060405180910390a36001935050505090565b60008060008060008060008060008060006040805190810160405280600581526020017f6f776e65720000000000000000000000000000000000000000000000000000008152506138f881336000613d70565b6000613902610e76565b118015613915575042613913612e4e565b105b151561392057600080fd5b61392861200a565b9a506000613935336130a9565b14806139495750600061394733611666565b145b8061395c5750600061395a8c6126f0565b145b1561396a5760009b50613ba9565b60009950600098506000975061397f33611666565b96506305a39a8095506139a36001613995612e4e565b613e9590919063ffffffff16565b94506139b88686613e9590919063ffffffff16565b93508487101580156139ca5750838711155b15613a78578342116139dc57426139de565b835b9250613a08620151806139fa8986613d9090919063ffffffff16565b61504990919063ffffffff16565b9850613a316007613a2360078c61504990919063ffffffff16565b614df290919063ffffffff16565b9750613a75618e94613a678a613a59600a613a4b336130a9565b614df290919063ffffffff16565b614df290919063ffffffff16565b61504990919063ffffffff16565b99505b613a8c600185613e9590919063ffffffff16565b94508442101515613b86576000915084871015613aca57613ab6888a613d9090919063ffffffff16565b9150848710613ac55786613ac7565b845b96505b613b0482613af662015180613ae88b42613d9090919063ffffffff16565b61504990919063ffffffff16565b613e9590919063ffffffff16565b9850613b2d6007613b1f60078c61504990919063ffffffff16565b614df290919063ffffffff16565b9750613b83613b74618e94613b668b613b586005613b4a336130a9565b614df290919063ffffffff16565b614df290919063ffffffff16565b61504990919063ffffffff16565b8b613e9590919063ffffffff16565b99505b89613b908c6126f0565b1015613ba457613b9f8b6126f0565b613ba6565b895b9b505b505050505050505050505090565b60055481565b6040805190810160405280600381526020017f45584f000000000000000000000000000000000000000000000000000000000081525081565b6000600260009054906101000a900473ffffffffffffffffffffffffffffffffffffffff1673ffffffffffffffffffffffffffffffffffffffff1663bd02d0f560405180807f746f6b656e2e70726553616c65446561646c696e650000000000000000000000815250601501905060405180910390206000604051602001526040518263ffffffff167c0100000000000000000000000000000000000000000000000000000000028152600401808260001916600019168152602001915050602060405180830381600087803b1515613cce57600080fd5b6102c65a03f11515613cdf57600080fd5b50505060405180519050905090565b60095481565b6000613d01338484615064565b8273ffffffffffffffffffffffffffffffffffffffff163373ffffffffffffffffffffffffffffffffffffffff167f8c5be1e5ebec7d5bd14f71427d1e84f3dd0314c0f7b2291e5b200ac8c7c3b925846040518082815260200191505060405180910390a36001905092915050565b801515613d7d84846143f9565b1515141515613d8b57600080fd5b505050565b6000828211151515613d9e57fe5b818303905092915050565b600260009054906101000a900473ffffffffffffffffffffffffffffffffffffffff1673ffffffffffffffffffffffffffffffffffffffff1663e2a4853a60405180807f746f6b656e2e617661696c61626c6549434f46756e640000000000000000000081525060160190506040518091039020836040518363ffffffff167c010000000000000000000000000000000000000000000000000000000002815260040180836000191660001916815260200182815260200192505050600060405180830381600087803b1515613e7e57600080fd5b6102c65a03f11515613e8f57600080fd5b50505050565b6000808284019050838110151515613ea957fe5b8091505092915050565b600260009054906101000a900473ffffffffffffffffffffffffffffffffffffffff1673ffffffffffffffffffffffffffffffffffffffff1663e2a4853a8360405180807f746f6b656e2e7374616b65730000000000000000000000000000000000000000815250600c01807f62616c616e6365000000000000000000000000000000000000000000000000008152506007018273ffffffffffffffffffffffffffffffffffffffff1673ffffffffffffffffffffffffffffffffffffffff166c010000000000000000000000000281526014019150506040518091039020836040518363ffffffff167c010000000000000000000000000000000000000000000000000000000002815260040180836000191660001916815260200182815260200192505050600060405180830381600087803b1515613ff357600080fd5b6102c65a03f1151561400457600080fd5b5050505050565b600260009054906101000a900473ffffffffffffffffffffffffffffffffffffffff1673ffffffffffffffffffffffffffffffffffffffff1663e2a4853a8360405180807f746f6b656e2e7374616b65730000000000000000000000000000000000000000815250600c01807f737461727454696d6500000000000000000000000000000000000000000000008152506009018273ffffffffffffffffffffffffffffffffffffffff1673ffffffffffffffffffffffffffffffffffffffff166c010000000000000000000000000281526014019150506040518091039020836040518363ffffffff167c010000000000000000000000000000000000000000000000000000000002815260040180836000191660001916815260200182815260200192505050600060405180830381600087803b151561414b57600080fd5b6102c65a03f1151561415c57600080fd5b5050505050565b600260009054906101000a900473ffffffffffffffffffffffffffffffffffffffff1673ffffffffffffffffffffffffffffffffffffffff1663abfdcced8360405180807f746f6b656e2e61697264726f70706564000000000000000000000000000000008152506010018273ffffffffffffffffffffffffffffffffffffffff1673ffffffffffffffffffffffffffffffffffffffff166c010000000000000000000000000281526014019150506040518091039020836040518363ffffffff167c01000000000000000000000000000000000000000000000000000000000281526004018083600019166000191681526020018215151515815260200192505050600060405180830381600087803b151561427f57600080fd5b6102c65a03f1151561429057600080fd5b5050505050565b6000600260149054906101000a900460ff161515156142b557600080fd5b6142c0848484615360565b90509392505050565b600260009054906101000a900473ffffffffffffffffffffffffffffffffffffffff1673ffffffffffffffffffffffffffffffffffffffff1663e2a4853a8360405180807f746f6b656e2e62616c616e636573000000000000000000000000000000000000815250600e018273ffffffffffffffffffffffffffffffffffffffff1673ffffffffffffffffffffffffffffffffffffffff166c010000000000000000000000000281526014019150506040518091039020836040518363ffffffff167c010000000000000000000000000000000000000000000000000000000002815260040180836000191660001916815260200182815260200192505050600060405180830381600087803b15156143e157600080fd5b6102c65a03f115156143f257600080fd5b5050505050565b6000600260009054906101000a900473ffffffffffffffffffffffffffffffffffffffff1673ffffffffffffffffffffffffffffffffffffffff16637ae1cfca848460405180807f6163636573732e726f6c65000000000000000000000000000000000000000000815250600b0183805190602001908083835b6020831015156144985780518252602082019150602081019050602083039250614473565b6001836020036101000a0380198251168184511680821785525050505050509050018273ffffffffffffffffffffffffffffffffffffffff1673ffffffffffffffffffffffffffffffffffffffff166c010000000000000000000000000281526014019250505060405180910390206000604051602001526040518263ffffffff167c0100000000000000000000000000000000000000000000000000000000028152600401808260001916600019168152602001915050602060405180830381600087803b151561456957600080fd5b6102c65a03f1151561457a57600080fd5b50505060405180519050905092915050565b6000806145ce6040805190810160405280600581526020017f6f776e6572000000000000000000000000000000000000000000000000000000815250336143f9565b8061461457506146136040805190810160405280600581526020017f61646d696e000000000000000000000000000000000000000000000000000000815250336143f9565b5b151561461f57600080fd5b8273ffffffffffffffffffffffffffffffffffffffff168473ffffffffffffffffffffffffffffffffffffffff16141580156146885750600073ffffffffffffffffffffffffffffffffffffffff168373ffffffffffffffffffffffffffffffffffffffff1614155b80156146c7575061469761200a565b73ffffffffffffffffffffffffffffffffffffffff168373ffffffffffffffffffffffffffffffffffffffff1614155b15156146d257600080fd5b60006146dd846126f0565b1415156146e957600080fd5b6146f2856122bb565b90506000811480156147315750600073ffffffffffffffffffffffffffffffffffffffff168473ffffffffffffffffffffffffffffffffffffffff1614155b156147d9576000614741856126f0565b11151561474a57fe5b61475c83614757866126f0565b6142c9565b6147678460006142c9565b8273ffffffffffffffffffffffffffffffffffffffff168473ffffffffffffffffffffffffffffffffffffffff167fddf252ad1be2c89b69c2b068fc378daa952ba7f163c4a11628f55a4df523b3ef6147bf866126f0565b6040518082815260200191505060405180910390a36148a7565b6000811180156148155750600073ffffffffffffffffffffffffffffffffffffffff168473ffffffffffffffffffffffffffffffffffffffff16145b156148a15761482483826142c9565b61482f8560006154aa565b8273ffffffffffffffffffffffffffffffffffffffff163073ffffffffffffffffffffffffffffffffffffffff167fddf252ad1be2c89b69c2b068fc378daa952ba7f163c4a11628f55a4df523b3ef614887866126f0565b6040518082815260200191505060405180910390a36148a6565b600080fd5b5b60019150509392505050565b600260009054906101000a900473ffffffffffffffffffffffffffffffffffffffff1673ffffffffffffffffffffffffffffffffffffffff1663e2a4853a60405180807f746f6b656e2e70726553616c65537461727454696d650000000000000000000081525060160190506040518091039020836040518363ffffffff167c010000000000000000000000000000000000000000000000000000000002815260040180836000191660001916815260200182815260200192505050600060405180830381600087803b151561498857600080fd5b6102c65a03f1151561499957600080fd5b50505050565b600260009054906101000a900473ffffffffffffffffffffffffffffffffffffffff1673ffffffffffffffffffffffffffffffffffffffff1663e2a4853a60405180807f746f6b656e2e70726553616c65446561646c696e65000000000000000000000081525060150190506040518091039020836040518363ffffffff167c010000000000000000000000000000000000000000000000000000000002815260040180836000191660001916815260200182815260200192505050600060405180830381600087803b1515614a7457600080fd5b6102c65a03f11515614a8557600080fd5b50505050565b600080614a98338561350e565b905080831115614ab357614aae33856000615064565b614ad1565b614ad03385614acb8685613d9090919063ffffffff16565b615064565b5b8373ffffffffffffffffffffffffffffffffffffffff163373ffffffffffffffffffffffffffffffffffffffff167f8c5be1e5ebec7d5bd14f71427d1e84f3dd0314c0f7b2291e5b200ac8c7c3b925614b2a338861350e565b6040518082815260200191505060405180910390a3600191505092915050565b600260009054906101000a900473ffffffffffffffffffffffffffffffffffffffff1673ffffffffffffffffffffffffffffffffffffffff1663e2a4853a60405180807f746f6b656e2e49434f537461727454696d65000000000000000000000000000081525060120190506040518091039020836040518363ffffffff167c010000000000000000000000000000000000000000000000000000000002815260040180836000191660001916815260200182815260200192505050600060405180830381600087803b1515614c1f57600080fd5b6102c65a03f11515614c3057600080fd5b50505050565b600260009054906101000a900473ffffffffffffffffffffffffffffffffffffffff1673ffffffffffffffffffffffffffffffffffffffff1663e2a4853a60405180807f746f6b656e2e49434f446561646c696e6500000000000000000000000000000081525060110190506040518091039020836040518363ffffffff167c010000000000000000000000000000000000000000000000000000000002815260040180836000191660001916815260200182815260200192505050600060405180830381600087803b1515614d0b57600080fd5b6102c65a03f11515614d1c57600080fd5b50505050565b6000600260149054906101000a900460ff16151515614d4057600080fd5b614d4a83836155a7565b905092915050565b6000614d7a3384614d7585614d67338961350e565b613e9590919063ffffffff16565b615064565b8273ffffffffffffffffffffffffffffffffffffffff163373ffffffffffffffffffffffffffffffffffffffff167f8c5be1e5ebec7d5bd14f71427d1e84f3dd0314c0f7b2291e5b200ac8c7c3b925614dd3338761350e565b6040518082815260200191505060405180910390a36001905092915050565b6000806000841415614e075760009150614e26565b8284029050828482811515614e1857fe5b04141515614e2257fe5b8091505b5092915050565b600260009054906101000a900473ffffffffffffffffffffffffffffffffffffffff1673ffffffffffffffffffffffffffffffffffffffff1663e2a4853a8360405180807f746f6b656e2e49434f546f6b656e73426f7567687400000000000000000000008152506015018273ffffffffffffffffffffffffffffffffffffffff1673ffffffffffffffffffffffffffffffffffffffff166c010000000000000000000000000281526014019150506040518091039020836040518363ffffffff167c010000000000000000000000000000000000000000000000000000000002815260040180836000191660001916815260200182815260200192505050600060405180830381600087803b1515614f4557600080fd5b6102c65a03f11515614f5657600080fd5b5050505050565b600260009054906101000a900473ffffffffffffffffffffffffffffffffffffffff1673ffffffffffffffffffffffffffffffffffffffff1663e2a4853a60405180807f746f6b656e2e746f74616c49434f546f6b656e73426f75676874000000000000815250601a0190506040518091039020836040518363ffffffff167c010000000000000000000000000000000000000000000000000000000002815260040180836000191660001916815260200182815260200192505050600060405180830381600087803b151561503257600080fd5b6102c65a03f1151561504357600080fd5b50505050565b600080828481151561505757fe5b0490508091505092915050565b30600260009054906101000a900473ffffffffffffffffffffffffffffffffffffffff1673ffffffffffffffffffffffffffffffffffffffff166321f8a721600160405180807f636f6e74726163742e6e616d6500000000000000000000000000000000000000815250600d01828054600181600116156101000203166002900480156151285780601f10615106576101008083540402835291820191615128565b820191906000526020600020905b815481529060010190602001808311615114575b505091505060405180910390206000604051602001526040518263ffffffff167c0100000000000000000000000000000000000000000000000000000000028152600401808260001916600019168152602001915050602060405180830381600087803b151561519757600080fd5b6102c65a03f115156151a857600080fd5b5050506040518051905073ffffffffffffffffffffffffffffffffffffffff168173ffffffffffffffffffffffffffffffffffffffff161415156151eb57600080fd5b600260009054906101000a900473ffffffffffffffffffffffffffffffffffffffff1673ffffffffffffffffffffffffffffffffffffffff1663e2a4853a858560405180807f746f6b656e2e616c6c6f77656400000000000000000000000000000000000000815250600d018373ffffffffffffffffffffffffffffffffffffffff1673ffffffffffffffffffffffffffffffffffffffff166c010000000000000000000000000281526014018273ffffffffffffffffffffffffffffffffffffffff1673ffffffffffffffffffffffffffffffffffffffff166c01000000000000000000000000028152601401925050506040518091039020846040518363ffffffff167c010000000000000000000000000000000000000000000000000000000002815260040180836000191660001916815260200182815260200192505050600060405180830381600087803b151561534657600080fd5b6102c65a03f1151561535757600080fd5b50505050505050565b60008073ffffffffffffffffffffffffffffffffffffffff168373ffffffffffffffffffffffffffffffffffffffff161415151561539d57600080fd5b6153a6846126f0565b82111515156153b457600080fd5b6153be843361350e565b82111515156153cc57600080fd5b6153f0846153eb846153dd886126f0565b613d9090919063ffffffff16565b6142c9565b6154148361540f84615401876126f0565b613e9590919063ffffffff16565b6142c9565b61543a843361543585615427893361350e565b613d9090919063ffffffff16565b615064565b8273ffffffffffffffffffffffffffffffffffffffff168473ffffffffffffffffffffffffffffffffffffffff167fddf252ad1be2c89b69c2b068fc378daa952ba7f163c4a11628f55a4df523b3ef846040518082815260200191505060405180910390a3600190509392505050565b600260009054906101000a900473ffffffffffffffffffffffffffffffffffffffff1673ffffffffffffffffffffffffffffffffffffffff1663e2a4853a8360405180807f746f6b656e2e6c6f636b656446756e647300000000000000000000000000000081525060110182600019166000191681526020019150506040518091039020836040518363ffffffff167c010000000000000000000000000000000000000000000000000000000002815260040180836000191660001916815260200182815260200192505050600060405180830381600087803b151561558f57600080fd5b6102c65a03f115156155a057600080fd5b5050505050565b60008073ffffffffffffffffffffffffffffffffffffffff168373ffffffffffffffffffffffffffffffffffffffff16141515156155e457600080fd5b6155ed336126f0565b82111515156155fb57600080fd5b61561f3361561a8461560c336126f0565b613d9090919063ffffffff16565b6142c9565b6156438361563e84615630876126f0565b613e9590919063ffffffff16565b6142c9565b8273ffffffffffffffffffffffffffffffffffffffff163373ffffffffffffffffffffffffffffffffffffffff167fddf252ad1be2c89b69c2b068fc378daa952ba7f163c4a11628f55a4df523b3ef846040518082815260200191505060405180910390a36001905092915050565b600260009054906101000a900473ffffffffffffffffffffffffffffffffffffffff1673ffffffffffffffffffffffffffffffffffffffff1663ca446dd960405180807f746f6b656e2e7072696d617279486f6c6465720000000000000000000000000081525060130190506040518091039020836040518363ffffffff167c01000000000000000000000000000000000000000000000000000000000281526004018083600019166000191681526020018273ffffffffffffffffffffffffffffffffffffffff1673ffffffffffffffffffffffffffffffffffffffff16815260200192505050600060405180830381600087803b15156157b357600080fd5b6102c65a03f115156157c457600080fd5b50505050565b600260009054906101000a900473ffffffffffffffffffffffffffffffffffffffff1673ffffffffffffffffffffffffffffffffffffffff1663e2a4853a60405180807f746f6b656e2e746f74616c537570706c7900000000000000000000000000000081525060110190506040518091039020836040518363ffffffff167c010000000000000000000000000000000000000000000000000000000002815260040180836000191660001916815260200182815260200192505050600060405180830381600087803b151561589f57600080fd5b6102c65a03f115156158b057600080fd5b505050505600a165627a7a723058203ce8c7d013af2a1a58b0ea7959401015166bd491cdcf0938219510bdc67da97e0029",
  "source": "pragma solidity 0.4.18;\n\nimport \"./zeppelin-solidity/token/ERC20/PausableToken.sol\";\nimport \"./EXOBase.sol\";\nimport \"./interfaces/EXORoleInterface.sol\";\n\n/**\n * @title EXO Token\n *\n * @dev Implementation of the EXO Token by Exodia.World.\n */\ncontract EXOToken is PausableToken {\n    string public constant NAME = \"EXO\";\n    string public constant SYMBOL = \"EXO\";\n    uint8 public constant DECIMALS = 18;\n    uint256 public constant PRESALE_ETH_TO_EXO = 7300;\n    uint256 public constant ICO_ETH_TO_EXO = 3650;\n\n    uint256 public minBalanceForStakeReward;\n    uint256 public preSaleDuration; // in seconds\n    uint256 public ICODuration; // in seconds\n    uint256 public initialICOFund;\n    uint256 public minICOTokensBoughtEveryPurchase; // by one account for one purchase\n    uint256 public maxICOTokensBought; // by one account for all purchases\n    uint256 public airdropAmount;\n\n    event StartPreSale(uint256 indexed startTime, uint256 indexed deadline);\n    event StartICO(uint256 indexed startTime, uint256 indexed deadline);\n    event TransferETH(address indexed from, address indexed to, uint256 value);\n    event DepositStake(address indexed staker, uint256 indexed value);\n    event WithdrawStake(address indexed staker, uint256 indexed value);\n    event UpdateStakeBalance(address indexed staker, uint256 indexed balance);\n    event SetTreasuryCarrier(address indexed oldCarrier, address indexed newCarrier);\n    event SetPreSaleCarrier(address indexed oldCarrier, address indexed newCarrier);\n    event SetAirdropCarrier(address indexed oldCarrier, address indexed newCarrier);\n\n    /**\n     * @dev Set token information.\n     *\n     * @param _exoStorageAddress The EXO eternal storage's address\n     * @param _totalSupply The total supply of tokens -- it's fixed\n     * @param _minBalanceForStakeReward The minimum balance required for stake reward\n     * @param _lockedTreasuryFund Locked treasury fund, only handed to its carrier account\n     * @param _lockedPreSaleFund Locked pre-sale fund, only handed to its carrier account\n     * @param _preSaleDuration The duration of pre-sale period in seconds\n     * @param _ICODuration The duration of ICO\n     * @param _availableICOFund Total amount of tokens that can be bought in ICO\n     * @param _minICOTokensBoughtEveryPurchase The minimum amount of ICO tokens that must be bought by one account for every purchase\n     * @param _maxICOTokensBought The maximum amount of ICO tokens that can be bought by one account for all purchases\n     * @param _airdropAmount The airdrop amount for a single account\n     */\n    function EXOToken(\n        address _exoStorageAddress,\n        uint256 _totalSupply,\n        uint256 _minBalanceForStakeReward,\n        uint256 _lockedTreasuryFund,\n        uint256 _lockedPreSaleFund,\n        uint256 _preSaleDuration,\n        uint256 _ICODuration,\n        uint256 _availableICOFund,\n        uint256 _minICOTokensBoughtEveryPurchase,\n        uint256 _maxICOTokensBought,\n        uint256 _airdropAmount\n    ) EXOBase(\"EXOToken\", _exoStorageAddress) public\n    {\n        roleCheck(\"owner\", msg.sender, true);\n\n        bool _isUpgrade = exoStorage.getBool(keccak256(\"contract.storage.initialized\"));\n        if (_isUpgrade == false) {\n            // Execute everything below only once on initial deployment.\n            primaryHolder(msg.sender); // set the primary holder of EXO tokens\n\n            totalSupply(_totalSupply.mul(uint(10)**DECIMALS));\n            minBalanceForStakeReward = _minBalanceForStakeReward.mul(uint(10)**DECIMALS);\n\n            lockedFundOf(\"treasury\", _lockedTreasuryFund.mul(uint(10)**DECIMALS));\n            lockedFundOf(\"preSale\", _lockedPreSaleFund.mul(uint(10)**DECIMALS));\n            preSaleDuration = _preSaleDuration;\n\n            ICODuration = _ICODuration;\n            availableICOFund(_availableICOFund.mul(uint(10)**DECIMALS));\n            initialICOFund = availableICOFund();\n            minICOTokensBoughtEveryPurchase = _minICOTokensBoughtEveryPurchase.mul(uint(10)**DECIMALS);\n            maxICOTokensBought = _maxICOTokensBought.mul(uint(10)**DECIMALS);\n\n            airdropAmount = _airdropAmount.mul(uint(10)**DECIMALS);\n\n            // Calculate remaining balance for stake reward.\n            balanceOf(msg.sender, totalSupply()\n                .sub(lockedFundOf(\"treasury\"))\n                .sub(lockedFundOf(\"preSale\"))\n                .sub(availableICOFund()));\n\n            assert(balanceOf(msg.sender) >= minBalanceForStakeReward);\n        }\n    }\n\n    modifier beforePreSale() {\n        require(preSaleStartTime() == 0 && preSaleDeadline() == 0);\n        _;\n    }\n\n    modifier afterPreSale() {\n        require(preSaleStartTime() > 0 && preSaleDeadline() < now);\n        _;\n    }\n\n    modifier beforeOrDuringPreSale() {\n        require((preSaleStartTime() == 0 && preSaleDeadline() == 0) || (preSaleStartTime() > 0 && preSaleStartTime() <= now && preSaleDeadline() >= now));\n        _;\n    }\n\n    modifier beforeICO() {\n        require(ICOStartTime() == 0 && ICODeadline() == 0);\n        _;\n    }\n\n    modifier duringICO() {\n        require(ICOStartTime() > 0 && ICOStartTime() <= now && ICODeadline() >= now);\n        _;\n    }\n\n    modifier afterICO() {\n        require(ICOStartTime() > 0 && ICODeadline() < now);\n        _;\n    }\n\n    /**\n     * @dev Don't accept any ETH without specific functions being called.\n     */\n    function () external payable {\n        revert();\n    }\n\n    /**\n     * @dev Transfer token for a specified address\n     *\n     * @param _to The address to transfer to.\n     * @param _value The amount to be transferred.\n     */\n    function transfer(address _to, uint256 _value) public whenNotPaused exceptRole(\"frozen\") returns (bool) {\n        // Owner and frozen accounts can't receive tokens.\n        roleCheck(\"owner\", _to, false);\n        roleCheck(\"frozen\", _to, false);\n\n        address primaryHolder_ = primaryHolder();\n        require(msg.sender != primaryHolder_ || balanceOf(primaryHolder_).sub(_value) >= minBalanceForStakeReward);\n\n        return super.transfer(_to, _value);\n    }\n\n    /**\n     * @dev Transfer tokens from one address to another.\n     *\n     * @param _from The address which you want to send tokens from\n     * @param _to The address which you want to transfer to\n     * @param _value The amount of tokens to be transferred\n     */\n    function transferFrom(address _from, address _to, uint256 _value) public whenNotPaused exceptRole(\"frozen\") returns (bool) {\n        roleCheck(\"frozen\", _from, false);\n        roleCheck(\"frozen\", _to, false);\n        return super.transferFrom(_from, _to, _value);\n    }\n\n    /**\n     * @dev Start the pre-sale.\n     *\n     * Note: The pre-sale carrier should be set first before running this function.\n     */\n    function startPreSale() external whenNotPaused onlySuperUser beforePreSale beforeICO returns (bool) {\n        require(lockedFundOf(\"preSale\") > 0);\n\n        preSaleStartTime(now);\n        preSaleDeadline(preSaleStartTime().add(preSaleDuration));\n\n        StartPreSale(preSaleStartTime(), preSaleDeadline());\n        return true;\n    }\n\n    /**\n     * @dev Buy ICO tokens using ETH.\n     */\n    function buyICOTokens() external payable whenNotPaused exceptRole(\"frozen\") duringICO returns (bool) {\n        // Check for serious participants and if we have tokens available.\n        uint256 exoBought = msg.value.mul(ICO_ETH_TO_EXO);\n        require(availableICOFund() >= exoBought && exoBought >= minICOTokensBoughtEveryPurchase);\n\n        // Whales check!\n        uint256 totalICOTokensBoughtByAccount = ICOTokensBoughtBy(msg.sender).add(exoBought);\n        require(totalICOTokensBoughtByAccount <= maxICOTokensBought);\n\n        availableICOFund(availableICOFund().sub(exoBought));\n        balanceOf(msg.sender, balanceOf(msg.sender).add(exoBought));\n        ICOTokensBoughtBy(msg.sender, totalICOTokensBoughtByAccount);\n        totalICOTokensBought(totalICOTokensBought().add(exoBought));\n\n        assert(totalICOTokensBought() == initialICOFund.sub(availableICOFund())); // check invariant\n        Transfer(this, msg.sender, exoBought);\n        return true;\n    }\n\n    /**\n     * @dev Start the ICO.\n     */\n    function startICO() external whenNotPaused onlySuperUser afterPreSale beforeICO returns (bool) {\n        require(availableICOFund() > 0);\n\n        ICOStartTime(now);\n        ICODeadline(ICOStartTime().add(ICODuration));\n\n        StartICO(ICOStartTime(), ICODeadline());\n        return true;\n    }\n\n    /**\n     * @dev Release any remaining ICO fund back to primary holder after ICO ended.\n     */\n    function releaseRemainingICOFundToPrimaryHolder() external whenNotPaused onlyRole(\"owner\") afterICO returns (bool) {\n        require(availableICOFund() > 0);\n\n        address primaryHolder_ = primaryHolder();\n        balanceOf(primaryHolder_, balanceOf(primaryHolder_).add(availableICOFund()));\n        Transfer(this, msg.sender, availableICOFund());\n        availableICOFund(0);\n        return true;\n    }\n\n    /**\n     * @dev Send ETH fund raised in ICO for primary holder.\n     */\n    function claimEtherFundRaisedInICO() external whenNotPaused onlyRole(\"owner\") afterICO returns (bool) {\n        require(this.balance > 0);\n\n        // WARNING: All Ethers will be sent, even for non-ICO-related.\n        uint256 fundRaised = this.balance;\n        address primaryHolder_ = primaryHolder();\n        primaryHolder_.transfer(fundRaised);\n\n        TransferETH(this, primaryHolder_, fundRaised);\n        return true;\n    }\n\n    /**\n     * @dev Transfer free tokens from the remaining ICO fund.\n     *\n     * The free tokens are added to the _to address' staking balance.\n     * @param _to The address which the airdrop is designated to\n     */\n    function airdrop(address _to) external whenNotPaused onlyRole(\"airdropCarrier\") exceptRole(\"frozen\") afterICO returns (bool) {\n        roleCheck(\"frozen\", _to, false);\n        require(_to != address(0));\n        require(isAirdropped(_to) == false);\n        require(availableICOFund() >= airdropAmount);\n\n        // Airdrop to the designated account.\n        availableICOFund(availableICOFund().sub(airdropAmount));\n        stakeBalanceOf(_to, stakeBalanceOf(_to).add(airdropAmount));\n        stakeStartTimeOf(_to, now);\n        isAirdropped(_to, true);\n\n        Transfer(msg.sender, _to, airdropAmount);\n        return true;\n    }\n\n    /**\n     * @dev Deposit stake to Exodia.World.\n     *\n     * Deposited stake is added to the staker's staking balance.\n     * @param _value The amount of EXO to deposit\n     */\n    function depositStake(uint256 _value) external whenNotPaused exceptRole(\"frozen\") exceptRole(\"owner\") afterICO returns (bool) {\n        require(_value > 0 && balanceOf(msg.sender) >= _value);\n\n        updateStakeBalance();\n        balanceOf(msg.sender, balanceOf(msg.sender).sub(_value));\n        stakeBalanceOf(msg.sender, stakeBalanceOf(msg.sender).add(_value));\n\n        DepositStake(msg.sender, _value);\n        return true;\n    }\n\n    /**\n     * @dev Withdraw stake from Exodia.World.\n     *\n     * Withdrawn stake is added to the staker's liquid balance.\n     * @param _value The amount of EXO to withdraw\n     */\n    function withdrawStake(uint256 _value) external whenNotPaused exceptRole(\"frozen\") exceptRole(\"owner\") afterICO returns (bool) {\n        require(_value > 0 && stakeBalanceOf(msg.sender) >= _value);\n\n        // No reward if staking has not been for at least 21 days.\n        if (now.sub(stakeStartTimeOf(msg.sender)) >= 21 days) {\n            updateStakeBalance();\n        } else {\n            stakeStartTimeOf(msg.sender, now); // re-stake balance even if no reward\n        }\n        stakeBalanceOf(msg.sender, stakeBalanceOf(msg.sender).sub(_value));\n        balanceOf(msg.sender, balanceOf(msg.sender).add(_value));\n\n        WithdrawStake(msg.sender, _value);\n        return true;\n    }\n\n    /**\n     * @dev Update a staker's balance with staking interest.\n     */\n    function updateStakeBalance() public whenNotPaused exceptRole(\"frozen\") exceptRole(\"owner\") afterICO returns (uint256) {\n        // Has the staking been for at least 21 days?\n        require(now.sub(stakeStartTimeOf(msg.sender)) >= 21 days);\n\n        address primaryHolder_ = primaryHolder();\n        uint256 interest = calculateInterest();\n        require(balanceOf(primaryHolder_) >= interest);\n\n        balanceOf(primaryHolder_, balanceOf(primaryHolder_).sub(interest));\n        stakeBalanceOf(msg.sender, stakeBalanceOf(msg.sender).add(interest));\n        stakeStartTimeOf(msg.sender, now);\n\n        UpdateStakeBalance(msg.sender, stakeBalanceOf(msg.sender));\n        return stakeBalanceOf(msg.sender);\n    }\n\n    /**\n     * @dev Calculate interest of a staker's balance since last staking.\n     *\n     * Everything is hardcoded to simplify things.\n     * 10% for the first 3 years and 5% for the rest until all tokens have been distributed.\n     * The interest is gained every 7 days.\n     * For example, staking of 5 EXO for 16 days would yield 5 EXO * 0.0273% (rate per day) * 14 (days).\n     */\n    function calculateInterest() public view exceptRole(\"owner\") afterICO returns (uint256) {\n        address primaryHolder_ = primaryHolder();\n        if (stakeBalanceOf(msg.sender) == 0 || stakeStartTimeOf(msg.sender) == 0 || balanceOf(primaryHolder_) == 0) {return 0;}\n\n        uint256 totalInterest = 0;\n        uint256 stakeDays = 0;\n        uint256 eligibleStakeDays = 0;\n        uint256 stakeStartTime = stakeStartTimeOf(msg.sender);\n\n        // 10% for the first 3 years.\n        uint256 interestPeriod = 3 years;\n        uint256 interestStartTime = ICODeadline().add(1); // starts after ICO\n        uint256 interestEndTime = interestStartTime.add(interestPeriod);\n        // Only runs if the stake start time is within this interest period.\n        if (stakeStartTime >= interestStartTime && stakeStartTime <= interestEndTime) {\n            // Put an upper boundary for stake end time.\n            uint256 stakeEndTime = now > interestEndTime ? interestEndTime : now;\n            stakeDays = stakeEndTime.sub(stakeStartTime).div(1 days);\n            // Ex: 34 days // 7 days = 4 cycles with a remainder ==> 4 cycles * 7 days = 28 days\n            eligibleStakeDays = stakeDays.div(7).mul(7);\n            // Ex: interest = 50 EXO * (10%/365 days) * 28 days\n            totalInterest = stakeBalanceOf(msg.sender).mul(10).mul(eligibleStakeDays).div(36500);\n        }\n\n        // 5% for the rest.\n        interestStartTime = interestEndTime.add(1);\n        if (now >= interestStartTime) {\n            uint256 leftOverStakeDays = 0;\n            if (stakeStartTime < interestStartTime) {\n                leftOverStakeDays = stakeDays.sub(eligibleStakeDays); // ex: 34 days - 28 days = 6 days\n                // Put a lower boundary for stake start time.\n                stakeStartTime = stakeStartTime < interestStartTime ? interestStartTime : stakeStartTime;\n            }\n            // Left over staking days from the first period are carried over to this one.\n            stakeDays = now.sub(stakeStartTime).div(1 days).add(leftOverStakeDays);\n            eligibleStakeDays = stakeDays.div(7).mul(7);\n            totalInterest = totalInterest.add(stakeBalanceOf(msg.sender).mul(5).mul(eligibleStakeDays).div(36500));\n        }\n\n        return balanceOf(primaryHolder_) >= totalInterest ? totalInterest : balanceOf(primaryHolder_);\n    }\n\n    /**\n     * @dev Transfer fund into new treasury carrier's address and publish it.\n     *\n     * At this point, there must be two addresses with access to treasury carrier role.\n     * @param _oldTreasuryCarrier The address of old treasury carrier account\n     * @param _treasuryCarrier The address of new treasury carrier account\n     */\n    function setTreasuryCarrier(address _oldTreasuryCarrier, address _treasuryCarrier) external whenNotPaused onlySuperUser returns (bool) {\n        if (_oldTreasuryCarrier != address(0)) {\n            // Is it really the previous carrier?\n            roleCheck(\"treasuryCarrier\", _oldTreasuryCarrier, true);\n        }\n        roleCheck(\"treasuryCarrier\", _treasuryCarrier, true);\n        roleCheck(\"preSaleCarrier\", _treasuryCarrier, false);\n        roleCheck(\"airdropCarrier\", _treasuryCarrier, false);\n\n        if (_moveFund(\"treasury\", _oldTreasuryCarrier, _treasuryCarrier)) {\n            SetTreasuryCarrier(_oldTreasuryCarrier, _treasuryCarrier);\n            return true;\n        }\n        return false;\n    }\n\n    /**\n     * @dev Transfer fund into new pre-sale carrier's address and publish it.\n     *\n     * At this point, there must be two addresses with access to pre-sale carrier role.\n     * @param _oldPreSaleCarrier The address of old pre-sale carrier account\n     * @param _preSaleCarrier The address of new pre-sale carrier account\n     */\n    function setPreSaleCarrier(address _oldPreSaleCarrier, address _preSaleCarrier) external whenNotPaused onlySuperUser beforeOrDuringPreSale returns (bool) {\n        if (_oldPreSaleCarrier != address(0)) {\n            // Is it really the previous carrier?\n            roleCheck(\"preSaleCarrier\", _oldPreSaleCarrier, true);\n        }\n        roleCheck(\"preSaleCarrier\", _preSaleCarrier, true);\n        roleCheck(\"treasuryCarrier\", _preSaleCarrier, false);\n        roleCheck(\"airdropCarrier\", _preSaleCarrier, false);\n\n        if (_moveFund(\"preSale\", _oldPreSaleCarrier, _preSaleCarrier)) {\n            SetPreSaleCarrier(_oldPreSaleCarrier, _preSaleCarrier);\n            return true;\n        }\n        return false;\n    }\n\n    /**\n     * @dev Move remaining fund to a new carrier.\n     *\n     * @param _lockedFundName The name of fund to be released if the first carrier is set\n     * @param _oldCarrier The old carrier of fund\n     * @param _newCarrier The new carrier of fund\n     */\n    function _moveFund(bytes32 _lockedFundName, address _oldCarrier, address _newCarrier) internal onlySuperUser returns (bool) {\n        // Check for non-sensical address and possibility of abuse.\n        require(_oldCarrier != _newCarrier && _newCarrier != address(0) && _newCarrier != primaryHolder());\n        require(balanceOf(_newCarrier) == 0); // burn check!\n\n        uint256 lockedFund = lockedFundOf(_lockedFundName);\n\n        if (lockedFund == 0 && _oldCarrier != address(0)) {\n            assert(balanceOf(_oldCarrier) > 0);\n            // Move fund from old carrier to new carrier.\n            // WARNING: Everything will be transferred.\n            balanceOf(_newCarrier, balanceOf(_oldCarrier));\n            balanceOf(_oldCarrier, 0);\n            Transfer(_oldCarrier, _newCarrier, balanceOf(_newCarrier));\n        } else if (lockedFund > 0 && _oldCarrier == address(0)) {\n            // Release fund to new carrier.\n            balanceOf(_newCarrier, lockedFund);\n            lockedFundOf(_lockedFundName, 0);\n            Transfer(this, _newCarrier, balanceOf(_newCarrier));\n        } else {\n            // Revert if anything unexpected happens.\n            revert();\n        }\n\n        return true;\n    }\n\n    /**\n     * @dev Get the primary holder.\n     */\n    function primaryHolder() public view returns (address) {\n        return exoStorage.getAddress(keccak256(\"token.primaryHolder\"));\n    }\n\n    /**\n     * @dev Get the pre-sale start time.\n     */\n    function preSaleStartTime() public view returns (uint256) {\n        return exoStorage.getUint(keccak256(\"token.preSaleStartTime\"));\n    }\n\n    /**\n     * @dev Get the pre-sale deadline.\n     */\n    function preSaleDeadline() public view returns (uint256) {\n        return exoStorage.getUint(keccak256(\"token.preSaleDeadline\"));\n    }\n\n    /**\n     * @dev Get the ICO start time.\n     */\n    function ICOStartTime() public view returns (uint256) {\n        return exoStorage.getUint(keccak256(\"token.ICOStartTime\"));\n    }\n\n    /**\n     * @dev Get the ICO deadline.\n     */\n    function ICODeadline() public view returns (uint256) {\n        return exoStorage.getUint(keccak256(\"token.ICODeadline\"));\n    }\n\n    /**\n     * @dev Get the available ICO fund.\n     */\n    function availableICOFund() public view returns (uint256) {\n        return exoStorage.getUint(keccak256(\"token.availableICOFund\"));\n    }\n\n    /**\n     * @dev Get the total ICO tokens bought.\n     */\n    function totalICOTokensBought() public view returns (uint256) {\n        return exoStorage.getUint(keccak256(\"token.totalICOTokensBought\"));\n    }\n\n    /**\n     * @dev Get locked fund of a type.\n     *\n     * @param _type //\n     */\n    function lockedFundOf(bytes32 _type) public view returns (uint256) {\n        return exoStorage.getUint(keccak256(\"token.lockedFunds\", _type));\n    }\n\n    /**\n     * @dev Get the total ICO tokens (EXO) bought by an address.\n     *\n     * @param _address //\n     */\n    function ICOTokensBoughtBy(address _address) public view returns (uint256) {\n        return exoStorage.getUint(keccak256(\"token.ICOTokensBought\", _address));\n    }\n\n    /**\n     * @dev Has an address received airdrop tokens before?\n     *\n     * @param _address //\n     */\n    function isAirdropped(address _address) public view returns (bool) {\n        return exoStorage.getBool(keccak256(\"token.airdropped\", _address));\n    }\n\n    /**\n     * @dev Get the stake balance of an account.\n     *\n     * @param _staker The staker's account address\n     */\n    function stakeBalanceOf(address _staker) public view returns (uint256) {\n        return exoStorage.getUint(keccak256(\"token.stakes\", \"balance\", _staker));\n    }\n\n    /**\n     * @dev Get the stake start time of an account.\n     *\n     * @param _staker The staker's account address\n     */\n    function stakeStartTimeOf(address _staker) public view returns (uint256) {\n        return exoStorage.getUint(keccak256(\"token.stakes\", \"startTime\", _staker));\n    }\n\n    /**\n     * @dev Get the latest EXORole contract.\n     */\n    function exoRole() private view returns (EXORoleInterface) {\n        return EXORoleInterface(exoStorage.getAddress(keccak256(\"contract.name\", \"EXORole\")));\n    }\n\n    /**\n     * @dev Set the primary holder of tokens.\n     *\n     * @param _holder The address of holder\n     */\n    function primaryHolder(address _holder) private {\n        exoStorage.setAddress(keccak256(\"token.primaryHolder\"), _holder);\n    }\n\n    /**\n     * @dev Set the pre-sale start time\n     *\n     * @param _preSaleStartTime //\n     */\n    function preSaleStartTime(uint256 _preSaleStartTime) private {\n        exoStorage.setUint(keccak256(\"token.preSaleStartTime\"), _preSaleStartTime);\n    }\n\n    /**\n     * @dev Set the pre-sale deadline\n     *\n     * @param _preSaleDeadline //\n     */\n    function preSaleDeadline(uint256 _preSaleDeadline) private {\n        exoStorage.setUint(keccak256(\"token.preSaleDeadline\"), _preSaleDeadline);\n    }\n\n    /**\n     * @dev Set the ICO start time\n     *\n     * @param _ICOStartTime //\n     */\n    function ICOStartTime(uint256 _ICOStartTime) private {\n        exoStorage.setUint(keccak256(\"token.ICOStartTime\"), _ICOStartTime);\n    }\n\n    /**\n     * @dev Set the ICO deadline\n     *\n     * @param _ICODeadline //\n     */\n    function ICODeadline(uint256 _ICODeadline) private {\n        exoStorage.setUint(keccak256(\"token.ICODeadline\"), _ICODeadline);\n    }\n\n    /**\n     * @dev Set the available ICO fund.\n     *\n     * @param _availableICOFund //\n     */\n    function availableICOFund(uint256 _availableICOFund) private {\n        exoStorage.setUint(keccak256(\"token.availableICOFund\"), _availableICOFund);\n    }\n\n    /**\n     * @dev Set the total ICO tokens bought.\n     *\n     * @param _totalICOTokensBought //\n     */\n    function totalICOTokensBought(uint256 _totalICOTokensBought) private {\n        exoStorage.setUint(keccak256(\"token.totalICOTokensBought\"), _totalICOTokensBought);\n    }\n\n    /**\n     * @dev Set value for the locked fund of a type.\n     *\n     * @param _type //\n     * @param _value //\n     */\n    function lockedFundOf(bytes32 _type, uint256 _value) private {\n        exoStorage.setUint(keccak256(\"token.lockedFunds\", _type), _value);\n    }\n\n    /**\n     * @dev Set value for the total ICO tokens bought by an address.\n     *\n     * @param _address //\n     * @param _value //\n     */\n    function ICOTokensBoughtBy(address _address, uint256 _value) private {\n        exoStorage.setUint(keccak256(\"token.ICOTokensBought\", _address), _value);\n    }\n\n    /**\n     * @dev Mark an address' airdrop status.\n     *\n     * @param _address //\n     * @param _isAirdropped //\n     */\n    function isAirdropped(address _address, bool _isAirdropped) private {\n        exoStorage.setBool(keccak256(\"token.airdropped\", _address), _isAirdropped);\n    }\n\n    /**\n     * @dev Set the stake balance of an account.\n     *\n     * @param _staker The staker's account address\n     * @param _value //\n     */\n    function stakeBalanceOf(address _staker, uint256 _value) private {\n        exoStorage.setUint(keccak256(\"token.stakes\", \"balance\", _staker), _value);\n    }\n\n    /**\n     * @dev Set the stake start time of an account.\n     *\n     * @param _staker The staker's account address\n     * @param _value //\n     */\n    function stakeStartTimeOf(address _staker, uint256 _value) private {\n        exoStorage.setUint(keccak256(\"token.stakes\", \"startTime\", _staker), _value);\n    }\n}\n",
  "sourcePath": "/Users/victorhuberta/Code/exodia.world/contracts/EXOToken.sol",
  "compiler": {
    "name": "solc",
    "version": "0.4.18+commit.9cf6e910.Emscripten.clang"
  },
  "schemaVersion": "1.0.1",
  "updatedAt": "2018-03-10T03:22:15.157Z"
}